{
    "contractName": "BlindBoxContract",
    "abi": [
        {
            "inputs": [
                {
                    "internalType": "address",
                    "name": "_root",
                    "type": "address"
                },
                {
                    "internalType": "address",
                    "name": "_dealer",
                    "type": "address"
                },
                {
                    "internalType": "uint8",
                    "name": "_luckyCount",
                    "type": "uint8"
                }
            ],
            "stateMutability": "nonpayable",
            "type": "constructor"
        },
        {
            "anonymous": false,
            "inputs": [
                {
                    "components": [
                        {
                            "internalType": "address",
                            "name": "player",
                            "type": "address"
                        },
                        {
                            "internalType": "uint8",
                            "name": "command",
                            "type": "uint8"
                        },
                        {
                            "internalType": "uint256",
                            "name": "betHash",
                            "type": "uint256"
                        },
                        {
                            "internalType": "uint256",
                            "name": "amount",
                            "type": "uint256"
                        },
                        {
                            "internalType": "uint256",
                            "name": "balance",
                            "type": "uint256"
                        },
                        {
                            "internalType": "uint256",
                            "name": "ctime",
                            "type": "uint256"
                        }
                    ],
                    "indexed": false,
                    "internalType": "struct BetMessage",
                    "name": "_message",
                    "type": "tuple"
                }
            ],
            "name": "BetEvent",
            "type": "event"
        },
        {
            "anonymous": false,
            "inputs": [
                {
                    "components": [
                        {
                            "internalType": "address",
                            "name": "player",
                            "type": "address"
                        },
                        {
                            "internalType": "bool",
                            "name": "isWin",
                            "type": "bool"
                        },
                        {
                            "internalType": "uint256",
                            "name": "betHash",
                            "type": "uint256"
                        },
                        {
                            "internalType": "uint256",
                            "name": "blindHash",
                            "type": "uint256"
                        },
                        {
                            "internalType": "uint256",
                            "name": "ctime",
                            "type": "uint256"
                        }
                    ],
                    "indexed": false,
                    "internalType": "struct LotteryMessage",
                    "name": "_message",
                    "type": "tuple"
                }
            ],
            "name": "LotteryEvent",
            "type": "event"
        },
        {
            "anonymous": false,
            "inputs": [
                {
                    "components": [
                        {
                            "internalType": "address",
                            "name": "player",
                            "type": "address"
                        },
                        {
                            "internalType": "address",
                            "name": "dealer",
                            "type": "address"
                        },
                        {
                            "internalType": "address",
                            "name": "root",
                            "type": "address"
                        },
                        {
                            "internalType": "uint8",
                            "name": "odds",
                            "type": "uint8"
                        },
                        {
                            "internalType": "uint8",
                            "name": "kickbackRate",
                            "type": "uint8"
                        },
                        {
                            "internalType": "uint8",
                            "name": "brokerageRate",
                            "type": "uint8"
                        },
                        {
                            "internalType": "uint8",
                            "name": "taxRate",
                            "type": "uint8"
                        },
                        {
                            "internalType": "uint256",
                            "name": "balance",
                            "type": "uint256"
                        },
                        {
                            "internalType": "uint256",
                            "name": "betFunds",
                            "type": "uint256"
                        },
                        {
                            "internalType": "uint256",
                            "name": "bonus",
                            "type": "uint256"
                        },
                        {
                            "internalType": "uint256",
                            "name": "kickback",
                            "type": "uint256"
                        },
                        {
                            "internalType": "uint256",
                            "name": "brokerage",
                            "type": "uint256"
                        },
                        {
                            "internalType": "uint256",
                            "name": "tax",
                            "type": "uint256"
                        },
                        {
                            "internalType": "uint256",
                            "name": "income",
                            "type": "uint256"
                        },
                        {
                            "internalType": "uint256",
                            "name": "ctime",
                            "type": "uint256"
                        }
                    ],
                    "indexed": false,
                    "internalType": "struct SplitMessage",
                    "name": "_message",
                    "type": "tuple"
                }
            ],
            "name": "SplitEvent",
            "type": "event"
        },
        {
            "stateMutability": "payable",
            "type": "fallback"
        },
        {
            "inputs": [],
            "name": "brokerageRate",
            "outputs": [
                {
                    "internalType": "uint8",
                    "name": "",
                    "type": "uint8"
                }
            ],
            "stateMutability": "view",
            "type": "function"
        },
        {
            "inputs": [
                {
                    "internalType": "uint8",
                    "name": "_luckyNumber",
                    "type": "uint8"
                },
                {
                    "internalType": "string",
                    "name": "_nonce",
                    "type": "string"
                },
                {
                    "internalType": "uint256",
                    "name": "_toHash",
                    "type": "uint256"
                }
            ],
            "name": "compareHash",
            "outputs": [
                {
                    "internalType": "bool",
                    "name": "",
                    "type": "bool"
                }
            ],
            "stateMutability": "pure",
            "type": "function"
        },
        {
            "inputs": [
                {
                    "internalType": "uint256",
                    "name": "_hash",
                    "type": "uint256"
                }
            ],
            "name": "foldBlindBox",
            "outputs": [],
            "stateMutability": "nonpayable",
            "type": "function"
        },
        {
            "inputs": [
                {
                    "internalType": "uint8",
                    "name": "_luckyNumber",
                    "type": "uint8"
                },
                {
                    "internalType": "string",
                    "name": "_nonce",
                    "type": "string"
                }
            ],
            "name": "genHash",
            "outputs": [
                {
                    "internalType": "uint256",
                    "name": "",
                    "type": "uint256"
                }
            ],
            "stateMutability": "pure",
            "type": "function"
        },
        {
            "inputs": [],
            "name": "getBalance",
            "outputs": [
                {
                    "internalType": "uint256",
                    "name": "",
                    "type": "uint256"
                }
            ],
            "stateMutability": "view",
            "type": "function"
        },
        {
            "inputs": [],
            "name": "getBenefitRate",
            "outputs": [
                {
                    "internalType": "uint8",
                    "name": "",
                    "type": "uint8"
                }
            ],
            "stateMutability": "view",
            "type": "function"
        },
        {
            "inputs": [],
            "name": "getBetFunds",
            "outputs": [
                {
                    "internalType": "uint256",
                    "name": "",
                    "type": "uint256"
                }
            ],
            "stateMutability": "view",
            "type": "function"
        },
        {
            "inputs": [],
            "name": "getBetHash",
            "outputs": [
                {
                    "internalType": "uint256",
                    "name": "",
                    "type": "uint256"
                }
            ],
            "stateMutability": "view",
            "type": "function"
        },
        {
            "inputs": [],
            "name": "getBlindHash",
            "outputs": [
                {
                    "internalType": "uint256",
                    "name": "",
                    "type": "uint256"
                }
            ],
            "stateMutability": "view",
            "type": "function"
        },
        {
            "inputs": [],
            "name": "getBonus",
            "outputs": [
                {
                    "internalType": "uint256",
                    "name": "",
                    "type": "uint256"
                }
            ],
            "stateMutability": "view",
            "type": "function"
        },
        {
            "inputs": [],
            "name": "getBrokerageFunds",
            "outputs": [
                {
                    "internalType": "uint256",
                    "name": "",
                    "type": "uint256"
                }
            ],
            "stateMutability": "view",
            "type": "function"
        },
        {
            "inputs": [],
            "name": "getDealer",
            "outputs": [
                {
                    "internalType": "address",
                    "name": "",
                    "type": "address"
                }
            ],
            "stateMutability": "view",
            "type": "function"
        },
        {
            "inputs": [],
            "name": "getIncome",
            "outputs": [
                {
                    "internalType": "uint256",
                    "name": "",
                    "type": "uint256"
                }
            ],
            "stateMutability": "view",
            "type": "function"
        },
        {
            "inputs": [],
            "name": "getKickbackFunds",
            "outputs": [
                {
                    "internalType": "uint256",
                    "name": "",
                    "type": "uint256"
                }
            ],
            "stateMutability": "view",
            "type": "function"
        },
        {
            "inputs": [],
            "name": "getPlayer",
            "outputs": [
                {
                    "internalType": "address",
                    "name": "",
                    "type": "address"
                }
            ],
            "stateMutability": "view",
            "type": "function"
        },
        {
            "inputs": [],
            "name": "getRoot",
            "outputs": [
                {
                    "internalType": "address",
                    "name": "",
                    "type": "address"
                }
            ],
            "stateMutability": "view",
            "type": "function"
        },
        {
            "inputs": [],
            "name": "getState",
            "outputs": [
                {
                    "internalType": "enum BlindBoxState",
                    "name": "",
                    "type": "uint8"
                }
            ],
            "stateMutability": "view",
            "type": "function"
        },
        {
            "inputs": [],
            "name": "getTaxFunds",
            "outputs": [
                {
                    "internalType": "uint256",
                    "name": "",
                    "type": "uint256"
                }
            ],
            "stateMutability": "view",
            "type": "function"
        },
        {
            "inputs": [
                {
                    "internalType": "uint8",
                    "name": "_luckyNumber",
                    "type": "uint8"
                },
                {
                    "internalType": "string",
                    "name": "_nonce",
                    "type": "string"
                }
            ],
            "name": "isWin",
            "outputs": [
                {
                    "internalType": "bool",
                    "name": "",
                    "type": "bool"
                }
            ],
            "stateMutability": "view",
            "type": "function"
        },
        {
            "inputs": [],
            "name": "kickbackRate",
            "outputs": [
                {
                    "internalType": "uint8",
                    "name": "",
                    "type": "uint8"
                }
            ],
            "stateMutability": "view",
            "type": "function"
        },
        {
            "inputs": [
                {
                    "internalType": "uint8",
                    "name": "_luckyNumber",
                    "type": "uint8"
                },
                {
                    "internalType": "string",
                    "name": "_nonce",
                    "type": "string"
                }
            ],
            "name": "lottery",
            "outputs": [
                {
                    "internalType": "bool",
                    "name": "",
                    "type": "bool"
                }
            ],
            "stateMutability": "nonpayable",
            "type": "function"
        },
        {
            "inputs": [],
            "name": "luckyCount",
            "outputs": [
                {
                    "internalType": "uint8",
                    "name": "",
                    "type": "uint8"
                }
            ],
            "stateMutability": "view",
            "type": "function"
        },
        {
            "inputs": [],
            "name": "odds",
            "outputs": [
                {
                    "internalType": "uint8",
                    "name": "",
                    "type": "uint8"
                }
            ],
            "stateMutability": "view",
            "type": "function"
        },
        {
            "inputs": [
                {
                    "internalType": "uint8",
                    "name": "_luckyNumber",
                    "type": "uint8"
                },
                {
                    "internalType": "string",
                    "name": "_nonce",
                    "type": "string"
                }
            ],
            "name": "placeBet",
            "outputs": [
                {
                    "internalType": "uint256",
                    "name": "",
                    "type": "uint256"
                }
            ],
            "stateMutability": "payable",
            "type": "function"
        },
        {
            "inputs": [],
            "name": "taxRate",
            "outputs": [
                {
                    "internalType": "uint8",
                    "name": "",
                    "type": "uint8"
                }
            ],
            "stateMutability": "view",
            "type": "function"
        },
        {
            "stateMutability": "payable",
            "type": "receive"
        }
    ],
    "bytecode": "60806040526006805463ffffffff1916631e46145017905534801561002357600080fd5b5060405161140e38038061140e833981016040819052610042916100cd565b60038054600080546001600160a01b03199081166001600160a01b0397881617909155600180549091169490951693909317909355600161ff0160a01b03199091163360ff60a81b191617600160a81b60ff92909216919091021760ff60a01b1916600160a21b17905561011a565b80516001600160a01b03811681146100c857600080fd5b919050565b6000806000606084860312156100e257600080fd5b6100eb846100b1565b92506100f9602085016100b1565b9150604084015160ff8116811461010f57600080fd5b809150509250925092565b6112e5806101296000396000f3fe60806040526004361061016a5760003560e01c80634b21a2a7116100d1578063771a3a1d1161008a5780639cf6d1af116100645780639cf6d1af146104d5578063c7922998146104f3578063f247e3de14610508578063ff4ffc981461051d576101e1565b8063771a3a1d1461048a5780638bdff161146104ab5780638c2001b9146104c0576101e1565b80634b21a2a7146103d65780634e089900146103f85780634f6a34f5146104175780635c664672146104375780635ca1e1651461045757806373f44c2b14610475576101e1565b8063233de12611610123578063233de1261461032d57806327e8ace0146103475780633308f42d1461035c57806339819f331461038e5780633dd95366146103ae578063416281ed146103c1576101e1565b8063062a78941461024857806310b8d4d7146102705780631202ee31146102a057806312065fe0146102d357806316ca3b78146102e65780631865c57d14610306576101e1565b366101e1576040805160c0810182526002546001600160a01b0316815260016020820152600554818301523460608201524760808201524260a082015290517fe167e24a1fdd7263a54853f9dc879157610521a56aba2efbb361dd6b7d9b0e7a906101d6908390610e29565b60405180910390a150005b6040805160c0810182526002546001600160a01b0316815260006020820152600554818301523460608201524760808201524260a082015290517fe167e24a1fdd7263a54853f9dc879157610521a56aba2efbb361dd6b7d9b0e7a906101d6908390610e29565b34801561025457600080fd5b5061025d610532565b6040519081526020015b60405180910390f35b34801561027c57600080fd5b5061029061028b366004610f2d565b610554565b6040519015158152602001610267565b3480156102ac57600080fd5b506003546102c190600160a81b900460ff1681565b60405160ff9091168152602001610267565b3480156102df57600080fd5b504761025d565b3480156102f257600080fd5b50610290610301366004610f7b565b6105c5565b34801561031257600080fd5b50600354600160a01b900460ff166040516102679190610fe8565b34801561033957600080fd5b506006546102c19060ff1681565b34801561035357600080fd5b5061025d6105db565b34801561036857600080fd5b506002546001600160a01b03165b6040516001600160a01b039091168152602001610267565b34801561039a57600080fd5b506006546102c19062010000900460ff1681565b61025d6103bc366004610f2d565b6105f8565b3480156103cd57600080fd5b506102c16107ca565b3480156103e257600080fd5b506103f66103f1366004611010565b61081a565b005b34801561040457600080fd5b506006546102c190610100900460ff1681565b34801561042357600080fd5b5061025d610432366004610f2d565b6108d8565b34801561044357600080fd5b50610290610452366004610f2d565b61090e565b34801561046357600080fd5b506000546001600160a01b0316610376565b34801561048157600080fd5b5061025d610aa4565b34801561049657600080fd5b506006546102c1906301000000900460ff1681565b3480156104b757600080fd5b5061025d610ade565b3480156104cc57600080fd5b5061025d610b00565b3480156104e157600080fd5b506001546001600160a01b0316610376565b3480156104ff57600080fd5b5060045461025d565b34801561051457600080fd5b5061025d610b2a565b34801561052957600080fd5b5060055461025d565b600354600090819061054e90600160a81b900460ff1647611055565b92915050565b600060038054600160a01b900460ff16600481111561057557610575610fd2565b146105ad5760405162461bcd60e51b81526020600482015260036024820152620f0f0f60eb1b60448201526064015b60405180910390fd5b60006105b984846108d8565b60055414949350505050565b6000816105d285856108d8565b14949350505050565b6000806105e6610b00565b6105ee610aa4565b61054e9190611069565b600080600354600160a01b900460ff16600481111561061957610619610fd2565b146106565760405162461bcd60e51b815260206004820152600d60248201526c18d85b9b9bdd0818994818995d609a1b60448201526064016105a4565b60035460009061067090600160a81b900460ff1647611055565b90505a61067e90600a611080565b81116106f25760405162461bcd60e51b815260206004820152603760248201527f5468652062657420616d6f756e742063616e6e6f74206265206c65737320746860448201527f616e2031302074696d657320746865206761732066656500000000000000000060648201526084016105a4565b6003805460ff60a01b1916600160a01b179055604080516000808252602082019092523090349060405161072691906110cf565b60006040518083038185875af1925050503d8060008114610763576040519150601f19603f3d011682016040523d82523d6000602084013e610768565b606091505b50509050806107895760405162461bcd60e51b81526004016105a4906110eb565b61079385856108d8565b600555600280546001600160a01b031916331781556003805460ff60a01b1916600160a01b83021790555050600554949350505050565b600354600654600091829160ff600160a81b9092048216916064916107f6916101009091041682611118565b600654610806919060ff1661113b565b6108109190611164565b61054e919061113b565b6000546001600160a01b0316331461086f5760405162461bcd60e51b815260206004820152601860248201527727b7363c903937b7ba1031b0b71031b0b636103a3434b99760411b60448201526064016105a4565b6004600354600160a01b900460ff16600481111561088f5761088f610fd2565b146108c15760405162461bcd60e51b81526020600482015260026024820152610f0f60f31b60448201526064016105a4565b60045560006005556003805460ff60a01b19169055565b60008083836040516020016108ee929190611186565b60408051808303601f190181529190528051602090910120949350505050565b600080546001600160a01b031633146109645760405162461bcd60e51b815260206004820152601860248201527727b7363c903937b7ba1031b0b71031b0b636103a3434b99760411b60448201526064016105a4565b6002600354600160a01b900460ff16600481111561098457610984610fd2565b146109b75760405162461bcd60e51b81526020600482015260036024820152620f0f0f60eb1b60448201526064016105a4565b6003805460ff60a01b1916600360a01b17905560006109d68484610554565b6040805160a0810182526002546001600160a01b0316815282151560208201526005548183015260045460608201524260808201529051919250907f0af486f5a46f35bda92314e1385dd240666fc078e948bd192e25443265146e9790610a7990839081516001600160a01b0316815260208083015115159082015260408083015190820152606080830151908201526080918201519181019190915260a00190565b60405180910390a1610a89610b57565b506003805460ff60a01b1916600160a21b1790559392505050565b600080610aaf610ade565b600654909150600090606490610acd90610100900460ff1684611080565b610ad79190611055565b9392505050565b6006546000908190606490610af69060ff1647611080565b61054e9190611055565b600080610b0b610aa4565b600654909150600090606490610acd9062010000900460ff1684611080565b600080610b35610ade565b90506000610b41610aa4565b90506000610b4f8284611069565b949350505050565b6000610b61610532565b90506000610b6d610ade565b90506000610b79610aa4565b90506000610b85610b00565b90506000610b916105db565b90506000610b9d610b2a565b60025460408051600080825260208201928390529394506001600160a01b03909216918491610bcc91906110cf565b60006040518083038185875af1925050503d8060008114610c09576040519150601f19603f3d011682016040523d82523d6000602084013e610c0e565b606091505b5050905080610c2f5760405162461bcd60e51b81526004016105a4906110eb565b6001546040805160008082526020820192839052926001600160a01b0316918791610c59916110cf565b60006040518083038185875af1925050503d8060008114610c96576040519150601f19603f3d011682016040523d82523d6000602084013e610c9b565b606091505b5050905080610cbc5760405162461bcd60e51b81526004016105a4906110eb565b600080546040805183815260208101918290526001600160a01b03909216918791610ce791906110cf565b60006040518083038185875af1925050503d8060008114610d24576040519150601f19603f3d011682016040523d82523d6000602084013e610d29565b606091505b5050905080610d4a5760405162461bcd60e51b81526004016105a4906110eb565b604080516101e0810182526002546001600160a01b03908116825260015481166020830152600054168183015260065460ff808216606084015261010080830482166080850152620100008304821660a085015263010000009092041660c08301524760e083015281018b905261012081018a90526101408101899052610160810188905261018081018790526101a08101869052426101c082015290517f4cd724ce38dbbbc65b45bf46f33fcd046afb449d91c5a2b1662f9832adec64bd90610e159083906111b5565b60405180910390a150505050505050505050565b81516001600160a01b0316815260208083015160ff169082015260408083015190820152606080830151908201526080808301519082015260a0918201519181019190915260c00190565b803560ff81168114610e8557600080fd5b919050565b634e487b7160e01b600052604160045260246000fd5b600082601f830112610eb157600080fd5b813567ffffffffffffffff80821115610ecc57610ecc610e8a565b604051601f8301601f19908116603f01168101908282118183101715610ef457610ef4610e8a565b81604052838152866020858801011115610f0d57600080fd5b836020870160208301376000602085830101528094505050505092915050565b60008060408385031215610f4057600080fd5b610f4983610e74565b9150602083013567ffffffffffffffff811115610f6557600080fd5b610f7185828601610ea0565b9150509250929050565b600080600060608486031215610f9057600080fd5b610f9984610e74565b9250602084013567ffffffffffffffff811115610fb557600080fd5b610fc186828701610ea0565b925050604084013590509250925092565b634e487b7160e01b600052602160045260246000fd5b602081016005831061100a57634e487b7160e01b600052602160045260246000fd5b91905290565b60006020828403121561102257600080fd5b5035919050565b634e487b7160e01b600052601260045260246000fd5b634e487b7160e01b600052601160045260246000fd5b60008261106457611064611029565b500490565b60008282101561107b5761107b61103f565b500390565b600081600019048311821515161561109a5761109a61103f565b500290565b60005b838110156110ba5781810151838201526020016110a2565b838111156110c9576000848401525b50505050565b600082516110e181846020870161109f565b9190910192915050565b60208082526013908201527211551217d514905394d1915497d19052531151606a1b604082015260600190565b600060ff821660ff8416808210156111325761113261103f565b90039392505050565b600060ff821660ff84168160ff048111821515161561115c5761115c61103f565b029392505050565b600060ff83168061117757611177611029565b8060ff84160491505092915050565b60ff60f81b8360f81b168152600082516111a781600185016020870161109f565b919091016001019392505050565b81516001600160a01b031681526101e0810160208301516111e160208401826001600160a01b03169052565b5060408301516111fc60408401826001600160a01b03169052565b506060830151611211606084018260ff169052565b506080830151611226608084018260ff169052565b5060a083015161123b60a084018260ff169052565b5060c083015161125060c084018260ff169052565b5060e08381015190830152610100808401519083015261012080840151908301526101408084015190830152610160808401519083015261018080840151908301526101a080840151908301526101c09283015192909101919091529056fea2646970667358221220cfc8a8451da5984c5b830ec2a8f46de40db631a68a5c4fddcb9c0c6c2da0557c64736f6c634300080c0033",
    "sourcePath": "/Users/cj/worktemp/truffle-test2/contracts/BlindBoxContract.sol",
    "compiler": {
        "name": "solc",
        "version": "0.8.12+commit.f00d7308"
    },
    "functionHashes": {
        "brokerageRate()": "39819f33",
        "compareHash(uint8,string,uint256)": "16ca3b78",
        "foldBlindBox(uint256)": "4b21a2a7",
        "genHash(uint8,string)": "4f6a34f5",
        "getBalance()": "12065fe0",
        "getBenefitRate()": "416281ed",
        "getBetFunds()": "062a7894",
        "getBetHash()": "ff4ffc98",
        "getBlindHash()": "c7922998",
        "getBonus()": "8bdff161",
        "getBrokerageFunds()": "8c2001b9",
        "getDealer()": "9cf6d1af",
        "getIncome()": "f247e3de",
        "getKickbackFunds()": "73f44c2b",
        "getPlayer()": "3308f42d",
        "getRoot()": "5ca1e165",
        "getState()": "1865c57d",
        "getTaxFunds()": "27e8ace0",
        "isWin(uint8,string)": "10b8d4d7",
        "kickbackRate()": "4e089900",
        "lottery(uint8,string)": "5c664672",
        "luckyCount()": "1202ee31",
        "odds()": "233de126",
        "placeBet(uint8,string)": "3dd95366",
        "taxRate()": "771a3a1d"
    },
    "gasEstimates": {
        "creation": {
            "codeDepositCost": "967400",
            "executionCost": "infinite",
            "totalCost": "infinite"
        },
        "external": {
            "": "7146",
            "brokerageRate()": "2413",
            "compareHash(uint8,string,uint256)": "infinite",
            "foldBlindBox(uint256)": "55889",
            "genHash(uint8,string)": "infinite",
            "getBalance()": "273",
            "getBenefitRate()": "infinite",
            "getBetFunds()": "2424",
            "getBetHash()": "2391",
            "getBlindHash()": "2347",
            "getBonus()": "2548",
            "getBrokerageFunds()": "infinite",
            "getDealer()": "2375",
            "getIncome()": "infinite",
            "getKickbackFunds()": "infinite",
            "getPlayer()": "2387",
            "getRoot()": "2442",
            "getState()": "2484",
            "getTaxFunds()": "infinite",
            "isWin(uint8,string)": "infinite",
            "kickbackRate()": "2369",
            "lottery(uint8,string)": "infinite",
            "luckyCount()": "2398",
            "odds()": "2336",
            "placeBet(uint8,string)": "infinite",
            "taxRate()": "2369"
        },
        "internal": {
            "splitBonus()": "infinite"
        }
    }
}