{
  "contractName": "BlindBoxContract",
  "abi": [
    {
      "inputs": [
        {
          "internalType": "address",
          "name": "_root",
          "type": "address"
        },
        {
          "internalType": "address",
          "name": "_dealer",
          "type": "address"
        },
        {
          "internalType": "uint8",
          "name": "_luckyCount",
          "type": "uint8"
        }
      ],
      "stateMutability": "nonpayable",
      "type": "constructor"
    },
    {
      "anonymous": false,
      "inputs": [
        {
          "components": [
            {
              "internalType": "address",
              "name": "player",
              "type": "address"
            },
            {
              "internalType": "uint8",
              "name": "command",
              "type": "uint8"
            },
            {
              "internalType": "uint256",
              "name": "betHash",
              "type": "uint256"
            },
            {
              "internalType": "uint256",
              "name": "amount",
              "type": "uint256"
            },
            {
              "internalType": "uint256",
              "name": "balance",
              "type": "uint256"
            },
            {
              "internalType": "uint256",
              "name": "betFunds",
              "type": "uint256"
            },
            {
              "internalType": "uint256",
              "name": "gas",
              "type": "uint256"
            }
          ],
          "indexed": false,
          "internalType": "struct BetMessage",
          "name": "_message",
          "type": "tuple"
        }
      ],
      "name": "BetEvent",
      "type": "event"
    },
    {
      "anonymous": false,
      "inputs": [
        {
          "components": [
            {
              "internalType": "address",
              "name": "player",
              "type": "address"
            },
            {
              "internalType": "bool",
              "name": "isWin",
              "type": "bool"
            },
            {
              "internalType": "uint256",
              "name": "betHash",
              "type": "uint256"
            },
            {
              "internalType": "uint256",
              "name": "blindHash",
              "type": "uint256"
            },
            {
              "internalType": "uint256",
              "name": "ctime",
              "type": "uint256"
            }
          ],
          "indexed": false,
          "internalType": "struct LotteryMessage",
          "name": "_message",
          "type": "tuple"
        }
      ],
      "name": "LotteryEvent",
      "type": "event"
    },
    {
      "anonymous": false,
      "inputs": [
        {
          "components": [
            {
              "internalType": "address",
              "name": "player",
              "type": "address"
            },
            {
              "internalType": "address",
              "name": "dealer",
              "type": "address"
            },
            {
              "internalType": "address",
              "name": "root",
              "type": "address"
            },
            {
              "internalType": "uint16",
              "name": "odds",
              "type": "uint16"
            },
            {
              "internalType": "uint16",
              "name": "kickbackRate",
              "type": "uint16"
            },
            {
              "internalType": "uint16",
              "name": "brokerageRate",
              "type": "uint16"
            },
            {
              "internalType": "uint16",
              "name": "taxRate",
              "type": "uint16"
            },
            {
              "internalType": "uint256",
              "name": "balance",
              "type": "uint256"
            },
            {
              "internalType": "uint256",
              "name": "betFunds",
              "type": "uint256"
            },
            {
              "internalType": "uint256",
              "name": "bonus",
              "type": "uint256"
            },
            {
              "internalType": "uint256",
              "name": "kickback",
              "type": "uint256"
            },
            {
              "internalType": "uint256",
              "name": "brokerage",
              "type": "uint256"
            },
            {
              "internalType": "uint256",
              "name": "tax",
              "type": "uint256"
            },
            {
              "internalType": "uint256",
              "name": "income",
              "type": "uint256"
            },
            {
              "internalType": "uint256",
              "name": "ctime",
              "type": "uint256"
            }
          ],
          "indexed": false,
          "internalType": "struct SplitMessage",
          "name": "_message",
          "type": "tuple"
        }
      ],
      "name": "SplitEvent",
      "type": "event"
    },
    {
      "stateMutability": "payable",
      "type": "fallback",
      "payable": true
    },
    {
      "inputs": [],
      "name": "brokerageRate",
      "outputs": [
        {
          "internalType": "uint16",
          "name": "",
          "type": "uint16"
        }
      ],
      "stateMutability": "view",
      "type": "function",
      "constant": true
    },
    {
      "inputs": [],
      "name": "kickbackRate",
      "outputs": [
        {
          "internalType": "uint16",
          "name": "",
          "type": "uint16"
        }
      ],
      "stateMutability": "view",
      "type": "function",
      "constant": true
    },
    {
      "inputs": [],
      "name": "luckyCount",
      "outputs": [
        {
          "internalType": "uint8",
          "name": "",
          "type": "uint8"
        }
      ],
      "stateMutability": "view",
      "type": "function",
      "constant": true
    },
    {
      "inputs": [],
      "name": "odds",
      "outputs": [
        {
          "internalType": "uint16",
          "name": "",
          "type": "uint16"
        }
      ],
      "stateMutability": "view",
      "type": "function",
      "constant": true
    },
    {
      "inputs": [],
      "name": "taxRate",
      "outputs": [
        {
          "internalType": "uint16",
          "name": "",
          "type": "uint16"
        }
      ],
      "stateMutability": "view",
      "type": "function",
      "constant": true
    },
    {
      "stateMutability": "payable",
      "type": "receive",
      "payable": true
    },
    {
      "inputs": [],
      "name": "getState",
      "outputs": [
        {
          "internalType": "enum BlindBoxState",
          "name": "",
          "type": "uint8"
        }
      ],
      "stateMutability": "view",
      "type": "function",
      "constant": true
    },
    {
      "inputs": [],
      "name": "getRoot",
      "outputs": [
        {
          "internalType": "address",
          "name": "",
          "type": "address"
        }
      ],
      "stateMutability": "view",
      "type": "function",
      "constant": true
    },
    {
      "inputs": [],
      "name": "getDealer",
      "outputs": [
        {
          "internalType": "address",
          "name": "",
          "type": "address"
        }
      ],
      "stateMutability": "view",
      "type": "function",
      "constant": true
    },
    {
      "inputs": [],
      "name": "getPlayer",
      "outputs": [
        {
          "internalType": "address",
          "name": "",
          "type": "address"
        }
      ],
      "stateMutability": "view",
      "type": "function",
      "constant": true
    },
    {
      "inputs": [],
      "name": "isRunning",
      "outputs": [
        {
          "internalType": "bool",
          "name": "",
          "type": "bool"
        }
      ],
      "stateMutability": "view",
      "type": "function",
      "constant": true
    },
    {
      "inputs": [],
      "name": "stop",
      "outputs": [],
      "stateMutability": "nonpayable",
      "type": "function"
    },
    {
      "inputs": [],
      "name": "run",
      "outputs": [],
      "stateMutability": "nonpayable",
      "type": "function"
    },
    {
      "inputs": [],
      "name": "getBlindHash",
      "outputs": [
        {
          "internalType": "uint256",
          "name": "",
          "type": "uint256"
        }
      ],
      "stateMutability": "view",
      "type": "function",
      "constant": true
    },
    {
      "inputs": [],
      "name": "getBetHash",
      "outputs": [
        {
          "internalType": "uint256",
          "name": "",
          "type": "uint256"
        }
      ],
      "stateMutability": "view",
      "type": "function",
      "constant": true
    },
    {
      "inputs": [],
      "name": "getBetFunds",
      "outputs": [
        {
          "internalType": "uint256",
          "name": "",
          "type": "uint256"
        }
      ],
      "stateMutability": "view",
      "type": "function",
      "constant": true
    },
    {
      "inputs": [],
      "name": "getBonus",
      "outputs": [
        {
          "internalType": "uint256",
          "name": "",
          "type": "uint256"
        }
      ],
      "stateMutability": "view",
      "type": "function",
      "constant": true
    },
    {
      "inputs": [],
      "name": "getKickbackFunds",
      "outputs": [
        {
          "internalType": "uint256",
          "name": "",
          "type": "uint256"
        }
      ],
      "stateMutability": "view",
      "type": "function",
      "constant": true
    },
    {
      "inputs": [],
      "name": "getBrokerageFunds",
      "outputs": [
        {
          "internalType": "uint256",
          "name": "",
          "type": "uint256"
        }
      ],
      "stateMutability": "view",
      "type": "function",
      "constant": true
    },
    {
      "inputs": [],
      "name": "getTaxFunds",
      "outputs": [
        {
          "internalType": "uint256",
          "name": "",
          "type": "uint256"
        }
      ],
      "stateMutability": "view",
      "type": "function",
      "constant": true
    },
    {
      "inputs": [],
      "name": "getIncome",
      "outputs": [
        {
          "internalType": "uint256",
          "name": "",
          "type": "uint256"
        }
      ],
      "stateMutability": "view",
      "type": "function",
      "constant": true
    },
    {
      "inputs": [],
      "name": "getBenefitRate",
      "outputs": [
        {
          "internalType": "uint16",
          "name": "",
          "type": "uint16"
        }
      ],
      "stateMutability": "view",
      "type": "function",
      "constant": true
    },
    {
      "inputs": [
        {
          "internalType": "uint16",
          "name": "_odds",
          "type": "uint16"
        }
      ],
      "name": "setOdds",
      "outputs": [],
      "stateMutability": "nonpayable",
      "type": "function"
    },
    {
      "inputs": [
        {
          "internalType": "uint16",
          "name": "_kickbackRate",
          "type": "uint16"
        }
      ],
      "name": "setKickbackRate",
      "outputs": [],
      "stateMutability": "nonpayable",
      "type": "function"
    },
    {
      "inputs": [
        {
          "internalType": "uint16",
          "name": "_brokerageRate",
          "type": "uint16"
        },
        {
          "internalType": "uint16",
          "name": "_taxRate",
          "type": "uint16"
        }
      ],
      "name": "setKickbackAllocationRatio",
      "outputs": [],
      "stateMutability": "nonpayable",
      "type": "function"
    },
    {
      "inputs": [
        {
          "internalType": "uint256",
          "name": "_hash",
          "type": "uint256"
        }
      ],
      "name": "foldBlindBox",
      "outputs": [],
      "stateMutability": "nonpayable",
      "type": "function"
    },
    {
      "inputs": [
        {
          "internalType": "uint8",
          "name": "_luckyNumber",
          "type": "uint8"
        },
        {
          "internalType": "string",
          "name": "_nonce",
          "type": "string"
        }
      ],
      "name": "placeBet",
      "outputs": [
        {
          "internalType": "uint256",
          "name": "",
          "type": "uint256"
        }
      ],
      "stateMutability": "nonpayable",
      "type": "function"
    },
    {
      "inputs": [
        {
          "internalType": "uint8",
          "name": "_luckyNumber",
          "type": "uint8"
        },
        {
          "internalType": "string",
          "name": "_nonce",
          "type": "string"
        }
      ],
      "name": "lottery",
      "outputs": [
        {
          "internalType": "bool",
          "name": "",
          "type": "bool"
        }
      ],
      "stateMutability": "nonpayable",
      "type": "function"
    },
    {
      "inputs": [],
      "name": "feed",
      "outputs": [],
      "stateMutability": "payable",
      "type": "function",
      "payable": true
    },
    {
      "inputs": [],
      "name": "getBalance",
      "outputs": [
        {
          "internalType": "uint256",
          "name": "",
          "type": "uint256"
        }
      ],
      "stateMutability": "view",
      "type": "function",
      "constant": true
    },
    {
      "inputs": [
        {
          "internalType": "uint8",
          "name": "_luckyNumber",
          "type": "uint8"
        },
        {
          "internalType": "string",
          "name": "_nonce",
          "type": "string"
        }
      ],
      "name": "isWin",
      "outputs": [
        {
          "internalType": "bool",
          "name": "",
          "type": "bool"
        }
      ],
      "stateMutability": "view",
      "type": "function",
      "constant": true
    },
    {
      "inputs": [
        {
          "internalType": "uint8",
          "name": "_luckyNumber",
          "type": "uint8"
        },
        {
          "internalType": "string",
          "name": "_nonce",
          "type": "string"
        }
      ],
      "name": "genHash",
      "outputs": [
        {
          "internalType": "uint256",
          "name": "",
          "type": "uint256"
        }
      ],
      "stateMutability": "pure",
      "type": "function",
      "constant": true
    },
    {
      "inputs": [
        {
          "internalType": "uint8",
          "name": "_luckyNumber",
          "type": "uint8"
        },
        {
          "internalType": "string",
          "name": "_nonce",
          "type": "string"
        },
        {
          "internalType": "uint256",
          "name": "_toHash",
          "type": "uint256"
        }
      ],
      "name": "compareHash",
      "outputs": [
        {
          "internalType": "bool",
          "name": "",
          "type": "bool"
        }
      ],
      "stateMutability": "pure",
      "type": "function",
      "constant": true
    }
  ],
  "bytecode": "0x60806040526050600660006101000a81548161ffff021916908361ffff1602179055506014600660026101000a81548161ffff021916908361ffff1602179055506046600660046101000a81548161ffff021916908361ffff160217905550601e6006806101000a81548161ffff021916908361ffff1602179055503480156200008857600080fd5b5060405162003686380380620036868339818101604052810190620000ae919062000285565b33600360006101000a81548173ffffffffffffffffffffffffffffffffffffffff021916908373ffffffffffffffffffffffffffffffffffffffff160217905550826000806101000a81548173ffffffffffffffffffffffffffffffffffffffff021916908373ffffffffffffffffffffffffffffffffffffffff16021790555081600160006101000a81548173ffffffffffffffffffffffffffffffffffffffff021916908373ffffffffffffffffffffffffffffffffffffffff16021790555080600360166101000a81548160ff021916908360ff1602179055506004600360146101000a81548160ff02191690836004811115620001b457620001b3620002e1565b5b02179055506001600360156101000a81548160ff02191690831515021790555050505062000310565b600080fd5b600073ffffffffffffffffffffffffffffffffffffffff82169050919050565b60006200020f82620001e2565b9050919050565b620002218162000202565b81146200022d57600080fd5b50565b600081519050620002418162000216565b92915050565b600060ff82169050919050565b6200025f8162000247565b81146200026b57600080fd5b50565b6000815190506200027f8162000254565b92915050565b600080600060608486031215620002a157620002a0620001dd565b5b6000620002b18682870162000230565b9350506020620002c48682870162000230565b9250506040620002d7868287016200026e565b9150509250925092565b7f4e487b7100000000000000000000000000000000000000000000000000000000600052602160045260246000fd5b61336680620003206000396000f3fe6080604052600436106101e75760003560e01c80634e089900116101025780638bdff16111610095578063c792299811610064578063c792299814610945578063d9d00a5714610970578063f247e3de14610999578063ff4ffc98146109c457610443565b80638bdff161146108ad5780638c2001b9146108d85780639cf6d1af14610903578063c04062261461092e57610443565b80635ca1e165116100d15780635ca1e1651461080357806361efb5271461082e57806373f44c2b14610857578063771a3a1d1461088257610443565b80634e089900146107355780634f6a34f5146107605780635afdbd311461079d5780635c664672146107c657610443565b8063233de1261161017a57806339819f331161014957806339819f33146106795780633dd95366146106a4578063416281ed146106e15780634b21a2a71461070c57610443565b8063233de126146105ee57806327e8ace0146106195780633308f42d1461064457806337a7b7d81461066f57610443565b806312065fe0116101b657806312065fe01461053057806316ca3b781461055b5780631865c57d146105985780632014e5d1146105c357610443565b8063062a78941461048657806307da68f5146104b157806310b8d4d7146104c85780631202ee311461050557610443565b3661044357600360159054906101000a900460ff1661023b576040517f08c379a000000000000000000000000000000000000000000000000000000000815260040161023290612168565b60405180910390fd5b600061026d600360169054906101000a900460ff1660ff16344761025f91906121c1565b6109ef90919063ffffffff16565b905060006004811115610283576102826121f5565b5b600360149054906101000a900460ff1660048111156102a5576102a46121f5565b5b146102e5576040517f08c379a00000000000000000000000000000000000000000000000000000000081526004016102dc90612270565b60405180910390fd5b80341015346040516020016102fa919061232e565b6040516020818303038152906040529061034a576040517f08c379a000000000000000000000000000000000000000000000000000000000815260040161034191906123d3565b60405180910390fd5b506001600360146101000a81548160ff02191690836004811115610371576103706121f5565b5b021790555033600260006101000a81548173ffffffffffffffffffffffffffffffffffffffff021916908373ffffffffffffffffffffffffffffffffffffffff16021790555060006040518060e001604052803373ffffffffffffffffffffffffffffffffffffffff168152602001600160ff16815260200160055481526020013481526020014781526020018381526020015a81525090507fd9ccab18f2b95ab95e3fa1dd8094672f096ad892e847a8c5a91fcfba5b1ddee48160405161043991906124ef565b60405180910390a1005b6000610484576040517f08c379a000000000000000000000000000000000000000000000000000000000815260040161047b90612556565b60405180910390fd5b005b34801561049257600080fd5b5061049b610a39565b6040516104a89190612585565b60405180910390f35b3480156104bd57600080fd5b506104c6610a6a565b005b3480156104d457600080fd5b506104ef60048036038101906104ea9190612715565b610b17565b6040516104fc919061278c565b60405180910390f35b34801561051157600080fd5b5061051a610bab565b60405161052791906127b6565b60405180910390f35b34801561053c57600080fd5b50610545610bbe565b6040516105529190612585565b60405180910390f35b34801561056757600080fd5b50610582600480360381019061057d91906127fd565b610bc6565b60405161058f919061278c565b60405180910390f35b3480156105a457600080fd5b506105ad610bdd565b6040516105ba91906128b4565b60405180910390f35b3480156105cf57600080fd5b506105d8610bf4565b6040516105e5919061278c565b60405180910390f35b3480156105fa57600080fd5b50610603610c0b565b60405161061091906128ec565b60405180910390f35b34801561062557600080fd5b5061062e610c1f565b60405161063b9190612585565b60405180910390f35b34801561065057600080fd5b50610659610c45565b6040516106669190612916565b60405180910390f35b610677610c6f565b005b34801561068557600080fd5b5061068e610d50565b60405161069b91906128ec565b60405180910390f35b3480156106b057600080fd5b506106cb60048036038101906106c69190612715565b610d64565b6040516106d89190612585565b60405180910390f35b3480156106ed57600080fd5b506106f6610f01565b60405161070391906128ec565b60405180910390f35b34801561071857600080fd5b50610733600480360381019061072e9190612931565b610f92565b005b34801561074157600080fd5b5061074a611121565b60405161075791906128ec565b60405180910390f35b34801561076c57600080fd5b5061078760048036038101906107829190612715565b611135565b6040516107949190612585565b60405180910390f35b3480156107a957600080fd5b506107c460048036038101906107bf919061298a565b611170565b005b3480156107d257600080fd5b506107ed60048036038101906107e89190612715565b611296565b6040516107fa919061278c565b60405180910390f35b34801561080f57600080fd5b50610818611544565b6040516108259190612916565b60405180910390f35b34801561083a57600080fd5b50610855600480360381019061085091906129b7565b61156d565b005b34801561086357600080fd5b5061086c611702565b6040516108799190612585565b60405180910390f35b34801561088e57600080fd5b50610897611755565b6040516108a491906128ec565b60405180910390f35b3480156108b957600080fd5b506108c2611767565b6040516108cf9190612585565b60405180910390f35b3480156108e457600080fd5b506108ed6117ad565b6040516108fa9190612585565b60405180910390f35b34801561090f57600080fd5b50610918611800565b6040516109259190612916565b60405180910390f35b34801561093a57600080fd5b5061094361182a565b005b34801561095157600080fd5b5061095a6118d7565b6040516109679190612585565b60405180910390f35b34801561097c57600080fd5b506109976004803603810190610992919061298a565b6118e1565b005b3480156109a557600080fd5b506109ae611a07565b6040516109bb9190612585565b60405180910390f35b3480156109d057600080fd5b506109d9611a39565b6040516109e69190612585565b60405180910390f35b6000610a3183836040518060400160405280601a81526020017f536166654d6174683a206469766973696f6e206279207a65726f000000000000815250611a43565b905092915050565b600080610a61600360169054906101000a900460ff1660ff16476109ef90919063ffffffff16565b90508091505090565b600160009054906101000a900473ffffffffffffffffffffffffffffffffffffffff1673ffffffffffffffffffffffffffffffffffffffff163373ffffffffffffffffffffffffffffffffffffffff1614610afa576040517f08c379a0000000000000000000000000000000000000000000000000000000008152600401610af190612a43565b60405180910390fd5b6000600360156101000a81548160ff021916908315150217905550565b600060036004811115610b2d57610b2c6121f5565b5b600360149054906101000a900460ff166004811115610b4f57610b4e6121f5565b5b14610b8f576040517f08c379a0000000000000000000000000000000000000000000000000000000008152600401610b8690612aaf565b60405180910390fd5b6000610b9b8484611135565b9050600554811491505092915050565b600360169054906101000a900460ff1681565b600047905090565b600081610bd38585611135565b1490509392505050565b6000600360149054906101000a900460ff16905090565b6000600360159054906101000a900460ff16905090565b600660009054906101000a900461ffff1681565b600080610c2a6117ad565b610c32611702565b610c3c91906121c1565b90508091505090565b6000600260009054906101000a900473ffffffffffffffffffffffffffffffffffffffff16905090565b60003411610cb2576040517f08c379a0000000000000000000000000000000000000000000000000000000008152600401610ca990612b1b565b60405180910390fd5b60003447610cc091906121c1565b905060006040518060e001604052803373ffffffffffffffffffffffffffffffffffffffff168152602001600260ff16815260200160055481526020013481526020014781526020018381526020015a81525090507fd9ccab18f2b95ab95e3fa1dd8094672f096ad892e847a8c5a91fcfba5b1ddee481604051610d4491906124ef565b60405180910390a15050565b600660049054906101000a900461ffff1681565b6000600260009054906101000a900473ffffffffffffffffffffffffffffffffffffffff1673ffffffffffffffffffffffffffffffffffffffff163373ffffffffffffffffffffffffffffffffffffffff1614610df6576040517f08c379a0000000000000000000000000000000000000000000000000000000008152600401610ded90612b87565b60405180910390fd5b600360159054906101000a900460ff16610e45576040517f08c379a0000000000000000000000000000000000000000000000000000000008152600401610e3c90612168565b60405180910390fd5b60016004811115610e5957610e586121f5565b5b600360149054906101000a900460ff166004811115610e7b57610e7a6121f5565b5b14610ebb576040517f08c379a0000000000000000000000000000000000000000000000000000000008152600401610eb290612bf3565b60405180910390fd5b610ec58383611135565b6005819055506002600360146101000a81548160ff02191690836004811115610ef157610ef06121f5565b5b0217905550600554905092915050565b600080610f89600360169054906101000a900460ff1660ff16610f7b6064610f6d610f4a600660029054906101000a900461ffff1661ffff166064611aa690919063ffffffff16565b600660009054906101000a900461ffff1661ffff16611af090919063ffffffff16565b6109ef90919063ffffffff16565b611af090919063ffffffff16565b90508091505090565b60008054906101000a900473ffffffffffffffffffffffffffffffffffffffff1673ffffffffffffffffffffffffffffffffffffffff163373ffffffffffffffffffffffffffffffffffffffff1614611020576040517f08c379a000000000000000000000000000000000000000000000000000000000815260040161101790612c5f565b60405180910390fd5b600360159054906101000a900460ff1661106f576040517f08c379a000000000000000000000000000000000000000000000000000000000815260040161106690612168565b60405180910390fd5b600480811115611082576110816121f5565b5b600360149054906101000a900460ff1660048111156110a4576110a36121f5565b5b146110e4576040517f08c379a00000000000000000000000000000000000000000000000000000000081526004016110db90612cf1565b60405180910390fd5b8060048190555060006005819055506000600360146101000a81548160ff02191690836004811115611119576111186121f5565b5b021790555050565b600660029054906101000a900461ffff1681565b600080838360405160200161114b929190612d78565b6040516020818303038152906040528051906020012090508060001c91505092915050565b600160009054906101000a900473ffffffffffffffffffffffffffffffffffffffff1673ffffffffffffffffffffffffffffffffffffffff163373ffffffffffffffffffffffffffffffffffffffff1614611200576040517f08c379a00000000000000000000000000000000000000000000000000000000081526004016111f790612a43565b60405180910390fd5b60006004811115611214576112136121f5565b5b600360149054906101000a900460ff166004811115611236576112356121f5565b5b14611276576040517f08c379a000000000000000000000000000000000000000000000000000000000815260040161126d90612dec565b60405180910390fd5b80600660006101000a81548161ffff021916908361ffff16021790555050565b60008060009054906101000a900473ffffffffffffffffffffffffffffffffffffffff1673ffffffffffffffffffffffffffffffffffffffff163373ffffffffffffffffffffffffffffffffffffffff1614611327576040517f08c379a000000000000000000000000000000000000000000000000000000000815260040161131e90612c5f565b60405180910390fd5b600360159054906101000a900460ff16611376576040517f08c379a000000000000000000000000000000000000000000000000000000000815260040161136d90612168565b60405180910390fd5b6002600481111561138a576113896121f5565b5b600360149054906101000a900460ff1660048111156113ac576113ab6121f5565b5b146113ec576040517f08c379a00000000000000000000000000000000000000000000000000000000081526004016113e390612e58565b60405180910390fd5b60038060146101000a81548160ff02191690836004811115611411576114106121f5565b5b021790555060006114228484610b17565b905060006040518060a00160405280600260009054906101000a900473ffffffffffffffffffffffffffffffffffffffff1673ffffffffffffffffffffffffffffffffffffffff1681526020018315158152602001600554815260200160045481526020014281525090507f0af486f5a46f35bda92314e1385dd240666fc078e948bd192e25443265146e97816040516114bc9190612eef565b60405180910390a16114cc611b6a565b6000600260006101000a81548173ffffffffffffffffffffffffffffffffffffffff021916908373ffffffffffffffffffffffffffffffffffffffff1602179055506004600360146101000a81548160ff02191690836004811115611534576115336121f5565b5b0217905550819250505092915050565b60008060009054906101000a900473ffffffffffffffffffffffffffffffffffffffff16905090565b600160009054906101000a900473ffffffffffffffffffffffffffffffffffffffff1673ffffffffffffffffffffffffffffffffffffffff163373ffffffffffffffffffffffffffffffffffffffff16146115fd576040517f08c379a00000000000000000000000000000000000000000000000000000000081526004016115f490612a43565b60405180910390fd5b60006004811115611611576116106121f5565b5b600360149054906101000a900460ff166004811115611633576116326121f5565b5b14611673576040517f08c379a000000000000000000000000000000000000000000000000000000000815260040161166a90612dec565b60405180910390fd5b600181836116819190612f0a565b61ffff16146116c5576040517f08c379a00000000000000000000000000000000000000000000000000000000081526004016116bc90612fb2565b60405180910390fd5b81600660046101000a81548161ffff021916908361ffff160217905550806006806101000a81548161ffff021916908361ffff1602179055505050565b60008061170d611767565b9050600061174b606461173d600660029054906101000a900461ffff1661ffff1685611af090919063ffffffff16565b6109ef90919063ffffffff16565b9050809250505090565b60068054906101000a900461ffff1681565b6000806117a46064611796600660009054906101000a900461ffff1661ffff1647611af090919063ffffffff16565b6109ef90919063ffffffff16565b90508091505090565b6000806117b8611702565b905060006117f660646117e8600660049054906101000a900461ffff1661ffff1685611af090919063ffffffff16565b6109ef90919063ffffffff16565b9050809250505090565b6000600160009054906101000a900473ffffffffffffffffffffffffffffffffffffffff16905090565b600160009054906101000a900473ffffffffffffffffffffffffffffffffffffffff1673ffffffffffffffffffffffffffffffffffffffff163373ffffffffffffffffffffffffffffffffffffffff16146118ba576040517f08c379a00000000000000000000000000000000000000000000000000000000081526004016118b190612a43565b60405180910390fd5b6001600360156101000a81548160ff021916908315150217905550565b6000600454905090565b600160009054906101000a900473ffffffffffffffffffffffffffffffffffffffff1673ffffffffffffffffffffffffffffffffffffffff163373ffffffffffffffffffffffffffffffffffffffff1614611971576040517f08c379a000000000000000000000000000000000000000000000000000000000815260040161196890612a43565b60405180910390fd5b60006004811115611985576119846121f5565b5b600360149054906101000a900460ff1660048111156119a7576119a66121f5565b5b146119e7576040517f08c379a00000000000000000000000000000000000000000000000000000000081526004016119de90612dec565b60405180910390fd5b80600660026101000a81548161ffff021916908361ffff16021790555050565b600080611a12611767565b90506000611a1e611702565b905060008183611a2e91906121c1565b905080935050505090565b6000600554905090565b60008083118290611a8a576040517f08c379a0000000000000000000000000000000000000000000000000000000008152600401611a8191906123d3565b60405180910390fd5b5060008385611a999190613001565b9050809150509392505050565b6000611ae883836040518060400160405280601e81526020017f536166654d6174683a207375627472616374696f6e206f766572666c6f7700008152506120a7565b905092915050565b6000808303611b025760009050611b64565b60008284611b109190613032565b9050828482611b1f9190613001565b14611b5f576040517f08c379a0000000000000000000000000000000000000000000000000000000008152600401611b56906130e6565b60405180910390fd5b809150505b92915050565b6000611b74610a39565b90506000611b80611767565b90506000611b8c611702565b90506000611b986117ad565b90506000611ba4610c1f565b90506000611bb0611a07565b90506000600260009054906101000a900473ffffffffffffffffffffffffffffffffffffffff1673ffffffffffffffffffffffffffffffffffffffff1682600067ffffffffffffffff811115611c0957611c086125ea565b5b6040519080825280601f01601f191660200182016040528015611c3b5781602001600182028036833780820191505090505b50604051611c49919061314d565b60006040518083038185875af1925050503d8060008114611c86576040519150601f19603f3d011682016040523d82523d6000602084013e611c8b565b606091505b5050905080611ccf576040517f08c379a0000000000000000000000000000000000000000000000000000000008152600401611cc6906131b0565b60405180910390fd5b6000600160009054906101000a900473ffffffffffffffffffffffffffffffffffffffff1673ffffffffffffffffffffffffffffffffffffffff1685600067ffffffffffffffff811115611d2657611d256125ea565b5b6040519080825280601f01601f191660200182016040528015611d585781602001600182028036833780820191505090505b50604051611d66919061314d565b60006040518083038185875af1925050503d8060008114611da3576040519150601f19603f3d011682016040523d82523d6000602084013e611da8565b606091505b5050905080611dec576040517f08c379a0000000000000000000000000000000000000000000000000000000008152600401611de3906131b0565b60405180910390fd5b60008060009054906101000a900473ffffffffffffffffffffffffffffffffffffffff1673ffffffffffffffffffffffffffffffffffffffff1685600067ffffffffffffffff811115611e4257611e416125ea565b5b6040519080825280601f01601f191660200182016040528015611e745781602001600182028036833780820191505090505b50604051611e82919061314d565b60006040518083038185875af1925050503d8060008114611ebf576040519150601f19603f3d011682016040523d82523d6000602084013e611ec4565b606091505b5050905080611f08576040517f08c379a0000000000000000000000000000000000000000000000000000000008152600401611eff906131b0565b60405180910390fd5b6000604051806101e00160405280600260009054906101000a900473ffffffffffffffffffffffffffffffffffffffff1673ffffffffffffffffffffffffffffffffffffffff168152602001600160009054906101000a900473ffffffffffffffffffffffffffffffffffffffff1673ffffffffffffffffffffffffffffffffffffffff16815260200160008054906101000a900473ffffffffffffffffffffffffffffffffffffffff1673ffffffffffffffffffffffffffffffffffffffff168152602001600660009054906101000a900461ffff1661ffff168152602001600660029054906101000a900461ffff1661ffff168152602001600660049054906101000a900461ffff1661ffff16815260200160068054906101000a900461ffff1661ffff1681526020014781526020018b81526020018a81526020018981526020018881526020018781526020018681526020014281525090507f1c73e8440cdc2c2c071f5e653040d672398aade8f0294ee0579ec874e3fcc1d8816040516120939190613314565b60405180910390a150505050505050505050565b60008383111582906120ef576040517f08c379a00000000000000000000000000000000000000000000000000000000081526004016120e691906123d3565b60405180910390fd5b50600083856120fe91906121c1565b9050809150509392505050565b600082825260208201905092915050565b7f426c696e6420626f78206861732073746f707065640000000000000000000000600082015250565b600061215260158361210b565b915061215d8261211c565b602082019050919050565b6000602082019050818103600083015261218181612145565b9050919050565b6000819050919050565b7f4e487b7100000000000000000000000000000000000000000000000000000000600052601160045260246000fd5b60006121cc82612188565b91506121d783612188565b92508282039050818111156121ef576121ee612192565b5b92915050565b7f4e487b7100000000000000000000000000000000000000000000000000000000600052602160045260246000fd5b7f63616e6e6f742062652062657400000000000000000000000000000000000000600082015250565b600061225a600d8361210b565b915061226582612224565b602082019050919050565b600060208201905081810360008301526122898161224d565b9050919050565b600081905092915050565b7f5468652062657474696e6720616d6f756e742073686f756c642062652061742060008201527f6c65617374200000000000000000000000000000000000000000000000000000602082015250565b60006122f7602683612290565b91506123028261229b565b602682019050919050565b6000819050919050565b61232861232382612188565b61230d565b82525050565b6000612339826122ea565b91506123458284612317565b60208201915081905092915050565b600081519050919050565b60005b8381101561237d578082015181840152602081019050612362565b60008484015250505050565b6000601f19601f8301169050919050565b60006123a582612354565b6123af818561210b565b93506123bf81856020860161235f565b6123c881612389565b840191505092915050565b600060208201905081810360008301526123ed818461239a565b905092915050565b600073ffffffffffffffffffffffffffffffffffffffff82169050919050565b6000612420826123f5565b9050919050565b61243081612415565b82525050565b600060ff82169050919050565b61244c81612436565b82525050565b61245b81612188565b82525050565b60e0820160008201516124776000850182612427565b50602082015161248a6020850182612443565b50604082015161249d6040850182612452565b5060608201516124b06060850182612452565b5060808201516124c36080850182612452565b5060a08201516124d660a0850182612452565b5060c08201516124e960c0850182612452565b50505050565b600060e0820190506125046000830184612461565b92915050565b7f4e6f206f746865722063616c6c7320737570706f727465640000000000000000600082015250565b600061254060188361210b565b915061254b8261250a565b602082019050919050565b6000602082019050818103600083015261256f81612533565b9050919050565b61257f81612188565b82525050565b600060208201905061259a6000830184612576565b92915050565b6000604051905090565b600080fd5b600080fd5b6125bd81612436565b81146125c857600080fd5b50565b6000813590506125da816125b4565b92915050565b600080fd5b600080fd5b7f4e487b7100000000000000000000000000000000000000000000000000000000600052604160045260246000fd5b61262282612389565b810181811067ffffffffffffffff82111715612641576126406125ea565b5b80604052505050565b60006126546125a0565b90506126608282612619565b919050565b600067ffffffffffffffff8211156126805761267f6125ea565b5b61268982612389565b9050602081019050919050565b82818337600083830152505050565b60006126b86126b384612665565b61264a565b9050828152602081018484840111156126d4576126d36125e5565b5b6126df848285612696565b509392505050565b600082601f8301126126fc576126fb6125e0565b5b813561270c8482602086016126a5565b91505092915050565b6000806040838503121561272c5761272b6125aa565b5b600061273a858286016125cb565b925050602083013567ffffffffffffffff81111561275b5761275a6125af565b5b612767858286016126e7565b9150509250929050565b60008115159050919050565b61278681612771565b82525050565b60006020820190506127a1600083018461277d565b92915050565b6127b081612436565b82525050565b60006020820190506127cb60008301846127a7565b92915050565b6127da81612188565b81146127e557600080fd5b50565b6000813590506127f7816127d1565b92915050565b600080600060608486031215612816576128156125aa565b5b6000612824868287016125cb565b935050602084013567ffffffffffffffff811115612845576128446125af565b5b612851868287016126e7565b9250506040612862868287016127e8565b9150509250925092565b6005811061287d5761287c6121f5565b5b50565b600081905061288e8261286c565b919050565b600061289e82612880565b9050919050565b6128ae81612893565b82525050565b60006020820190506128c960008301846128a5565b92915050565b600061ffff82169050919050565b6128e6816128cf565b82525050565b600060208201905061290160008301846128dd565b92915050565b61291081612415565b82525050565b600060208201905061292b6000830184612907565b92915050565b600060208284031215612947576129466125aa565b5b6000612955848285016127e8565b91505092915050565b612967816128cf565b811461297257600080fd5b50565b6000813590506129848161295e565b92915050565b6000602082840312156129a05761299f6125aa565b5b60006129ae84828501612975565b91505092915050565b600080604083850312156129ce576129cd6125aa565b5b60006129dc85828601612975565b92505060206129ed85828601612975565b9150509250929050565b7f4f6e6c79206465616c65722063616e2063616c6c20746869732e000000000000600082015250565b6000612a2d601a8361210b565b9150612a38826129f7565b602082019050919050565b60006020820190508181036000830152612a5c81612a20565b9050919050565b7f7878780000000000000000000000000000000000000000000000000000000000600082015250565b6000612a9960038361210b565b9150612aa482612a63565b602082019050919050565b60006020820190508181036000830152612ac881612a8c565b9050919050565b7f46656564696e672063616e6e6f74206265207a65726f00000000000000000000600082015250565b6000612b0560168361210b565b9150612b1082612acf565b602082019050919050565b60006020820190508181036000830152612b3481612af8565b9050919050565b7f4e6f7420612062657474696e6720706c61796572000000000000000000000000600082015250565b6000612b7160148361210b565b9150612b7c82612b3b565b602082019050919050565b60006020820190508181036000830152612ba081612b64565b9050919050565b7f426574206e6f7420706169640000000000000000000000000000000000000000600082015250565b6000612bdd600c8361210b565b9150612be882612ba7565b602082019050919050565b60006020820190508181036000830152612c0c81612bd0565b9050919050565b7f4f6e6c7920726f6f742063616e2063616c6c20746869732e0000000000000000600082015250565b6000612c4960188361210b565b9150612c5482612c13565b602082019050919050565b60006020820190508181036000830152612c7881612c3c565b9050919050565b7f4d757374206861766520776f6e2061207072697a65206265666f72652063616c60008201527f6c696e6700000000000000000000000000000000000000000000000000000000602082015250565b6000612cdb60248361210b565b9150612ce682612c7f565b604082019050919050565b60006020820190508181036000830152612d0a81612cce565b9050919050565b60008160f81b9050919050565b6000612d2982612d11565b9050919050565b612d41612d3c82612436565b612d1e565b82525050565b6000612d5282612354565b612d5c8185612290565b9350612d6c81856020860161235f565b80840191505092915050565b6000612d848285612d30565b600182019150612d948284612d47565b91508190509392505050565b7f43616e206f6e6c79206265206368616e676564207768656e20666f6c64696e67600082015250565b6000612dd660208361210b565b9150612de182612da0565b602082019050919050565b60006020820190508181036000830152612e0581612dc9565b9050919050565b7f426574206e6f7420636f6d706c65746564000000000000000000000000000000600082015250565b6000612e4260118361210b565b9150612e4d82612e0c565b602082019050919050565b60006020820190508181036000830152612e7181612e35565b9050919050565b612e8181612771565b82525050565b60a082016000820151612e9d6000850182612427565b506020820151612eb06020850182612e78565b506040820151612ec36040850182612452565b506060820151612ed66060850182612452565b506080820151612ee96080850182612452565b50505050565b600060a082019050612f046000830184612e87565b92915050565b6000612f15826128cf565b9150612f20836128cf565b9250828201905061ffff811115612f3a57612f39612192565b5b92915050565b7f42726f6b65726167655261746520706c75732054617852617465206d7573742060008201527f626520657175616c20746f203100000000000000000000000000000000000000602082015250565b6000612f9c602d8361210b565b9150612fa782612f40565b604082019050919050565b60006020820190508181036000830152612fcb81612f8f565b9050919050565b7f4e487b7100000000000000000000000000000000000000000000000000000000600052601260045260246000fd5b600061300c82612188565b915061301783612188565b92508261302757613026612fd2565b5b828204905092915050565b600061303d82612188565b915061304883612188565b925082820261305681612188565b9150828204841483151761306d5761306c612192565b5b5092915050565b7f536166654d6174683a206d756c7469706c69636174696f6e206f766572666c6f60008201527f7700000000000000000000000000000000000000000000000000000000000000602082015250565b60006130d060218361210b565b91506130db82613074565b604082019050919050565b600060208201905081810360008301526130ff816130c3565b9050919050565b600081519050919050565b600081905092915050565b600061312782613106565b6131318185613111565b935061314181856020860161235f565b80840191505092915050565b6000613159828461311c565b915081905092915050565b7f4554485f5452414e534645525f4641494c454400000000000000000000000000600082015250565b600061319a60138361210b565b91506131a582613164565b602082019050919050565b600060208201905081810360008301526131c98161318d565b9050919050565b6131d9816128cf565b82525050565b6101e0820160008201516131f66000850182612427565b5060208201516132096020850182612427565b50604082015161321c6040850182612427565b50606082015161322f60608501826131d0565b50608082015161324260808501826131d0565b5060a082015161325560a08501826131d0565b5060c082015161326860c08501826131d0565b5060e082015161327b60e0850182612452565b50610100820151613290610100850182612452565b506101208201516132a5610120850182612452565b506101408201516132ba610140850182612452565b506101608201516132cf610160850182612452565b506101808201516132e4610180850182612452565b506101a08201516132f96101a0850182612452565b506101c082015161330e6101c0850182612452565b50505050565b60006101e08201905061332a60008301846131df565b9291505056fea2646970667358221220042558e973f93db714e8dbdf8a41805dd1ffd04dd61ab45cf6ece4917cf52f1064736f6c63430008130033",
  "immutableReferences": {},
  "source": "// SPDX-License-Identifier: MIT\npragma solidity >=0.4.22 <0.8.20;\nimport \"./IBlindBox.sol\";\nimport \"./SafeMath.sol\";\n\n/**\n * Blind box game gameplay: Players only need to guess a lucky number.\n * If they win, they will receive a certain proportion of the current prize pool's bonus.\n * If they lose, the bet money will be included in the prize pool.\n * The operator can apply for blind boxes from the platform, and can apply for multiple blind boxes.\n * The operator can receive a certain proportion of the transaction fee from the player's winning.\n *\n * Security: The blind box platform is betting a lucky number and generating a hash.\n * After the lottery, players and operators can verify that the platform has not cheated by verifying the hash. Similarly,\n * players will also generate a hash of the guessed lucky number after placing a bet,\n * so It is fair and transparent to platforms, operators, and players.\n */\ncontract BlindBoxContract is IBlindBox {\n    using SafeMath for *;\n    address private root;\n    address private dealer;\n    address private player;\n    address private deployer;\n    BlindBoxState private state;\n    bool private running;\n    uint8 public luckyCount; //account of lucky numbers\n    uint256 private blindHash; //Hash of blindbox\n    uint256 private betHash; //Hash of player bet\n    uint16 public odds = 80; //Winning Pool odds\n    uint16 public kickbackRate = 20; //kickback rate\n    uint16 public brokerageRate = 70; //Operator commission rate, which is the proportion of kickback rate\n    uint16 public taxRate = 30; //Platform tax rate, which is the proportion of handling fees\n\n    constructor(address _root, address _dealer, uint8 _luckyCount) {\n        deployer = msg.sender;\n        root = _root;\n        dealer = _dealer;\n        luckyCount = _luckyCount;\n        state = BlindBoxState.lottered;\n        running = true;\n    }\n\n    modifier onlyRoot() {\n        require(msg.sender == root, \"Only root can call this.\");\n        _;\n    }\n\n    modifier onlyDealer() {\n        require(msg.sender == dealer, \"Only dealer can call this.\");\n        _;\n    }\n    modifier onlyPlayer() {\n        require(msg.sender == player, \"Not a betting player\");\n        _;\n    }\n\n    function getState() public view override returns (BlindBoxState) {\n        return state;\n    }\n\n    function getRoot() public view override returns (address) {\n        return root;\n    }\n\n    function getDealer() public view override returns (address) {\n        return dealer;\n    }\n\n    function getPlayer() public view override returns (address) {\n        return player;\n    }\n\n    function isRunning() public view override returns (bool) {\n        return running;\n    }\n\n    function stop() public override onlyDealer {\n        running = false;\n    }\n\n    function run() public override onlyDealer {\n        running = true;\n    }\n\n    function getBlindHash() public view override returns (uint256) {\n        return blindHash;\n    }\n\n    function getBetHash() public view override returns (uint256) {\n        return betHash;\n    }\n\n    function getBetFunds() public view override returns (uint256) {\n        uint256 funds = (address(this).balance).div(luckyCount);\n        return funds;\n    }\n\n    function getBonus() public view override returns (uint256) {\n        uint256 bonus = (address(this).balance).mul(odds).div(100);\n        return bonus;\n    }\n\n    function getKickbackFunds() public view override returns (uint256) {\n        uint256 bonus = getBonus();\n        uint256 kickback = bonus.mul(kickbackRate).div(100);\n        return kickback;\n    }\n\n    function getBrokerageFunds() public view override returns (uint256) {\n        uint256 kickback = getKickbackFunds();\n        uint256 brokerage = kickback.mul(brokerageRate).div(100);\n        return brokerage;\n    }\n\n    ///@dev Divided revenue from the platform's handling fees after the lottery\n    function getTaxFunds() public view override returns (uint256) {\n        uint256 tax = getKickbackFunds() - getBrokerageFunds();\n        return tax;\n    }\n\n    ///@dev The actual income that players can enjoy after winning, excluding gas fees\n    function getIncome() public view override returns (uint256) {\n        uint256 bonus = getBonus();\n        uint256 kickback = getKickbackFunds();\n        uint256 income = bonus - kickback;\n        return income;\n    }\n\n    ///@dev The rate of return that players can enjoy after winning\n    function getBenefitRate() public view override returns (uint16) {\n        uint16 benefitRate = uint16(\n            (odds.mul(100.sub(kickbackRate)).div(100)).mul(luckyCount)\n        );\n        return benefitRate;\n    }\n\n    function setOdds(uint16 _odds) public override onlyDealer {\n        require(\n            state == BlindBoxState.folding,\n            \"Can only be changed when folding\"\n        );\n        odds = _odds;\n    }\n\n    function setKickbackRate(uint16 _kickbackRate) public override onlyDealer {\n        require(\n            state == BlindBoxState.folding,\n            \"Can only be changed when folding\"\n        );\n        kickbackRate = _kickbackRate;\n    }\n\n    function setKickbackAllocationRatio(\n        uint16 _brokerageRate,\n        uint16 _taxRate\n    ) public override onlyDealer {\n        require(\n            state == BlindBoxState.folding,\n            \"Can only be changed when folding\"\n        );\n        require(\n            _brokerageRate + _taxRate == 1,\n            \"BrokerageRate plus TaxRate must be equal to 1\"\n        );\n        brokerageRate = _brokerageRate;\n        taxRate = _taxRate;\n    }\n\n    ///@dev Touchbox, the platform will bet on the lucky number and generate a hash. After the lottery, anyone can verify it through the publicly available hash algorithm in the contract\n    function foldBlindBox(uint256 _hash) public override onlyRoot {\n        require(running, \"Blind box has stopped\");\n        require(\n            state == BlindBoxState.lottered,\n            \"Must have won a prize before calling\"\n        );\n        blindHash = _hash;\n        betHash = 0;\n        state = BlindBoxState.folding;\n    }\n\n    ///@dev Betting, players must make payment to the contract through wallet before calling this method\n    function placeBet(\n        uint8 _luckyNumber,\n        string memory _nonce\n    ) public onlyPlayer returns (uint256) {\n        require(running, \"Blind box has stopped\");\n        require(state == BlindBoxState.betting, \"Bet not paid\");\n\n        betHash = genHash(_luckyNumber, _nonce);\n        state = BlindBoxState.beted;\n        return betHash;\n    }\n\n    ///@dev Open the box or draw a prize. This method only allows platform calls\n    function lottery(\n        uint8 _luckyNumber,\n        string memory _nonce\n    ) public override onlyRoot returns (bool) {\n        require(running, \"Blind box has stopped\");\n        require(state == BlindBoxState.beted, \"Bet not completed\");\n        state = BlindBoxState.lottering;\n        bool win = isWin(_luckyNumber, _nonce);\n        LotteryMessage memory lm = LotteryMessage(\n            player,\n            win,\n            betHash,\n            blindHash,\n            block.timestamp\n        );\n        emit LotteryEvent(lm);\n        splitBonus();\n        player = address(0x0);\n        state = BlindBoxState.lottered;\n        return win;\n    }\n\n    function splitBonus() private {\n        uint256 betFunds = getBetFunds();\n        uint256 bonus = getBonus();\n        uint256 kickback = getKickbackFunds();\n        uint256 brokerage = getBrokerageFunds();\n        uint256 tax = getTaxFunds();\n        uint256 income = getIncome();\n\n        (bool success, ) = payable(player).call{value: income}(new bytes(0));\n        require(success, \"ETH_TRANSFER_FAILED\");\n        (bool success1, ) = payable(dealer).call{value: brokerage}(\n            new bytes(0)\n        );\n        require(success1, \"ETH_TRANSFER_FAILED\");\n        (bool success2, ) = payable(root).call{value: tax}(new bytes(0));\n        require(success2, \"ETH_TRANSFER_FAILED\");\n\n        SplitMessage memory sm = SplitMessage(\n            player,\n            dealer,\n            root,\n            odds,\n            kickbackRate,\n            brokerageRate,\n            taxRate,\n            address(this).balance,\n            betFunds,\n            bonus,\n            kickback,\n            brokerage,\n            tax,\n            income,\n            block.timestamp\n        );\n        emit SplitEvent(sm);\n    }\n\n    function feed() external payable {\n        require(msg.value > 0, \"Feeding cannot be zero\");\n        uint256 prevBalance = (address(this).balance - msg.value);\n        BetMessage memory bm = BetMessage(\n            msg.sender,\n            2, //2 represents feeding\n            betHash,\n            msg.value,\n            address(this).balance,\n            prevBalance,\n            gasleft()\n        );\n        emit BetEvent(bm);\n    }\n\n    fallback() external payable {\n        require(false, \"No other calls supported\");\n    }\n\n    receive() external payable {\n        require(running, \"Blind box has stopped\");\n        uint256 prevBetFunds = (address(this).balance - msg.value).div(\n            luckyCount\n        );\n\n        require(state == BlindBoxState.folding, \"cannot be bet\");\n        require(\n            msg.value >= prevBetFunds,\n            string(\n                abi.encodePacked(\n                    \"The betting amount should be at least \",\n                    msg.value\n                )\n            )\n        );\n        state = BlindBoxState.betting;\n        player = msg.sender;\n        BetMessage memory bm = BetMessage(\n            msg.sender,\n            1, //1 represents a transaction\n            betHash,\n            msg.value,\n            address(this).balance,\n            prevBetFunds,\n            gasleft()\n        );\n\n        emit BetEvent(bm);\n    }\n\n    function getBalance() public view override returns (uint256) {\n        return address(this).balance;\n    }\n\n    ///@dev Win or not\n    function isWin(\n        uint8 _luckyNumber,\n        string memory _nonce\n    ) public view override returns (bool) {\n        require(state == BlindBoxState.lottering, \"xxx\");\n        uint256 bh = genHash(_luckyNumber, _nonce);\n        return bh == betHash;\n    }\n\n    ///@dev Generate Hash\n    function genHash(\n        uint8 _luckyNumber,\n        string memory _nonce\n    ) public pure override returns (uint256) {\n        bytes32 packed = keccak256(abi.encodePacked(_luckyNumber, _nonce));\n        return uint256(packed);\n    }\n\n    ///@dev Compare Hash\n    function compareHash(\n        uint8 _luckyNumber,\n        string memory _nonce,\n        uint256 _toHash\n    ) public pure override returns (bool) {\n        return genHash(_luckyNumber, _nonce) == _toHash;\n    }\n}\n",
  "sourcePath": "/Users/cj/games/game-blindbox/contracts/BlindBoxContract.sol",
  "compiler": {
    "name": "solc",
    "version": "0.8.19+commit.7dd6d404.Emscripten.clang"
  },
  "schemaVersion": "3.4.14",
  "updatedAt": "2023-08-13T12:28:08.463Z",
  "networkType": "ethereum",
  "devdoc": {
    "kind": "dev",
    "methods": {
      "compareHash(uint8,string,uint256)": {
        "details": "Compare Hash"
      },
      "foldBlindBox(uint256)": {
        "details": "Touchbox, the platform will bet on the lucky number and generate a hash. After the lottery, anyone can verify it through the publicly available hash algorithm in the contract"
      },
      "genHash(uint8,string)": {
        "details": "Generate Hash"
      },
      "getBenefitRate()": {
        "details": "The rate of return that players can enjoy after winning"
      },
      "getIncome()": {
        "details": "The actual income that players can enjoy after winning, excluding gas fees"
      },
      "getTaxFunds()": {
        "details": "Divided revenue from the platform's handling fees after the lottery"
      },
      "isWin(uint8,string)": {
        "details": "Win or not"
      },
      "lottery(uint8,string)": {
        "details": "Open the box or draw a prize. This method only allows platform calls"
      },
      "placeBet(uint8,string)": {
        "details": "Betting, players must make payment to the contract through wallet before calling this method"
      }
    },
    "version": 1
  },
  "userdoc": {
    "kind": "user",
    "methods": {},
    "notice": "Blind box game gameplay: Players only need to guess a lucky number. If they win, they will receive a certain proportion of the current prize pool's bonus. If they lose, the bet money will be included in the prize pool. The operator can apply for blind boxes from the platform, and can apply for multiple blind boxes. The operator can receive a certain proportion of the transaction fee from the player's winning. Security: The blind box platform is betting a lucky number and generating a hash. After the lottery, players and operators can verify that the platform has not cheated by verifying the hash. Similarly, players will also generate a hash of the guessed lucky number after placing a bet, so It is fair and transparent to platforms, operators, and players.",
    "version": 1
  }
}