{
  "contractName": "G2W_TEST",
  "abi": [
    {
      "inputs": [],
      "name": "value",
      "outputs": [
        {
          "internalType": "uint8",
          "name": "",
          "type": "uint8"
        }
      ],
      "stateMutability": "view",
      "type": "function",
      "constant": true
    },
    {
      "inputs": [
        {
          "internalType": "uint8",
          "name": "_value",
          "type": "uint8"
        }
      ],
      "name": "setValue",
      "outputs": [],
      "stateMutability": "nonpayable",
      "type": "function"
    }
  ],
  "bytecode": "0x608060405234801561001057600080fd5b50610257806100206000396000f3fe608060405234801561001057600080fd5b50600436106100365760003560e01c80633fa4f2451461003b5780634c111ff814610059575b600080fd5b610043610075565b6040516100509190610105565b60405180910390f35b610073600480360381019061006e9190610151565b610086565b005b60008054906101000a900460ff1681565b600a8160ff16116100cc576040517f08c379a00000000000000000000000000000000000000000000000000000000081526004016100c390610201565b60405180910390fd5b806000806101000a81548160ff021916908360ff16021790555050565b600060ff82169050919050565b6100ff816100e9565b82525050565b600060208201905061011a60008301846100f6565b92915050565b600080fd5b61012e816100e9565b811461013957600080fd5b50565b60008135905061014b81610125565b92915050565b60006020828403121561016757610166610120565b5b60006101758482850161013c565b91505092915050565b600082825260208201905092915050565b7f74686520706172616d65746572205f76616c7565206973206d7573742067726560008201527f61746572207468616e2031302e00000000000000000000000000000000000000602082015250565b60006101eb602d8361017e565b91506101f68261018f565b604082019050919050565b6000602082019050818103600083015261021a816101de565b905091905056fea26469706673582212206ece1fe76ac63d73b6c82530ff021b5581a5907757676615c49f1802f5f574d964736f6c63430008130033",
  "immutableReferences": {},
  "source": "// SPDX-License-Identifier: MIT\npragma solidity >=0.4.22 <0.8.20;\n\ncontract G2W_TEST {\n\n    uint8 public value;\n\n    function setValue(uint8 _value) external{\n        require(_value > 10,\"the parameter _value is must greater than 10.\");\n        value = _value;\n    }\n\n}",
  "sourcePath": "/Users/cj/worktemp/truffle-test2/contracts/G2W_TEST.sol",
  "compiler": {
    "name": "solc",
    "version": "0.8.19+commit.7dd6d404.Emscripten.clang"
  },
  "schemaVersion": "3.4.14",
  "updatedAt": "2023-08-06T04:18:58.941Z",
  "networkType": "ethereum",
  "devdoc": {
    "kind": "dev",
    "methods": {},
    "version": 1
  },
  "userdoc": {
    "kind": "user",
    "methods": {},
    "version": 1
  }
}