{
  "contractName": "GamblingContractFactory2",
  "abi": [
    {
      "inputs": [
        {
          "internalType": "address",
          "name": "_delegator",
          "type": "address"
        },
        {
          "internalType": "address",
          "name": "_root",
          "type": "address"
        }
      ],
      "stateMutability": "nonpayable",
      "type": "constructor"
    },
    {
      "inputs": [],
      "name": "root",
      "outputs": [
        {
          "internalType": "address",
          "name": "",
          "type": "address"
        }
      ],
      "stateMutability": "view",
      "type": "function"
    },
    {
      "inputs": [],
      "name": "getState",
      "outputs": [
        {
          "internalType": "enum BlindBoxState",
          "name": "",
          "type": "uint8"
        }
      ],
      "stateMutability": "nonpayable",
      "type": "function"
    },
    {
      "inputs": [
        {
          "internalType": "string",
          "name": "_hash",
          "type": "string"
        }
      ],
      "name": "setBlindHash",
      "outputs": [],
      "stateMutability": "nonpayable",
      "type": "function"
    },
    {
      "inputs": [],
      "name": "getBlindHash",
      "outputs": [
        {
          "internalType": "string",
          "name": "",
          "type": "string"
        }
      ],
      "stateMutability": "nonpayable",
      "type": "function"
    },
    {
      "inputs": [],
      "name": "getBetHash",
      "outputs": [
        {
          "internalType": "string",
          "name": "",
          "type": "string"
        }
      ],
      "stateMutability": "nonpayable",
      "type": "function"
    },
    {
      "inputs": [
        {
          "internalType": "uint8",
          "name": "_luckyNumber",
          "type": "uint8"
        },
        {
          "internalType": "string",
          "name": "_nonce",
          "type": "string"
        }
      ],
      "name": "placeBet",
      "outputs": [
        {
          "internalType": "string",
          "name": "",
          "type": "string"
        }
      ],
      "stateMutability": "nonpayable",
      "type": "function"
    },
    {
      "inputs": [
        {
          "internalType": "uint8",
          "name": "_luckyNumber",
          "type": "uint8"
        },
        {
          "internalType": "string",
          "name": "_nonce",
          "type": "string"
        }
      ],
      "name": "lottery",
      "outputs": [
        {
          "internalType": "bool",
          "name": "",
          "type": "bool"
        }
      ],
      "stateMutability": "nonpayable",
      "type": "function"
    },
    {
      "inputs": [
        {
          "internalType": "uint8",
          "name": "_luckyNumber",
          "type": "uint8"
        },
        {
          "internalType": "string",
          "name": "_nonce",
          "type": "string"
        }
      ],
      "name": "isWin",
      "outputs": [
        {
          "internalType": "bool",
          "name": "",
          "type": "bool"
        }
      ],
      "stateMutability": "nonpayable",
      "type": "function"
    },
    {
      "inputs": [
        {
          "internalType": "uint8",
          "name": "_luckyNumber",
          "type": "uint8"
        },
        {
          "internalType": "string",
          "name": "_nonce",
          "type": "string"
        }
      ],
      "name": "getHash",
      "outputs": [
        {
          "internalType": "string",
          "name": "",
          "type": "string"
        }
      ],
      "stateMutability": "nonpayable",
      "type": "function"
    },
    {
      "inputs": [
        {
          "internalType": "uint8",
          "name": "_luckyNumber",
          "type": "uint8"
        },
        {
          "internalType": "string",
          "name": "_nonce",
          "type": "string"
        },
        {
          "internalType": "string",
          "name": "_toHash",
          "type": "string"
        }
      ],
      "name": "compareHash",
      "outputs": [
        {
          "internalType": "bool",
          "name": "",
          "type": "bool"
        }
      ],
      "stateMutability": "nonpayable",
      "type": "function"
    }
  ],
  "bytecode": "0x60806040523480156200001157600080fd5b50604051620018523803806200185283398181016040528101906200003791906200012a565b816000806101000a81548173ffffffffffffffffffffffffffffffffffffffff021916908373ffffffffffffffffffffffffffffffffffffffff16021790555080600160006101000a81548173ffffffffffffffffffffffffffffffffffffffff021916908373ffffffffffffffffffffffffffffffffffffffff160217905550505062000171565b600080fd5b600073ffffffffffffffffffffffffffffffffffffffff82169050919050565b6000620000f282620000c5565b9050919050565b6200010481620000e5565b81146200011057600080fd5b50565b6000815190506200012481620000f9565b92915050565b60008060408385031215620001445762000143620000c0565b5b6000620001548582860162000113565b9250506020620001678582860162000113565b9150509250929050565b6116d180620001816000396000f3fe608060405234801561001057600080fd5b506004361061009e5760003560e01c80637b352f7c116100665780637b352f7c146101815780638fbbdae6146101b1578063c7922998146101cd578063ebf0c717146101eb578063ff4ffc98146102095761009e565b806310b8d4d7146100a35780631865c57d146100d35780632e1d5082146100f15780633dd95366146101215780635c66467214610151575b600080fd5b6100bd60048036038101906100b891906110f4565b610227565b6040516100ca919061116b565b60405180910390f35b6100db6103a4565b6040516100e891906111fd565b60405180910390f35b61010b60048036038101906101069190611218565b610511565b604051610118919061116b565b60405180910390f35b61013b600480360381019061013691906110f4565b610691565b6040516101489190611322565b60405180910390f35b61016b600480360381019061016691906110f4565b61080d565b604051610178919061116b565b60405180910390f35b61019b600480360381019061019691906110f4565b61098a565b6040516101a89190611322565b60405180910390f35b6101cb60048036038101906101c69190611344565b610b06565b005b6101d5610c63565b6040516101e29190611322565b60405180910390f35b6101f3610dcf565b60405161020091906113ce565b60405180910390f35b610211610df5565b60405161021e9190611322565b60405180910390f35b60008060008060009054906101000a900473ffffffffffffffffffffffffffffffffffffffff1673ffffffffffffffffffffffffffffffffffffffff1685856040516024016102779291906113f8565b6040516020818303038152906040527f46609d7f000000000000000000000000000000000000000000000000000000007bffffffffffffffffffffffffffffffffffffffffffffffffffffffff19166020820180517bffffffffffffffffffffffffffffffffffffffffffffffffffffffff8381831617835250505050604051610301919061146f565b600060405180830381855af49150503d806000811461033c576040519150601f19603f3d011682016040523d82523d6000602084013e610341565b606091505b509150915081610386576040517f08c379a000000000000000000000000000000000000000000000000000000000815260040161037d906114d2565b60405180910390fd5b8080602001905181019061039a919061151e565b9250505092915050565b60008060008060009054906101000a900473ffffffffffffffffffffffffffffffffffffffff1673ffffffffffffffffffffffffffffffffffffffff166040516024016040516020818303038152906040527f1865c57d000000000000000000000000000000000000000000000000000000007bffffffffffffffffffffffffffffffffffffffffffffffffffffffff19166020820180517bffffffffffffffffffffffffffffffffffffffffffffffffffffffff8381831617835250505050604051610471919061146f565b600060405180830381855af49150503d80600081146104ac576040519150601f19603f3d011682016040523d82523d6000602084013e6104b1565b606091505b5091509150816104f6576040517f08c379a00000000000000000000000000000000000000000000000000000000081526004016104ed906114d2565b60405180910390fd5b8080602001905181019061050a9190611570565b9250505090565b60008060008060009054906101000a900473ffffffffffffffffffffffffffffffffffffffff1673ffffffffffffffffffffffffffffffffffffffff168686866040516024016105639392919061159d565b6040516020818303038152906040527fe679ebd9000000000000000000000000000000000000000000000000000000007bffffffffffffffffffffffffffffffffffffffffffffffffffffffff19166020820180517bffffffffffffffffffffffffffffffffffffffffffffffffffffffff83818316178352505050506040516105ed919061146f565b600060405180830381855af49150503d8060008114610628576040519150601f19603f3d011682016040523d82523d6000602084013e61062d565b606091505b509150915081610672576040517f08c379a0000000000000000000000000000000000000000000000000000000008152600401610669906114d2565b60405180910390fd5b80806020019051810190610686919061151e565b925050509392505050565b606060008060008054906101000a900473ffffffffffffffffffffffffffffffffffffffff1673ffffffffffffffffffffffffffffffffffffffff1685856040516024016106e09291906113f8565b6040516020818303038152906040527ff90f4560000000000000000000000000000000000000000000000000000000007bffffffffffffffffffffffffffffffffffffffffffffffffffffffff19166020820180517bffffffffffffffffffffffffffffffffffffffffffffffffffffffff838183161783525050505060405161076a919061146f565b600060405180830381855af49150503d80600081146107a5576040519150601f19603f3d011682016040523d82523d6000602084013e6107aa565b606091505b5091509150816107ef576040517f08c379a00000000000000000000000000000000000000000000000000000000081526004016107e6906114d2565b60405180910390fd5b808060200190518101906108039190611652565b9250505092915050565b60008060008060009054906101000a900473ffffffffffffffffffffffffffffffffffffffff1673ffffffffffffffffffffffffffffffffffffffff16858560405160240161085d9291906113f8565b6040516020818303038152906040527ff90f4560000000000000000000000000000000000000000000000000000000007bffffffffffffffffffffffffffffffffffffffffffffffffffffffff19166020820180517bffffffffffffffffffffffffffffffffffffffffffffffffffffffff83818316178352505050506040516108e7919061146f565b600060405180830381855af49150503d8060008114610922576040519150601f19603f3d011682016040523d82523d6000602084013e610927565b606091505b50915091508161096c576040517f08c379a0000000000000000000000000000000000000000000000000000000008152600401610963906114d2565b60405180910390fd5b80806020019051810190610980919061151e565b9250505092915050565b606060008060008054906101000a900473ffffffffffffffffffffffffffffffffffffffff1673ffffffffffffffffffffffffffffffffffffffff1685856040516024016109d99291906113f8565b6040516020818303038152906040527fd13319c4000000000000000000000000000000000000000000000000000000007bffffffffffffffffffffffffffffffffffffffffffffffffffffffff19166020820180517bffffffffffffffffffffffffffffffffffffffffffffffffffffffff8381831617835250505050604051610a63919061146f565b600060405180830381855af49150503d8060008114610a9e576040519150601f19603f3d011682016040523d82523d6000602084013e610aa3565b606091505b509150915081610ae8576040517f08c379a0000000000000000000000000000000000000000000000000000000008152600401610adf906114d2565b60405180910390fd5b80806020019051810190610afc9190611652565b9250505092915050565b60008060009054906101000a900473ffffffffffffffffffffffffffffffffffffffff1673ffffffffffffffffffffffffffffffffffffffff1682604051602401610b519190611322565b6040516020818303038152906040527f5839fb89000000000000000000000000000000000000000000000000000000007bffffffffffffffffffffffffffffffffffffffffffffffffffffffff19166020820180517bffffffffffffffffffffffffffffffffffffffffffffffffffffffff8381831617835250505050604051610bdb919061146f565b600060405180830381855af49150503d8060008114610c16576040519150601f19603f3d011682016040523d82523d6000602084013e610c1b565b606091505b5050905080610c5f576040517f08c379a0000000000000000000000000000000000000000000000000000000008152600401610c56906114d2565b60405180910390fd5b5050565b606060008060008054906101000a900473ffffffffffffffffffffffffffffffffffffffff1673ffffffffffffffffffffffffffffffffffffffff166040516024016040516020818303038152906040527fc7922998000000000000000000000000000000000000000000000000000000007bffffffffffffffffffffffffffffffffffffffffffffffffffffffff19166020820180517bffffffffffffffffffffffffffffffffffffffffffffffffffffffff8381831617835250505050604051610d2f919061146f565b600060405180830381855af49150503d8060008114610d6a576040519150601f19603f3d011682016040523d82523d6000602084013e610d6f565b606091505b509150915081610db4576040517f08c379a0000000000000000000000000000000000000000000000000000000008152600401610dab906114d2565b60405180910390fd5b80806020019051810190610dc89190611652565b9250505090565b600160009054906101000a900473ffffffffffffffffffffffffffffffffffffffff1681565b606060008060008054906101000a900473ffffffffffffffffffffffffffffffffffffffff1673ffffffffffffffffffffffffffffffffffffffff166040516024016040516020818303038152906040527fff4ffc98000000000000000000000000000000000000000000000000000000007bffffffffffffffffffffffffffffffffffffffffffffffffffffffff19166020820180517bffffffffffffffffffffffffffffffffffffffffffffffffffffffff8381831617835250505050604051610ec1919061146f565b600060405180830381855af49150503d8060008114610efc576040519150601f19603f3d011682016040523d82523d6000602084013e610f01565b606091505b509150915081610f46576040517f08c379a0000000000000000000000000000000000000000000000000000000008152600401610f3d906114d2565b60405180910390fd5b80806020019051810190610f5a9190611652565b9250505090565b6000604051905090565b600080fd5b600080fd5b600060ff82169050919050565b610f8b81610f75565b8114610f9657600080fd5b50565b600081359050610fa881610f82565b92915050565b600080fd5b600080fd5b6000601f19601f8301169050919050565b7f4e487b7100000000000000000000000000000000000000000000000000000000600052604160045260246000fd5b61100182610fb8565b810181811067ffffffffffffffff821117156110205761101f610fc9565b5b80604052505050565b6000611033610f61565b905061103f8282610ff8565b919050565b600067ffffffffffffffff82111561105f5761105e610fc9565b5b61106882610fb8565b9050602081019050919050565b82818337600083830152505050565b600061109761109284611044565b611029565b9050828152602081018484840111156110b3576110b2610fb3565b5b6110be848285611075565b509392505050565b600082601f8301126110db576110da610fae565b5b81356110eb848260208601611084565b91505092915050565b6000806040838503121561110b5761110a610f6b565b5b600061111985828601610f99565b925050602083013567ffffffffffffffff81111561113a57611139610f70565b5b611146858286016110c6565b9150509250929050565b60008115159050919050565b61116581611150565b82525050565b6000602082019050611180600083018461115c565b92915050565b7f4e487b7100000000000000000000000000000000000000000000000000000000600052602160045260246000fd5b600581106111c6576111c5611186565b5b50565b60008190506111d7826111b5565b919050565b60006111e7826111c9565b9050919050565b6111f7816111dc565b82525050565b600060208201905061121260008301846111ee565b92915050565b60008060006060848603121561123157611230610f6b565b5b600061123f86828701610f99565b935050602084013567ffffffffffffffff8111156112605761125f610f70565b5b61126c868287016110c6565b925050604084013567ffffffffffffffff81111561128d5761128c610f70565b5b611299868287016110c6565b9150509250925092565b600081519050919050565b600082825260208201905092915050565b60005b838110156112dd5780820151818401526020810190506112c2565b60008484015250505050565b60006112f4826112a3565b6112fe81856112ae565b935061130e8185602086016112bf565b61131781610fb8565b840191505092915050565b6000602082019050818103600083015261133c81846112e9565b905092915050565b60006020828403121561135a57611359610f6b565b5b600082013567ffffffffffffffff81111561137857611377610f70565b5b611384848285016110c6565b91505092915050565b600073ffffffffffffffffffffffffffffffffffffffff82169050919050565b60006113b88261138d565b9050919050565b6113c8816113ad565b82525050565b60006020820190506113e360008301846113bf565b92915050565b6113f281610f75565b82525050565b600060408201905061140d60008301856113e9565b818103602083015261141f81846112e9565b90509392505050565b600081519050919050565b600081905092915050565b600061144982611428565b6114538185611433565b93506114638185602086016112bf565b80840191505092915050565b600061147b828461143e565b915081905092915050565b7f64656c656761746563616c6c206661696c656400000000000000000000000000600082015250565b60006114bc6013836112ae565b91506114c782611486565b602082019050919050565b600060208201905081810360008301526114eb816114af565b9050919050565b6114fb81611150565b811461150657600080fd5b50565b600081519050611518816114f2565b92915050565b60006020828403121561153457611533610f6b565b5b600061154284828501611509565b91505092915050565b6005811061155857600080fd5b50565b60008151905061156a8161154b565b92915050565b60006020828403121561158657611585610f6b565b5b60006115948482850161155b565b91505092915050565b60006060820190506115b260008301866113e9565b81810360208301526115c481856112e9565b905081810360408301526115d881846112e9565b9050949350505050565b60006115f56115f084611044565b611029565b90508281526020810184848401111561161157611610610fb3565b5b61161c8482856112bf565b509392505050565b600082601f83011261163957611638610fae565b5b81516116498482602086016115e2565b91505092915050565b60006020828403121561166857611667610f6b565b5b600082015167ffffffffffffffff81111561168657611685610f70565b5b61169284828501611624565b9150509291505056fea2646970667358221220994b1c46e2f7a7f0a0d4a93fd31be8b6010185d8860537ccc9dc23d8d37b6d0164736f6c63430008130033",
  "immutableReferences": {},
  "source": "// SPDX-License-Identifier: MIT\npragma solidity >=0.4.22 <0.8.20;\nimport \"./IBlindBox.sol\";\n//\ncontract GamblingContractFactory2 {\n    address private delegator;\n    address public root;\n\n    constructor(address _delegator, address _root) {\n        delegator = _delegator;\n        root = _root;\n    }\n\n    modifier onlyRoot() {\n        require(msg.sender != root, \"must root\");\n        _;\n    }\n\n    function getState() external returns (BlindBoxState) {\n        (bool success, bytes memory data) = delegator.delegatecall(\n            abi.encodeWithSignature(\"getState()\")\n        );\n        require(success, \"delegatecall failed\");\n        return abi.decode(data, (BlindBoxState));\n    }\n\n    function setBlindHash(string memory _hash) external {\n        (bool success, ) = delegator.delegatecall(\n            abi.encodeWithSignature(\"setBlindHash()\", _hash)\n        );\n        require(success, \"delegatecall failed\");\n    }\n\n    function getBlindHash() external returns (string memory) {\n        (bool success, bytes memory data) = delegator.delegatecall(\n            abi.encodeWithSignature(\"getBlindHash()\")\n        );\n        require(success, \"delegatecall failed\");\n        return abi.decode(data, (string));\n    }\n\n    function getBetHash() external returns (string memory) {\n        (bool success, bytes memory data) = delegator.delegatecall(\n            abi.encodeWithSignature(\"getBetHash()\")\n        );\n        require(success, \"delegatecall failed\");\n        return abi.decode(data, (string));\n    }\n\n    function placeBet(\n        uint8 _luckyNumber,\n        string memory _nonce\n    ) external returns (string memory) {\n        (bool success, bytes memory data) = delegator.delegatecall(\n            abi.encodeWithSignature(\"placeBet()\", _luckyNumber, _nonce)\n        );\n        require(success, \"delegatecall failed\");\n        return abi.decode(data, (string));\n    }\n\n    function lottery(\n        uint8 _luckyNumber,\n        string memory _nonce\n    ) external returns (bool) {\n        (bool success, bytes memory data) = delegator.delegatecall(\n            abi.encodeWithSignature(\"placeBet()\", _luckyNumber, _nonce)\n        );\n        require(success, \"delegatecall failed\");\n        return abi.decode(data, (bool));\n    }\n\n    function isWin(\n        uint8 _luckyNumber,\n        string memory _nonce\n    ) external returns (bool) {\n        (bool success, bytes memory data) = delegator.delegatecall(\n            abi.encodeWithSignature(\"isWin()\", _luckyNumber, _nonce)\n        );\n        require(success, \"delegatecall failed\");\n        return abi.decode(data, (bool));\n    }\n\n    function getHash(\n        uint8 _luckyNumber,\n        string memory _nonce\n    ) external returns (string memory) {\n        (bool success, bytes memory data) = delegator.delegatecall(\n            abi.encodeWithSignature(\"getHash()\", _luckyNumber, _nonce)\n        );\n        require(success, \"delegatecall failed\");\n        return abi.decode(data, (string));\n    }\n\n    function compareHash(\n        uint8 _luckyNumber,\n        string memory _nonce,\n        string memory _toHash\n    ) external returns (bool) {\n        (bool success, bytes memory data) = delegator.delegatecall(\n            abi.encodeWithSignature(\n                \"compareHash()\",\n                _luckyNumber,\n                _nonce,\n                _toHash\n            )\n        );\n        require(success, \"delegatecall failed\");\n        return abi.decode(data, (bool));\n    }\n}\n",
  "sourcePath": "/Users/cj/worktemp/truffle-test2/contracts/GamblingContractFactory2.sol",
  "compiler": {
    "name": "solc",
    "version": "0.8.19+commit.7dd6d404.Emscripten.clang"
  },
  "schemaVersion": "3.4.14",
  "updatedAt": "2023-08-09T12:47:20.402Z",
  "devdoc": {
    "kind": "dev",
    "methods": {},
    "version": 1
  },
  "userdoc": {
    "kind": "user",
    "methods": {},
    "version": 1
  }
}