{
  "contractName": "GamblingContractFactory",
  "abi": [
    {
      "inputs": [],
      "stateMutability": "nonpayable",
      "type": "constructor"
    },
    {
      "anonymous": false,
      "inputs": [
        {
          "components": [
            {
              "internalType": "address",
              "name": "contractAddress",
              "type": "address"
            },
            {
              "internalType": "address",
              "name": "root",
              "type": "address"
            },
            {
              "internalType": "address",
              "name": "dealer",
              "type": "address"
            },
            {
              "internalType": "uint8",
              "name": "luckyCount",
              "type": "uint8"
            },
            {
              "components": [
                {
                  "internalType": "bool",
                  "name": "isAllow",
                  "type": "bool"
                },
                {
                  "internalType": "uint8",
                  "name": "payMode",
                  "type": "uint8"
                },
                {
                  "internalType": "uint256",
                  "name": "time",
                  "type": "uint256"
                }
              ],
              "internalType": "struct ApplyRights",
              "name": "rights",
              "type": "tuple"
            }
          ],
          "indexed": false,
          "internalType": "struct CreateGamblingContractMessage",
          "name": "e",
          "type": "tuple"
        }
      ],
      "name": "OnCreateGamblingContract",
      "type": "event"
    },
    {
      "stateMutability": "payable",
      "type": "fallback",
      "payable": true
    },
    {
      "inputs": [
        {
          "internalType": "uint256",
          "name": "",
          "type": "uint256"
        }
      ],
      "name": "contracts",
      "outputs": [
        {
          "internalType": "address",
          "name": "",
          "type": "address"
        }
      ],
      "stateMutability": "view",
      "type": "function",
      "constant": true
    },
    {
      "inputs": [],
      "name": "root",
      "outputs": [
        {
          "internalType": "address",
          "name": "",
          "type": "address"
        }
      ],
      "stateMutability": "view",
      "type": "function",
      "constant": true
    },
    {
      "stateMutability": "payable",
      "type": "receive",
      "payable": true
    },
    {
      "inputs": [],
      "name": "getBalance",
      "outputs": [
        {
          "internalType": "uint256",
          "name": "",
          "type": "uint256"
        }
      ],
      "stateMutability": "view",
      "type": "function",
      "constant": true
    },
    {
      "inputs": [],
      "name": "getAddress",
      "outputs": [
        {
          "internalType": "address",
          "name": "",
          "type": "address"
        }
      ],
      "stateMutability": "view",
      "type": "function",
      "constant": true
    },
    {
      "inputs": [],
      "name": "getAnnualFee",
      "outputs": [
        {
          "internalType": "uint256",
          "name": "",
          "type": "uint256"
        }
      ],
      "stateMutability": "view",
      "type": "function",
      "constant": true
    },
    {
      "inputs": [],
      "name": "getMonthlyFee",
      "outputs": [
        {
          "internalType": "uint256",
          "name": "",
          "type": "uint256"
        }
      ],
      "stateMutability": "view",
      "type": "function",
      "constant": true
    },
    {
      "inputs": [
        {
          "internalType": "uint256",
          "name": "_annualFee",
          "type": "uint256"
        }
      ],
      "name": "setAnnualFee",
      "outputs": [],
      "stateMutability": "nonpayable",
      "type": "function"
    },
    {
      "inputs": [
        {
          "internalType": "uint256",
          "name": "_monthlyFee",
          "type": "uint256"
        }
      ],
      "name": "setMonthlyFee",
      "outputs": [],
      "stateMutability": "nonpayable",
      "type": "function"
    },
    {
      "inputs": [],
      "name": "enumDealer",
      "outputs": [
        {
          "internalType": "address[]",
          "name": "",
          "type": "address[]"
        }
      ],
      "stateMutability": "view",
      "type": "function",
      "constant": true
    },
    {
      "inputs": [
        {
          "internalType": "address",
          "name": "dealer",
          "type": "address"
        }
      ],
      "name": "listContractOfDealer",
      "outputs": [
        {
          "internalType": "address[]",
          "name": "",
          "type": "address[]"
        }
      ],
      "stateMutability": "view",
      "type": "function",
      "constant": true
    },
    {
      "inputs": [
        {
          "internalType": "address",
          "name": "_dealer",
          "type": "address"
        },
        {
          "internalType": "uint8",
          "name": "_luckyCount",
          "type": "uint8"
        }
      ],
      "name": "createBlindBoxContract",
      "outputs": [
        {
          "internalType": "address",
          "name": "",
          "type": "address"
        }
      ],
      "stateMutability": "nonpayable",
      "type": "function"
    },
    {
      "inputs": [],
      "name": "withdraw",
      "outputs": [],
      "stateMutability": "payable",
      "type": "function",
      "payable": true
    },
    {
      "inputs": [],
      "name": "recMothlyFee",
      "outputs": [],
      "stateMutability": "payable",
      "type": "function",
      "payable": true
    }
  ],
  "bytecode": "0x6080604052673a4965bf58a4000060055567058d15e17628000060065534801561002857600080fd5b5033600360006101000a81548173ffffffffffffffffffffffffffffffffffffffff021916908373ffffffffffffffffffffffffffffffffffffffff160217905550614f87806100796000396000f3fe608060405260043610620000d95760003560e01c806364c5afbd116200008b578063b90c13881162000061578063b90c13881462000393578063cca746df14620003d7578063ebf0c7171462000407578063ec9d06e9146200043757620001d5565b806364c5afbd146200030757806388b89a7d1462000337578063ad450f2a146200036557620001d5565b806312065fe0146200021b5780631ec22778146200024b57806338cc483114620002575780633ccfd60b1462000287578063474da79a14620002935780634853276714620002d757620001d5565b36620001d55760055434101562000127576040517f08c379a00000000000000000000000000000000000000000000000000000000081526004016200011e9062001248565b60405180910390fd5b6040518060600160405280600115158152602001600160ff16815260200142815250600460003373ffffffffffffffffffffffffffffffffffffffff1673ffffffffffffffffffffffffffffffffffffffff16815260200190815260200160002060008201518160000160006101000a81548160ff02191690831515021790555060208201518160000160016101000a81548160ff021916908360ff16021790555060408201518160010155005b600062000219576040517f08c379a00000000000000000000000000000000000000000000000000000000081526004016200021090620012ba565b60405180910390fd5b005b3480156200022857600080fd5b50620002336200047b565b604051620002429190620012f7565b60405180910390f35b6200025562000483565b005b3480156200026457600080fd5b506200026f6200057c565b6040516200027e919062001359565b60405180910390f35b6200029162000584565b005b348015620002a057600080fd5b50620002bf6004803603810190620002b99190620013ac565b62000742565b604051620002ce919062001359565b60405180910390f35b348015620002e457600080fd5b50620002ef62000782565b604051620002fe9190620012f7565b60405180910390f35b3480156200031457600080fd5b506200031f6200078c565b6040516200032e9190620014ac565b60405180910390f35b3480156200034457600080fd5b506200036360048036038101906200035d9190620013ac565b6200081c565b005b3480156200037257600080fd5b506200039160048036038101906200038b9190620013ac565b620008ff565b005b348015620003a057600080fd5b50620003bf6004803603810190620003b9919062001501565b620009e2565b604051620003ce9190620014ac565b60405180910390f35b348015620003e457600080fd5b50620003ef62000ab1565b604051620003fe9190620012f7565b60405180910390f35b3480156200041457600080fd5b506200041f62000abb565b6040516200042e919062001359565b60405180910390f35b3480156200044457600080fd5b506200046360048036038101906200045d919062001571565b62000ae1565b60405162000472919062001359565b60405180910390f35b600047905090565b600654341015620004cb576040517f08c379a0000000000000000000000000000000000000000000000000000000008152600401620004c2906200162e565b60405180910390fd5b6040518060600160405280600115158152602001600260ff16815260200142815250600460003373ffffffffffffffffffffffffffffffffffffffff1673ffffffffffffffffffffffffffffffffffffffff16815260200190815260200160002060008201518160000160006101000a81548160ff02191690831515021790555060208201518160000160016101000a81548160ff021916908360ff16021790555060408201518160010155905050565b600030905090565b3373ffffffffffffffffffffffffffffffffffffffff16600360009054906101000a900473ffffffffffffffffffffffffffffffffffffffff1673ffffffffffffffffffffffffffffffffffffffff161462000617576040517f08c379a00000000000000000000000000000000000000000000000000000000081526004016200060e90620016a0565b60405180910390fd5b6000600360009054906101000a900473ffffffffffffffffffffffffffffffffffffffff1673ffffffffffffffffffffffffffffffffffffffff1647600067ffffffffffffffff811115620006715762000670620016c2565b5b6040519080825280601f01601f191660200182016040528015620006a45781602001600182028036833780820191505090505b50604051620006b491906200176a565b60006040518083038185875af1925050503d8060008114620006f3576040519150601f19603f3d011682016040523d82523d6000602084013e620006f8565b606091505b50509050806200073f576040517f08c379a00000000000000000000000000000000000000000000000000000000081526004016200073690620017d3565b60405180910390fd5b50565b600081815481106200075357600080fd5b906000526020600020016000915054906101000a900473ffffffffffffffffffffffffffffffffffffffff1681565b6000600654905090565b606060028054806020026020016040519081016040528092919081815260200182805480156200081257602002820191906000526020600020905b8160009054906101000a900473ffffffffffffffffffffffffffffffffffffffff1673ffffffffffffffffffffffffffffffffffffffff1681526020019060010190808311620007c7575b5050505050905090565b3373ffffffffffffffffffffffffffffffffffffffff16600360009054906101000a900473ffffffffffffffffffffffffffffffffffffffff1673ffffffffffffffffffffffffffffffffffffffff1614620008af576040517f08c379a0000000000000000000000000000000000000000000000000000000008152600401620008a690620016a0565b60405180910390fd5b60008111620008f5576040517f08c379a0000000000000000000000000000000000000000000000000000000008152600401620008ec9062001845565b60405180910390fd5b8060058190555050565b3373ffffffffffffffffffffffffffffffffffffffff16600360009054906101000a900473ffffffffffffffffffffffffffffffffffffffff1673ffffffffffffffffffffffffffffffffffffffff161462000992576040517f08c379a00000000000000000000000000000000000000000000000000000000081526004016200098990620016a0565b60405180910390fd5b60008111620009d8576040517f08c379a0000000000000000000000000000000000000000000000000000000008152600401620009cf90620018b7565b60405180910390fd5b8060068190555050565b6060600160008373ffffffffffffffffffffffffffffffffffffffff1673ffffffffffffffffffffffffffffffffffffffff16815260200190815260200160002080548060200260200160405190810160405280929190818152602001828054801562000aa557602002820191906000526020600020905b8160009054906101000a900473ffffffffffffffffffffffffffffffffffffffff1673ffffffffffffffffffffffffffffffffffffffff168152602001906001019080831162000a5a575b50505050509050919050565b6000600554905090565b600360009054906101000a900473ffffffffffffffffffffffffffffffffffffffff1681565b60003373ffffffffffffffffffffffffffffffffffffffff16600360009054906101000a900473ffffffffffffffffffffffffffffffffffffffff1673ffffffffffffffffffffffffffffffffffffffff161462000b76576040517f08c379a000000000000000000000000000000000000000000000000000000000815260040162000b6d90620016a0565b60405180910390fd5b600460008473ffffffffffffffffffffffffffffffffffffffff1673ffffffffffffffffffffffffffffffffffffffff16815260200190815260200160002060000160009054906101000a900460ff1662000c08576040517f08c379a000000000000000000000000000000000000000000000000000000000815260040162000bff906200194f565b60405180910390fd5b6001600460008573ffffffffffffffffffffffffffffffffffffffff1673ffffffffffffffffffffffffffffffffffffffff16815260200190815260200160002060000160019054906101000a900460ff1660ff160362000cfc576301e13380600460008573ffffffffffffffffffffffffffffffffffffffff1673ffffffffffffffffffffffffffffffffffffffff168152602001908152602001600020600101544262000cb89190620019a0565b1062000cfb576040517f08c379a000000000000000000000000000000000000000000000000000000000815260040162000cf29062001a2b565b60405180910390fd5b5b6002600460008573ffffffffffffffffffffffffffffffffffffffff1673ffffffffffffffffffffffffffffffffffffffff16815260200190815260200160002060000160019054906101000a900460ff1660ff160362000def576228de80600460008573ffffffffffffffffffffffffffffffffffffffff1673ffffffffffffffffffffffffffffffffffffffff168152602001908152602001600020600101544262000dab9190620019a0565b1062000dee576040517f08c379a000000000000000000000000000000000000000000000000000000000815260040162000de59062001a9d565b60405180910390fd5b5b6000600360009054906101000a900473ffffffffffffffffffffffffffffffffffffffff16848460405162000e2490620011b3565b62000e329392919062001ad0565b604051809103906000f08015801562000e4f573d6000803e3d6000fd5b50905060008190506000819080600181540180825580915050600190039060005260206000200160009091909190916101000a81548173ffffffffffffffffffffffffffffffffffffffff021916908373ffffffffffffffffffffffffffffffffffffffff1602179055506000600160008773ffffffffffffffffffffffffffffffffffffffff1673ffffffffffffffffffffffffffffffffffffffff168152602001908152602001600020905080829080600181540180825580915050600190039060005260206000200160009091909190916101000a81548173ffffffffffffffffffffffffffffffffffffffff021916908373ffffffffffffffffffffffffffffffffffffffff1602179055506000805b60028054905081101562001006578773ffffffffffffffffffffffffffffffffffffffff166002828154811062000f9f5762000f9e62001b0d565b5b9060005260206000200160009054906101000a900473ffffffffffffffffffffffffffffffffffffffff1673ffffffffffffffffffffffffffffffffffffffff160362000ff0576001915062001006565b808062000ffd9062001b3c565b91505062000f63565b508062001071576002879080600181540180825580915050600190039060005260206000200160009091909190916101000a81548173ffffffffffffffffffffffffffffffffffffffff021916908373ffffffffffffffffffffffffffffffffffffffff1602179055505b60006040518060a001604052808573ffffffffffffffffffffffffffffffffffffffff1681526020013373ffffffffffffffffffffffffffffffffffffffff1681526020018973ffffffffffffffffffffffffffffffffffffffff1681526020018860ff168152602001600460008b73ffffffffffffffffffffffffffffffffffffffff1673ffffffffffffffffffffffffffffffffffffffff1681526020019081526020016000206040518060600160405290816000820160009054906101000a900460ff161515151581526020016000820160019054906101000a900460ff1660ff1660ff16815260200160018201548152505081525090507f97d66b1a38adb022a1b1537701d97ce9b434057c341f89091736fb3375aa2f78816040516200119d919062001c82565b60405180910390a1839550505050505092915050565b6132b28062001ca083390190565b600082825260208201905092915050565b7f546865206665652073686f756c64206265206174206c6561737420657175616c60008201527f20746f2074686520616e6e75616c206665650000000000000000000000000000602082015250565b600062001230603283620011c1565b91506200123d82620011d2565b604082019050919050565b60006020820190508181036000830152620012638162001221565b9050919050565b7f4e6f206f746865722063616c6c7320737570706f727465640000000000000000600082015250565b6000620012a2601883620011c1565b9150620012af826200126a565b602082019050919050565b60006020820190508181036000830152620012d58162001293565b9050919050565b6000819050919050565b620012f181620012dc565b82525050565b60006020820190506200130e6000830184620012e6565b92915050565b600073ffffffffffffffffffffffffffffffffffffffff82169050919050565b6000620013418262001314565b9050919050565b620013538162001334565b82525050565b600060208201905062001370600083018462001348565b92915050565b600080fd5b6200138681620012dc565b81146200139257600080fd5b50565b600081359050620013a6816200137b565b92915050565b600060208284031215620013c557620013c462001376565b5b6000620013d58482850162001395565b91505092915050565b600081519050919050565b600082825260208201905092915050565b6000819050602082019050919050565b620014158162001334565b82525050565b60006200142983836200140a565b60208301905092915050565b6000602082019050919050565b60006200144f82620013de565b6200145b8185620013e9565b93506200146883620013fa565b8060005b838110156200149f5781516200148388826200141b565b9750620014908362001435565b9250506001810190506200146c565b5085935050505092915050565b60006020820190508181036000830152620014c8818462001442565b905092915050565b620014db8162001334565b8114620014e757600080fd5b50565b600081359050620014fb81620014d0565b92915050565b6000602082840312156200151a576200151962001376565b5b60006200152a84828501620014ea565b91505092915050565b600060ff82169050919050565b6200154b8162001533565b81146200155757600080fd5b50565b6000813590506200156b8162001540565b92915050565b600080604083850312156200158b576200158a62001376565b5b60006200159b85828601620014ea565b9250506020620015ae858286016200155a565b9150509250929050565b7f546865206665652073686f756c64206265206174206c6561737420657175616c60008201527f20746f20746865206d6f6e74686c792066656500000000000000000000000000602082015250565b600062001616603383620011c1565b91506200162382620015b8565b604082019050919050565b60006020820190508181036000830152620016498162001607565b9050919050565b7f4f6e6c7920726f6f742063616e2063616c6c20746869732e0000000000000000600082015250565b600062001688601883620011c1565b9150620016958262001650565b602082019050919050565b60006020820190508181036000830152620016bb8162001679565b9050919050565b7f4e487b7100000000000000000000000000000000000000000000000000000000600052604160045260246000fd5b600081519050919050565b600081905092915050565b60005b83811015620017275780820151818401526020810190506200170a565b60008484015250505050565b60006200174082620016f1565b6200174c8185620016fc565b93506200175e81856020860162001707565b80840191505092915050565b600062001778828462001733565b915081905092915050565b7f4554485f5452414e534645525f4641494c454400000000000000000000000000600082015250565b6000620017bb601383620011c1565b9150620017c88262001783565b602082019050919050565b60006020820190508181036000830152620017ee81620017ac565b9050919050565b7f416e6e75616c206665652063616e6e6f74206265206e65676174697665000000600082015250565b60006200182d601d83620011c1565b91506200183a82620017f5565b602082019050919050565b6000602082019050818103600083015262001860816200181e565b9050919050565b7f4d6f6e74686c79206665652063616e6e6f74206265206e656761746976650000600082015250565b60006200189f601e83620011c1565b9150620018ac8262001867565b602082019050919050565b60006020820190508181036000830152620018d28162001890565b9050919050565b7f4e6f7420616c6c6f77656420746f206170706c7920666f7220626c696e64206260008201527f6f7865732c206d75737420706179000000000000000000000000000000000000602082015250565b600062001937602e83620011c1565b91506200194482620018d9565b604082019050919050565b600060208201905081810360008301526200196a8162001928565b9050919050565b7f4e487b7100000000000000000000000000000000000000000000000000000000600052601160045260246000fd5b6000620019ad82620012dc565b9150620019ba83620012dc565b9250828203905081811115620019d557620019d462001971565b5b92915050565b7f54686520616e6e75616c20666565206861732065787069726564000000000000600082015250565b600062001a13601a83620011c1565b915062001a2082620019db565b602082019050919050565b6000602082019050818103600083015262001a468162001a04565b9050919050565b7f4d6f6e74686c7920666565206861732065787069726564000000000000000000600082015250565b600062001a85601783620011c1565b915062001a928262001a4d565b602082019050919050565b6000602082019050818103600083015262001ab88162001a76565b9050919050565b62001aca8162001533565b82525050565b600060608201905062001ae7600083018662001348565b62001af6602083018562001348565b62001b05604083018462001abf565b949350505050565b7f4e487b7100000000000000000000000000000000000000000000000000000000600052603260045260246000fd5b600062001b4982620012dc565b91507fffffffffffffffffffffffffffffffffffffffffffffffffffffffffffffffff820362001b7e5762001b7d62001971565b5b600182019050919050565b62001b948162001533565b82525050565b60008115159050919050565b62001bb18162001b9a565b82525050565b62001bc281620012dc565b82525050565b60608201600082015162001be0600085018262001ba6565b50602082015162001bf5602085018262001b89565b50604082015162001c0a604085018262001bb7565b50505050565b60e08201600082015162001c2860008501826200140a565b50602082015162001c3d60208501826200140a565b50604082015162001c5260408501826200140a565b50606082015162001c67606085018262001b89565b50608082015162001c7c608085018262001bc8565b50505050565b600060e08201905062001c99600083018462001c10565b9291505056fe60806040526050600660006101000a81548161ffff021916908361ffff1602179055506014600660026101000a81548161ffff021916908361ffff1602179055506046600660046101000a81548161ffff021916908361ffff160217905550601e6006806101000a81548161ffff021916908361ffff1602179055503480156200008857600080fd5b50604051620032b2380380620032b28339818101604052810190620000ae91906200026a565b33600360006101000a81548173ffffffffffffffffffffffffffffffffffffffff021916908373ffffffffffffffffffffffffffffffffffffffff160217905550826000806101000a81548173ffffffffffffffffffffffffffffffffffffffff021916908373ffffffffffffffffffffffffffffffffffffffff16021790555081600160006101000a81548173ffffffffffffffffffffffffffffffffffffffff021916908373ffffffffffffffffffffffffffffffffffffffff16021790555080600360156101000a81548160ff021916908360ff1602179055506004600360146101000a81548160ff02191690836004811115620001b457620001b3620002c6565b5b0217905550505050620002f5565b600080fd5b600073ffffffffffffffffffffffffffffffffffffffff82169050919050565b6000620001f482620001c7565b9050919050565b6200020681620001e7565b81146200021257600080fd5b50565b6000815190506200022681620001fb565b92915050565b600060ff82169050919050565b62000244816200022c565b81146200025057600080fd5b50565b600081519050620002648162000239565b92915050565b600080600060608486031215620002865762000285620001c2565b5b6000620002968682870162000215565b9350506020620002a98682870162000215565b9250506040620002bc8682870162000253565b9150509250925092565b7f4e487b7100000000000000000000000000000000000000000000000000000000600052602160045260246000fd5b612fad80620003056000396000f3fe6080604052600436106101c65760003560e01c80634e089900116100f7578063771a3a1d11610095578063c792299811610064578063c79229981461087c578063d9d00a57146108a7578063f247e3de146108d0578063ff4ffc98146108fb576103d3565b8063771a3a1d146107d05780638bdff161146107fb5780638c2001b9146108265780639cf6d1af14610851576103d3565b80635c664672116100d15780635c664672146107145780635ca1e1651461075157806361efb5271461077c57806373f44c2b146107a5576103d3565b80634e089900146106835780634f6a34f5146106ae5780635afdbd31146106eb576103d3565b806327e8ace01161016457806339819f331161013e57806339819f33146105c75780633dd95366146105f2578063416281ed1461062f5780634b21a2a71461065a576103d3565b806327e8ace0146105675780633308f42d1461059257806337a7b7d8146105bd576103d3565b806312065fe0116101a057806312065fe0146104a957806316ca3b78146104d45780631865c57d14610511578063233de1261461053c576103d3565b8063062a78941461041657806310b8d4d7146104415780631202ee311461047e576103d3565b366103d35760006101fd600360159054906101000a900460ff1660ff1634476101ef9190611e1d565b61092690919063ffffffff16565b90506000600481111561021357610212611e51565b5b600360149054906101000a900460ff16600481111561023557610234611e51565b5b14610275576040517f08c379a000000000000000000000000000000000000000000000000000000000815260040161026c90611edd565b60405180910390fd5b803410153460405160200161028a9190611f9b565b604051602081830303815290604052906102da576040517f08c379a00000000000000000000000000000000000000000000000000000000081526004016102d19190612040565b60405180910390fd5b506001600360146101000a81548160ff0219169083600481111561030157610300611e51565b5b021790555033600260006101000a81548173ffffffffffffffffffffffffffffffffffffffff021916908373ffffffffffffffffffffffffffffffffffffffff16021790555060006040518060e001604052803373ffffffffffffffffffffffffffffffffffffffff168152602001600160ff16815260200160055481526020013481526020014781526020018381526020015a81525090507fd9ccab18f2b95ab95e3fa1dd8094672f096ad892e847a8c5a91fcfba5b1ddee4816040516103c9919061215c565b60405180910390a1005b6000610414576040517f08c379a000000000000000000000000000000000000000000000000000000000815260040161040b906121c3565b60405180910390fd5b005b34801561042257600080fd5b5061042b610970565b60405161043891906121f2565b60405180910390f35b34801561044d57600080fd5b5061046860048036038101906104639190612382565b6109a1565b60405161047591906123f9565b60405180910390f35b34801561048a57600080fd5b50610493610a35565b6040516104a09190612423565b60405180910390f35b3480156104b557600080fd5b506104be610a48565b6040516104cb91906121f2565b60405180910390f35b3480156104e057600080fd5b506104fb60048036038101906104f6919061246a565b610a50565b60405161050891906123f9565b60405180910390f35b34801561051d57600080fd5b50610526610a67565b6040516105339190612521565b60405180910390f35b34801561054857600080fd5b50610551610a7e565b60405161055e9190612559565b60405180910390f35b34801561057357600080fd5b5061057c610a92565b60405161058991906121f2565b60405180910390f35b34801561059e57600080fd5b506105a7610ab8565b6040516105b49190612583565b60405180910390f35b6105c5610ae2565b005b3480156105d357600080fd5b506105dc610bc3565b6040516105e99190612559565b60405180910390f35b3480156105fe57600080fd5b5061061960048036038101906106149190612382565b610bd7565b60405161062691906121f2565b60405180910390f35b34801561063b57600080fd5b50610644610d25565b6040516106519190612559565b60405180910390f35b34801561066657600080fd5b50610681600480360381019061067c919061259e565b610db6565b005b34801561068f57600080fd5b50610698610ef6565b6040516106a59190612559565b60405180910390f35b3480156106ba57600080fd5b506106d560048036038101906106d09190612382565b610f0a565b6040516106e291906121f2565b60405180910390f35b3480156106f757600080fd5b50610712600480360381019061070d91906125f7565b610f45565b005b34801561072057600080fd5b5061073b60048036038101906107369190612382565b61106b565b60405161074891906123f9565b60405180910390f35b34801561075d57600080fd5b506107666112ca565b6040516107739190612583565b60405180910390f35b34801561078857600080fd5b506107a3600480360381019061079e9190612624565b6112f3565b005b3480156107b157600080fd5b506107ba611488565b6040516107c791906121f2565b60405180910390f35b3480156107dc57600080fd5b506107e56114db565b6040516107f29190612559565b60405180910390f35b34801561080757600080fd5b506108106114ed565b60405161081d91906121f2565b60405180910390f35b34801561083257600080fd5b5061083b611533565b60405161084891906121f2565b60405180910390f35b34801561085d57600080fd5b50610866611586565b6040516108739190612583565b60405180910390f35b34801561088857600080fd5b506108916115b0565b60405161089e91906121f2565b60405180910390f35b3480156108b357600080fd5b506108ce60048036038101906108c991906125f7565b6115ba565b005b3480156108dc57600080fd5b506108e56116e0565b6040516108f291906121f2565b60405180910390f35b34801561090757600080fd5b50610910611712565b60405161091d91906121f2565b60405180910390f35b600061096883836040518060400160405280601a81526020017f536166654d6174683a206469766973696f6e206279207a65726f00000000000081525061171c565b905092915050565b600080610998600360159054906101000a900460ff1660ff164761092690919063ffffffff16565b90508091505090565b6000600360048111156109b7576109b6611e51565b5b600360149054906101000a900460ff1660048111156109d9576109d8611e51565b5b14610a19576040517f08c379a0000000000000000000000000000000000000000000000000000000008152600401610a10906126b0565b60405180910390fd5b6000610a258484610f0a565b9050600554811491505092915050565b600360159054906101000a900460ff1681565b600047905090565b600081610a5d8585610f0a565b1490509392505050565b6000600360149054906101000a900460ff16905090565b600660009054906101000a900461ffff1681565b600080610a9d611533565b610aa5611488565b610aaf9190611e1d565b90508091505090565b6000600260009054906101000a900473ffffffffffffffffffffffffffffffffffffffff16905090565b60003411610b25576040517f08c379a0000000000000000000000000000000000000000000000000000000008152600401610b1c9061271c565b60405180910390fd5b60003447610b339190611e1d565b905060006040518060e001604052803373ffffffffffffffffffffffffffffffffffffffff168152602001600260ff16815260200160055481526020013481526020014781526020018381526020015a81525090507fd9ccab18f2b95ab95e3fa1dd8094672f096ad892e847a8c5a91fcfba5b1ddee481604051610bb7919061215c565b60405180910390a15050565b600660049054906101000a900461ffff1681565b6000600260009054906101000a900473ffffffffffffffffffffffffffffffffffffffff1673ffffffffffffffffffffffffffffffffffffffff163373ffffffffffffffffffffffffffffffffffffffff1614610c69576040517f08c379a0000000000000000000000000000000000000000000000000000000008152600401610c6090612788565b60405180910390fd5b60016004811115610c7d57610c7c611e51565b5b600360149054906101000a900460ff166004811115610c9f57610c9e611e51565b5b14610cdf576040517f08c379a0000000000000000000000000000000000000000000000000000000008152600401610cd6906127f4565b60405180910390fd5b610ce98383610f0a565b6005819055506002600360146101000a81548160ff02191690836004811115610d1557610d14611e51565b5b0217905550600554905092915050565b600080610dad600360159054906101000a900460ff1660ff16610d9f6064610d91610d6e600660029054906101000a900461ffff1661ffff16606461177f90919063ffffffff16565b600660009054906101000a900461ffff1661ffff166117c990919063ffffffff16565b61092690919063ffffffff16565b6117c990919063ffffffff16565b90508091505090565b60008054906101000a900473ffffffffffffffffffffffffffffffffffffffff1673ffffffffffffffffffffffffffffffffffffffff163373ffffffffffffffffffffffffffffffffffffffff1614610e44576040517f08c379a0000000000000000000000000000000000000000000000000000000008152600401610e3b90612860565b60405180910390fd5b600480811115610e5757610e56611e51565b5b600360149054906101000a900460ff166004811115610e7957610e78611e51565b5b14610eb9576040517f08c379a0000000000000000000000000000000000000000000000000000000008152600401610eb0906128cc565b60405180910390fd5b8060048190555060006005819055506000600360146101000a81548160ff02191690836004811115610eee57610eed611e51565b5b021790555050565b600660029054906101000a900461ffff1681565b6000808383604051602001610f20929190612953565b6040516020818303038152906040528051906020012090508060001c91505092915050565b600160009054906101000a900473ffffffffffffffffffffffffffffffffffffffff1673ffffffffffffffffffffffffffffffffffffffff163373ffffffffffffffffffffffffffffffffffffffff1614610fd5576040517f08c379a0000000000000000000000000000000000000000000000000000000008152600401610fcc906129c7565b60405180910390fd5b60006004811115610fe957610fe8611e51565b5b600360149054906101000a900460ff16600481111561100b5761100a611e51565b5b1461104b576040517f08c379a000000000000000000000000000000000000000000000000000000000815260040161104290612a33565b60405180910390fd5b80600660006101000a81548161ffff021916908361ffff16021790555050565b60008060009054906101000a900473ffffffffffffffffffffffffffffffffffffffff1673ffffffffffffffffffffffffffffffffffffffff163373ffffffffffffffffffffffffffffffffffffffff16146110fc576040517f08c379a00000000000000000000000000000000000000000000000000000000081526004016110f390612860565b60405180910390fd5b600260048111156111105761110f611e51565b5b600360149054906101000a900460ff16600481111561113257611131611e51565b5b14611172576040517f08c379a000000000000000000000000000000000000000000000000000000000815260040161116990612a9f565b60405180910390fd5b60038060146101000a81548160ff0219169083600481111561119757611196611e51565b5b021790555060006111a884846109a1565b905060006040518060a00160405280600260009054906101000a900473ffffffffffffffffffffffffffffffffffffffff1673ffffffffffffffffffffffffffffffffffffffff1681526020018315158152602001600554815260200160045481526020014281525090507f0af486f5a46f35bda92314e1385dd240666fc078e948bd192e25443265146e97816040516112429190612b36565b60405180910390a1611252611843565b6000600260006101000a81548173ffffffffffffffffffffffffffffffffffffffff021916908373ffffffffffffffffffffffffffffffffffffffff1602179055506004600360146101000a81548160ff021916908360048111156112ba576112b9611e51565b5b0217905550819250505092915050565b60008060009054906101000a900473ffffffffffffffffffffffffffffffffffffffff16905090565b600160009054906101000a900473ffffffffffffffffffffffffffffffffffffffff1673ffffffffffffffffffffffffffffffffffffffff163373ffffffffffffffffffffffffffffffffffffffff1614611383576040517f08c379a000000000000000000000000000000000000000000000000000000000815260040161137a906129c7565b60405180910390fd5b6000600481111561139757611396611e51565b5b600360149054906101000a900460ff1660048111156113b9576113b8611e51565b5b146113f9576040517f08c379a00000000000000000000000000000000000000000000000000000000081526004016113f090612a33565b60405180910390fd5b600181836114079190612b51565b61ffff161461144b576040517f08c379a000000000000000000000000000000000000000000000000000000000815260040161144290612bf9565b60405180910390fd5b81600660046101000a81548161ffff021916908361ffff160217905550806006806101000a81548161ffff021916908361ffff1602179055505050565b6000806114936114ed565b905060006114d160646114c3600660029054906101000a900461ffff1661ffff16856117c990919063ffffffff16565b61092690919063ffffffff16565b9050809250505090565b60068054906101000a900461ffff1681565b60008061152a606461151c600660009054906101000a900461ffff1661ffff16476117c990919063ffffffff16565b61092690919063ffffffff16565b90508091505090565b60008061153e611488565b9050600061157c606461156e600660049054906101000a900461ffff1661ffff16856117c990919063ffffffff16565b61092690919063ffffffff16565b9050809250505090565b6000600160009054906101000a900473ffffffffffffffffffffffffffffffffffffffff16905090565b6000600454905090565b600160009054906101000a900473ffffffffffffffffffffffffffffffffffffffff1673ffffffffffffffffffffffffffffffffffffffff163373ffffffffffffffffffffffffffffffffffffffff161461164a576040517f08c379a0000000000000000000000000000000000000000000000000000000008152600401611641906129c7565b60405180910390fd5b6000600481111561165e5761165d611e51565b5b600360149054906101000a900460ff1660048111156116805761167f611e51565b5b146116c0576040517f08c379a00000000000000000000000000000000000000000000000000000000081526004016116b790612a33565b60405180910390fd5b80600660026101000a81548161ffff021916908361ffff16021790555050565b6000806116eb6114ed565b905060006116f7611488565b9050600081836117079190611e1d565b905080935050505090565b6000600554905090565b60008083118290611763576040517f08c379a000000000000000000000000000000000000000000000000000000000815260040161175a9190612040565b60405180910390fd5b50600083856117729190612c48565b9050809150509392505050565b60006117c183836040518060400160405280601e81526020017f536166654d6174683a207375627472616374696f6e206f766572666c6f770000815250611d80565b905092915050565b60008083036117db576000905061183d565b600082846117e99190612c79565b90508284826117f89190612c48565b14611838576040517f08c379a000000000000000000000000000000000000000000000000000000000815260040161182f90612d2d565b60405180910390fd5b809150505b92915050565b600061184d610970565b905060006118596114ed565b90506000611865611488565b90506000611871611533565b9050600061187d610a92565b905060006118896116e0565b90506000600260009054906101000a900473ffffffffffffffffffffffffffffffffffffffff1673ffffffffffffffffffffffffffffffffffffffff1682600067ffffffffffffffff8111156118e2576118e1612257565b5b6040519080825280601f01601f1916602001820160405280156119145781602001600182028036833780820191505090505b506040516119229190612d94565b60006040518083038185875af1925050503d806000811461195f576040519150601f19603f3d011682016040523d82523d6000602084013e611964565b606091505b50509050806119a8576040517f08c379a000000000000000000000000000000000000000000000000000000000815260040161199f90612df7565b60405180910390fd5b6000600160009054906101000a900473ffffffffffffffffffffffffffffffffffffffff1673ffffffffffffffffffffffffffffffffffffffff1685600067ffffffffffffffff8111156119ff576119fe612257565b5b6040519080825280601f01601f191660200182016040528015611a315781602001600182028036833780820191505090505b50604051611a3f9190612d94565b60006040518083038185875af1925050503d8060008114611a7c576040519150601f19603f3d011682016040523d82523d6000602084013e611a81565b606091505b5050905080611ac5576040517f08c379a0000000000000000000000000000000000000000000000000000000008152600401611abc90612df7565b60405180910390fd5b60008060009054906101000a900473ffffffffffffffffffffffffffffffffffffffff1673ffffffffffffffffffffffffffffffffffffffff1685600067ffffffffffffffff811115611b1b57611b1a612257565b5b6040519080825280601f01601f191660200182016040528015611b4d5781602001600182028036833780820191505090505b50604051611b5b9190612d94565b60006040518083038185875af1925050503d8060008114611b98576040519150601f19603f3d011682016040523d82523d6000602084013e611b9d565b606091505b5050905080611be1576040517f08c379a0000000000000000000000000000000000000000000000000000000008152600401611bd890612df7565b60405180910390fd5b6000604051806101e00160405280600260009054906101000a900473ffffffffffffffffffffffffffffffffffffffff1673ffffffffffffffffffffffffffffffffffffffff168152602001600160009054906101000a900473ffffffffffffffffffffffffffffffffffffffff1673ffffffffffffffffffffffffffffffffffffffff16815260200160008054906101000a900473ffffffffffffffffffffffffffffffffffffffff1673ffffffffffffffffffffffffffffffffffffffff168152602001600660009054906101000a900461ffff1661ffff168152602001600660029054906101000a900461ffff1661ffff168152602001600660049054906101000a900461ffff1661ffff16815260200160068054906101000a900461ffff1661ffff1681526020014781526020018b81526020018a81526020018981526020018881526020018781526020018681526020014281525090507f1c73e8440cdc2c2c071f5e653040d672398aade8f0294ee0579ec874e3fcc1d881604051611d6c9190612f5b565b60405180910390a150505050505050505050565b6000838311158290611dc8576040517f08c379a0000000000000000000000000000000000000000000000000000000008152600401611dbf9190612040565b60405180910390fd5b5060008385611dd79190611e1d565b9050809150509392505050565b6000819050919050565b7f4e487b7100000000000000000000000000000000000000000000000000000000600052601160045260246000fd5b6000611e2882611de4565b9150611e3383611de4565b9250828203905081811115611e4b57611e4a611dee565b5b92915050565b7f4e487b7100000000000000000000000000000000000000000000000000000000600052602160045260246000fd5b600082825260208201905092915050565b7f63616e6e6f742062652062657400000000000000000000000000000000000000600082015250565b6000611ec7600d83611e80565b9150611ed282611e91565b602082019050919050565b60006020820190508181036000830152611ef681611eba565b9050919050565b600081905092915050565b7f5468652062657474696e6720616d6f756e742073686f756c642062652061742060008201527f6c65617374200000000000000000000000000000000000000000000000000000602082015250565b6000611f64602683611efd565b9150611f6f82611f08565b602682019050919050565b6000819050919050565b611f95611f9082611de4565b611f7a565b82525050565b6000611fa682611f57565b9150611fb28284611f84565b60208201915081905092915050565b600081519050919050565b60005b83811015611fea578082015181840152602081019050611fcf565b60008484015250505050565b6000601f19601f8301169050919050565b600061201282611fc1565b61201c8185611e80565b935061202c818560208601611fcc565b61203581611ff6565b840191505092915050565b6000602082019050818103600083015261205a8184612007565b905092915050565b600073ffffffffffffffffffffffffffffffffffffffff82169050919050565b600061208d82612062565b9050919050565b61209d81612082565b82525050565b600060ff82169050919050565b6120b9816120a3565b82525050565b6120c881611de4565b82525050565b60e0820160008201516120e46000850182612094565b5060208201516120f760208501826120b0565b50604082015161210a60408501826120bf565b50606082015161211d60608501826120bf565b50608082015161213060808501826120bf565b5060a082015161214360a08501826120bf565b5060c082015161215660c08501826120bf565b50505050565b600060e08201905061217160008301846120ce565b92915050565b7f4e6f206f746865722063616c6c7320737570706f727465640000000000000000600082015250565b60006121ad601883611e80565b91506121b882612177565b602082019050919050565b600060208201905081810360008301526121dc816121a0565b9050919050565b6121ec81611de4565b82525050565b600060208201905061220760008301846121e3565b92915050565b6000604051905090565b600080fd5b600080fd5b61222a816120a3565b811461223557600080fd5b50565b60008135905061224781612221565b92915050565b600080fd5b600080fd5b7f4e487b7100000000000000000000000000000000000000000000000000000000600052604160045260246000fd5b61228f82611ff6565b810181811067ffffffffffffffff821117156122ae576122ad612257565b5b80604052505050565b60006122c161220d565b90506122cd8282612286565b919050565b600067ffffffffffffffff8211156122ed576122ec612257565b5b6122f682611ff6565b9050602081019050919050565b82818337600083830152505050565b6000612325612320846122d2565b6122b7565b90508281526020810184848401111561234157612340612252565b5b61234c848285612303565b509392505050565b600082601f8301126123695761236861224d565b5b8135612379848260208601612312565b91505092915050565b6000806040838503121561239957612398612217565b5b60006123a785828601612238565b925050602083013567ffffffffffffffff8111156123c8576123c761221c565b5b6123d485828601612354565b9150509250929050565b60008115159050919050565b6123f3816123de565b82525050565b600060208201905061240e60008301846123ea565b92915050565b61241d816120a3565b82525050565b60006020820190506124386000830184612414565b92915050565b61244781611de4565b811461245257600080fd5b50565b6000813590506124648161243e565b92915050565b60008060006060848603121561248357612482612217565b5b600061249186828701612238565b935050602084013567ffffffffffffffff8111156124b2576124b161221c565b5b6124be86828701612354565b92505060406124cf86828701612455565b9150509250925092565b600581106124ea576124e9611e51565b5b50565b60008190506124fb826124d9565b919050565b600061250b826124ed565b9050919050565b61251b81612500565b82525050565b60006020820190506125366000830184612512565b92915050565b600061ffff82169050919050565b6125538161253c565b82525050565b600060208201905061256e600083018461254a565b92915050565b61257d81612082565b82525050565b60006020820190506125986000830184612574565b92915050565b6000602082840312156125b4576125b3612217565b5b60006125c284828501612455565b91505092915050565b6125d48161253c565b81146125df57600080fd5b50565b6000813590506125f1816125cb565b92915050565b60006020828403121561260d5761260c612217565b5b600061261b848285016125e2565b91505092915050565b6000806040838503121561263b5761263a612217565b5b6000612649858286016125e2565b925050602061265a858286016125e2565b9150509250929050565b7f7878780000000000000000000000000000000000000000000000000000000000600082015250565b600061269a600383611e80565b91506126a582612664565b602082019050919050565b600060208201905081810360008301526126c98161268d565b9050919050565b7f46656564696e672063616e6e6f74206265207a65726f00000000000000000000600082015250565b6000612706601683611e80565b9150612711826126d0565b602082019050919050565b60006020820190508181036000830152612735816126f9565b9050919050565b7f4e6f7420612062657474696e6720706c61796572000000000000000000000000600082015250565b6000612772601483611e80565b915061277d8261273c565b602082019050919050565b600060208201905081810360008301526127a181612765565b9050919050565b7f426574206e6f7420706169640000000000000000000000000000000000000000600082015250565b60006127de600c83611e80565b91506127e9826127a8565b602082019050919050565b6000602082019050818103600083015261280d816127d1565b9050919050565b7f4f6e6c7920726f6f742063616e2063616c6c20746869732e0000000000000000600082015250565b600061284a601883611e80565b915061285582612814565b602082019050919050565b600060208201905081810360008301526128798161283d565b9050919050565b7f7878000000000000000000000000000000000000000000000000000000000000600082015250565b60006128b6600283611e80565b91506128c182612880565b602082019050919050565b600060208201905081810360008301526128e5816128a9565b9050919050565b60008160f81b9050919050565b6000612904826128ec565b9050919050565b61291c612917826120a3565b6128f9565b82525050565b600061292d82611fc1565b6129378185611efd565b9350612947818560208601611fcc565b80840191505092915050565b600061295f828561290b565b60018201915061296f8284612922565b91508190509392505050565b7f4f6e6c79206465616c65722063616e2063616c6c20746869732e000000000000600082015250565b60006129b1601a83611e80565b91506129bc8261297b565b602082019050919050565b600060208201905081810360008301526129e0816129a4565b9050919050565b7f43616e206f6e6c79206265206368616e676564207768656e20666f6c64696e67600082015250565b6000612a1d602083611e80565b9150612a28826129e7565b602082019050919050565b60006020820190508181036000830152612a4c81612a10565b9050919050565b7f426574206e6f7420636f6d706c65746564000000000000000000000000000000600082015250565b6000612a89601183611e80565b9150612a9482612a53565b602082019050919050565b60006020820190508181036000830152612ab881612a7c565b9050919050565b612ac8816123de565b82525050565b60a082016000820151612ae46000850182612094565b506020820151612af76020850182612abf565b506040820151612b0a60408501826120bf565b506060820151612b1d60608501826120bf565b506080820151612b3060808501826120bf565b50505050565b600060a082019050612b4b6000830184612ace565b92915050565b6000612b5c8261253c565b9150612b678361253c565b9250828201905061ffff811115612b8157612b80611dee565b5b92915050565b7f42726f6b65726167655261746520706c75732054617852617465206d7573742060008201527f626520657175616c20746f203100000000000000000000000000000000000000602082015250565b6000612be3602d83611e80565b9150612bee82612b87565b604082019050919050565b60006020820190508181036000830152612c1281612bd6565b9050919050565b7f4e487b7100000000000000000000000000000000000000000000000000000000600052601260045260246000fd5b6000612c5382611de4565b9150612c5e83611de4565b925082612c6e57612c6d612c19565b5b828204905092915050565b6000612c8482611de4565b9150612c8f83611de4565b9250828202612c9d81611de4565b91508282048414831517612cb457612cb3611dee565b5b5092915050565b7f536166654d6174683a206d756c7469706c69636174696f6e206f766572666c6f60008201527f7700000000000000000000000000000000000000000000000000000000000000602082015250565b6000612d17602183611e80565b9150612d2282612cbb565b604082019050919050565b60006020820190508181036000830152612d4681612d0a565b9050919050565b600081519050919050565b600081905092915050565b6000612d6e82612d4d565b612d788185612d58565b9350612d88818560208601611fcc565b80840191505092915050565b6000612da08284612d63565b915081905092915050565b7f4554485f5452414e534645525f4641494c454400000000000000000000000000600082015250565b6000612de1601383611e80565b9150612dec82612dab565b602082019050919050565b60006020820190508181036000830152612e1081612dd4565b9050919050565b612e208161253c565b82525050565b6101e082016000820151612e3d6000850182612094565b506020820151612e506020850182612094565b506040820151612e636040850182612094565b506060820151612e766060850182612e17565b506080820151612e896080850182612e17565b5060a0820151612e9c60a0850182612e17565b5060c0820151612eaf60c0850182612e17565b5060e0820151612ec260e08501826120bf565b50610100820151612ed76101008501826120bf565b50610120820151612eec6101208501826120bf565b50610140820151612f016101408501826120bf565b50610160820151612f166101608501826120bf565b50610180820151612f2b6101808501826120bf565b506101a0820151612f406101a08501826120bf565b506101c0820151612f556101c08501826120bf565b50505050565b60006101e082019050612f716000830184612e26565b9291505056fea264697066735822122042a6b1b1606e275d37e8eb4e697910b95f22e882d066fa65b9c6da8484dcd9eb64736f6c63430008130033a26469706673582212202d0ac46ab6edb957b6e03a5c1e0002b82d0dd61fc8d74198582893dfc4c8d63a64736f6c63430008130033",
  "immutableReferences": {},
  "source": "// SPDX-License-Identifier: MIT\npragma solidity >=0.4.22 <0.8.20;\nimport \"./IBlindBox.sol\";\nimport \"./BlindBoxContract.sol\";\nimport \"./IGamblingContractFactory.sol\";\n\n/**\n * @dev\n * Game contract factory, used by operators to apply for blind boxes.\n */\ncontract GamblingContractFactory is IGamblingContractFactory {\n    address[] public contracts;\n    mapping(address => address[]) private dealerIndexer;\n    address[] private dealerKeys;\n    address public root;\n    mapping(address => ApplyRights) private rights;\n    uint256 private annualFee = 4200000000000000000; //4.2 ether\n    uint256 private monthlyFee = 400000000000000000; //0.4 ether\n\n    constructor() {\n        root = msg.sender;\n    }\n\n    modifier onlyRoot() {\n        require(root == msg.sender, \"Only root can call this.\");\n        _;\n    }\n\n    function getBalance() public view override returns (uint256) {\n        return address(this).balance;\n    }\n\n    function getAddress() public view override returns (address) {\n        return address(this);\n    }\n\n    function getAnnualFee() public view override returns (uint256) {\n        return annualFee;\n    }\n\n    function getMonthlyFee() public view override returns (uint256) {\n        return monthlyFee;\n    }\n\n    function setAnnualFee(uint256 _annualFee) public override onlyRoot {\n        require(_annualFee > 0, \"Annual fee cannot be negative\");\n        annualFee = _annualFee;\n    }\n\n    function setMonthlyFee(uint256 _monthlyFee) public override onlyRoot {\n        require(_monthlyFee > 0, \"Monthly fee cannot be negative\");\n        monthlyFee = _monthlyFee;\n    }\n\n    function enumDealer() public view override returns (address[] memory) {\n        return dealerKeys;\n    }\n\n    function listContractOfDealer(\n        address dealer\n    ) public view override returns (address[] memory) {\n        return dealerIndexer[dealer];\n    }\n\n    ///@dev Create a new blind box\n    function createBlindBoxContract(\n        address _dealer,\n        uint8 _luckyCount\n    ) external override onlyRoot returns (address) {\n        require(\n            rights[_dealer].isAllow,\n            \"Not allowed to apply for blind boxes, must pay\"\n        );\n        if (rights[_dealer].payMode == 1) {\n            require(\n                block.timestamp - rights[_dealer].time < 31536000,\n                \"The annual fee has expired\"\n            );\n        }\n        if (rights[_dealer].payMode == 2) {\n            require(\n                block.timestamp - rights[_dealer].time < 2678400,\n                \"Monthly fee has expired\"\n            );\n        }\n        BlindBoxContract blindBox = new BlindBoxContract(\n            root,\n            _dealer,\n            _luckyCount\n        );\n        address blindBoxAddress = address(blindBox);\n        contracts.push(blindBoxAddress);\n        address[] storage contractAddressArr = dealerIndexer[_dealer];\n        contractAddressArr.push(blindBoxAddress);\n        bool foundKey = false;\n        for (uint i = 0; i < dealerKeys.length; i++) {\n            if (dealerKeys[i] == _dealer) {\n                foundKey = true;\n                break;\n            }\n        }\n        if (!foundKey) {\n            dealerKeys.push(_dealer);\n        }\n        CreateGamblingContractMessage\n            memory cgcm = CreateGamblingContractMessage(\n                blindBoxAddress,\n                msg.sender,\n                _dealer,\n                _luckyCount,\n                rights[_dealer]\n            );\n\n        emit OnCreateGamblingContract(cgcm);\n        return blindBoxAddress;\n    }\n\n    function withdraw() public payable override onlyRoot {\n        (bool success, ) = payable(root).call{value: address(this).balance}(\n            new bytes(0)\n        );\n        require(success, \"ETH_TRANSFER_FAILED\");\n    }\n\n    fallback() external payable {\n        require(false, \"No other calls supported\");\n    }\n\n    ///@dev The default payment method is only used for charging annual fees\n    receive() external payable {\n        require(\n            msg.value >= annualFee,\n            \"The fee should be at least equal to the annual fee\"\n        );\n        rights[msg.sender] = ApplyRights(true, 1, block.timestamp);\n    }\n\n    function recMothlyFee() external payable override {\n        require(\n            msg.value >= monthlyFee,\n            \"The fee should be at least equal to the monthly fee\"\n        );\n        rights[msg.sender] = ApplyRights(true, 2, block.timestamp);\n    }\n}\n",
  "sourcePath": "/Users/cj/games/game-blindbox/contracts/GamblingContractFactory.sol",
  "compiler": {
    "name": "solc",
    "version": "0.8.19+commit.7dd6d404.Emscripten.clang"
  },
  "schemaVersion": "3.4.14",
  "updatedAt": "2023-08-13T03:19:44.292Z",
  "networkType": "ethereum",
  "devdoc": {
    "details": "Game contract factory, used by operators to apply for blind boxes.",
    "kind": "dev",
    "methods": {
      "createBlindBoxContract(address,uint8)": {
        "details": "Create a new blind box"
      }
    },
    "version": 1
  },
  "userdoc": {
    "kind": "user",
    "methods": {},
    "version": 1
  }
}