{
  "contractName": "GamblingContractFactory",
  "abi": [
    {
      "inputs": [],
      "stateMutability": "nonpayable",
      "type": "constructor"
    },
    {
      "anonymous": false,
      "inputs": [
        {
          "components": [
            {
              "internalType": "address",
              "name": "contractAddress",
              "type": "address"
            },
            {
              "internalType": "address",
              "name": "root",
              "type": "address"
            },
            {
              "internalType": "address",
              "name": "dealer",
              "type": "address"
            },
            {
              "internalType": "uint8",
              "name": "luckyCount",
              "type": "uint8"
            }
          ],
          "indexed": false,
          "internalType": "struct CreateGamblingContractMessage",
          "name": "e",
          "type": "tuple"
        }
      ],
      "name": "OnCreateGamblingContract",
      "type": "event"
    },
    {
      "inputs": [
        {
          "internalType": "uint256",
          "name": "",
          "type": "uint256"
        }
      ],
      "name": "contracts",
      "outputs": [
        {
          "internalType": "address",
          "name": "",
          "type": "address"
        }
      ],
      "stateMutability": "view",
      "type": "function",
      "constant": true
    },
    {
      "inputs": [],
      "name": "root",
      "outputs": [
        {
          "internalType": "address",
          "name": "",
          "type": "address"
        }
      ],
      "stateMutability": "view",
      "type": "function",
      "constant": true
    },
    {
      "inputs": [],
      "name": "enumDealer",
      "outputs": [
        {
          "internalType": "address[]",
          "name": "",
          "type": "address[]"
        }
      ],
      "stateMutability": "view",
      "type": "function",
      "constant": true
    },
    {
      "inputs": [
        {
          "internalType": "address",
          "name": "dealer",
          "type": "address"
        }
      ],
      "name": "listContractOfDealer",
      "outputs": [
        {
          "internalType": "address[]",
          "name": "",
          "type": "address[]"
        }
      ],
      "stateMutability": "view",
      "type": "function",
      "constant": true
    },
    {
      "inputs": [
        {
          "internalType": "address",
          "name": "_dealer",
          "type": "address"
        },
        {
          "internalType": "uint8",
          "name": "_luckyCount",
          "type": "uint8"
        }
      ],
      "name": "createBlindBoxContract",
      "outputs": [
        {
          "internalType": "address",
          "name": "",
          "type": "address"
        }
      ],
      "stateMutability": "nonpayable",
      "type": "function"
    }
  ],
  "bytecode": "0x608060405234801561001057600080fd5b5033600360006101000a81548173ffffffffffffffffffffffffffffffffffffffff021916908373ffffffffffffffffffffffffffffffffffffffff1602179055506137ab806100616000396000f3fe60806040523480156200001157600080fd5b50600436106200005e5760003560e01c8063474da79a146200006357806364c5afbd1462000099578063b90c138814620000bb578063ebf0c71714620000f1578063ec9d06e91462000113575b600080fd5b6200008160048036038101906200007b919062000724565b62000149565b6040516200009091906200079b565b60405180910390f35b620000a362000189565b604051620000b2919062000886565b60405180910390f35b620000d96004803603810190620000d39190620008db565b62000219565b604051620000e8919062000886565b60405180910390f35b620000fb620002e8565b6040516200010a91906200079b565b60405180910390f35b6200013160048036038101906200012b91906200094b565b6200030e565b6040516200014091906200079b565b60405180910390f35b600081815481106200015a57600080fd5b906000526020600020016000915054906101000a900473ffffffffffffffffffffffffffffffffffffffff1681565b606060028054806020026020016040519081016040528092919081815260200182805480156200020f57602002820191906000526020600020905b8160009054906101000a900473ffffffffffffffffffffffffffffffffffffffff1673ffffffffffffffffffffffffffffffffffffffff1681526020019060010190808311620001c4575b5050505050905090565b6060600160008373ffffffffffffffffffffffffffffffffffffffff1673ffffffffffffffffffffffffffffffffffffffff168152602001908152602001600020805480602002602001604051908101604052809291908181526020018280548015620002dc57602002820191906000526020600020905b8160009054906101000a900473ffffffffffffffffffffffffffffffffffffffff1673ffffffffffffffffffffffffffffffffffffffff168152602001906001019080831162000291575b50505050509050919050565b600360009054906101000a900473ffffffffffffffffffffffffffffffffffffffff1681565b60003373ffffffffffffffffffffffffffffffffffffffff16600360009054906101000a900473ffffffffffffffffffffffffffffffffffffffff1673ffffffffffffffffffffffffffffffffffffffff1614620003a3576040517f08c379a00000000000000000000000000000000000000000000000000000000081526004016200039a90620009f3565b60405180910390fd5b6000600360009054906101000a900473ffffffffffffffffffffffffffffffffffffffff168484604051620003d890620006d6565b620003e69392919062000a26565b604051809103906000f08015801562000403573d6000803e3d6000fd5b50905060008190506000819080600181540180825580915050600190039060005260206000200160009091909190916101000a81548173ffffffffffffffffffffffffffffffffffffffff021916908373ffffffffffffffffffffffffffffffffffffffff1602179055506000600160008773ffffffffffffffffffffffffffffffffffffffff1673ffffffffffffffffffffffffffffffffffffffff168152602001908152602001600020905080829080600181540180825580915050600190039060005260206000200160009091909190916101000a81548173ffffffffffffffffffffffffffffffffffffffff021916908373ffffffffffffffffffffffffffffffffffffffff1602179055506000805b600280549050811015620005ba578773ffffffffffffffffffffffffffffffffffffffff166002828154811062000553576200055262000a63565b5b9060005260206000200160009054906101000a900473ffffffffffffffffffffffffffffffffffffffff1673ffffffffffffffffffffffffffffffffffffffff1603620005a45760019150620005ba565b8080620005b19062000ac1565b91505062000517565b508062000625576002879080600181540180825580915050600190039060005260206000200160009091909190916101000a81548173ffffffffffffffffffffffffffffffffffffffff021916908373ffffffffffffffffffffffffffffffffffffffff1602179055505b600060405180608001604052808573ffffffffffffffffffffffffffffffffffffffff1681526020013373ffffffffffffffffffffffffffffffffffffffff1681526020018973ffffffffffffffffffffffffffffffffffffffff1681526020018860ff1681525090507f7d9c1bb5cdfb7300aa73203786a326d741238cd3dc262698ccb17580b3cc352481604051620006c0919062000b7c565b60405180910390a1839550505050505092915050565b612bdc8062000b9a83390190565b600080fd5b6000819050919050565b620006fe81620006e9565b81146200070a57600080fd5b50565b6000813590506200071e81620006f3565b92915050565b6000602082840312156200073d576200073c620006e4565b5b60006200074d848285016200070d565b91505092915050565b600073ffffffffffffffffffffffffffffffffffffffff82169050919050565b6000620007838262000756565b9050919050565b620007958162000776565b82525050565b6000602082019050620007b260008301846200078a565b92915050565b600081519050919050565b600082825260208201905092915050565b6000819050602082019050919050565b620007ef8162000776565b82525050565b6000620008038383620007e4565b60208301905092915050565b6000602082019050919050565b60006200082982620007b8565b620008358185620007c3565b93506200084283620007d4565b8060005b83811015620008795781516200085d8882620007f5565b97506200086a836200080f565b92505060018101905062000846565b5085935050505092915050565b60006020820190508181036000830152620008a281846200081c565b905092915050565b620008b58162000776565b8114620008c157600080fd5b50565b600081359050620008d581620008aa565b92915050565b600060208284031215620008f457620008f3620006e4565b5b60006200090484828501620008c4565b91505092915050565b600060ff82169050919050565b62000925816200090d565b81146200093157600080fd5b50565b60008135905062000945816200091a565b92915050565b60008060408385031215620009655762000964620006e4565b5b60006200097585828601620008c4565b9250506020620009888582860162000934565b9150509250929050565b600082825260208201905092915050565b7f4f6e6c7920726f6f742063616e2063616c6c20746869732e0000000000000000600082015250565b6000620009db60188362000992565b9150620009e882620009a3565b602082019050919050565b6000602082019050818103600083015262000a0e81620009cc565b9050919050565b62000a20816200090d565b82525050565b600060608201905062000a3d60008301866200078a565b62000a4c60208301856200078a565b62000a5b604083018462000a15565b949350505050565b7f4e487b7100000000000000000000000000000000000000000000000000000000600052603260045260246000fd5b7f4e487b7100000000000000000000000000000000000000000000000000000000600052601160045260246000fd5b600062000ace82620006e9565b91507fffffffffffffffffffffffffffffffffffffffffffffffffffffffffffffffff820362000b035762000b0262000a92565b5b600182019050919050565b62000b19816200090d565b82525050565b60808201600082015162000b376000850182620007e4565b50602082015162000b4c6020850182620007e4565b50604082015162000b616040850182620007e4565b50606082015162000b76606085018262000b0e565b50505050565b600060808201905062000b93600083018462000b1f565b9291505056fe60806040526050600660006101000a81548161ffff021916908361ffff1602179055506014600660026101000a81548161ffff021916908361ffff1602179055506046600660046101000a81548161ffff021916908361ffff160217905550601e6006806101000a81548161ffff021916908361ffff1602179055503480156200008857600080fd5b5060405162002bdc38038062002bdc8339818101604052810190620000ae91906200026a565b33600360006101000a81548173ffffffffffffffffffffffffffffffffffffffff021916908373ffffffffffffffffffffffffffffffffffffffff160217905550826000806101000a81548173ffffffffffffffffffffffffffffffffffffffff021916908373ffffffffffffffffffffffffffffffffffffffff16021790555081600160006101000a81548173ffffffffffffffffffffffffffffffffffffffff021916908373ffffffffffffffffffffffffffffffffffffffff16021790555080600360156101000a81548160ff021916908360ff1602179055506004600360146101000a81548160ff02191690836004811115620001b457620001b3620002c6565b5b0217905550505050620002f5565b600080fd5b600073ffffffffffffffffffffffffffffffffffffffff82169050919050565b6000620001f482620001c7565b9050919050565b6200020681620001e7565b81146200021257600080fd5b50565b6000815190506200022681620001fb565b92915050565b600060ff82169050919050565b62000244816200022c565b81146200025057600080fd5b50565b600081519050620002648162000239565b92915050565b600080600060608486031215620002865762000285620001c2565b5b6000620002968682870162000215565b9350506020620002a98682870162000215565b9250506040620002bc8682870162000253565b9150509250925092565b7f4e487b7100000000000000000000000000000000000000000000000000000000600052602160045260246000fd5b6128d780620003056000396000f3fe6080604052600436106101855760003560e01c80634b21a2a7116100d1578063771a3a1d1161008a5780639cf6d1af116100645780639cf6d1af146107be578063c7922998146107e9578063f247e3de14610814578063ff4ffc981461083f57610392565b8063771a3a1d1461073d5780638bdff161146107685780638c2001b91461079357610392565b80634b21a2a7146106195780634e089900146106425780634f6a34f51461066d5780635c664672146106aa5780635ca1e165146106e757806373f44c2b1461071257610392565b8063233de1261161013e57806337a7b7d81161011857806337a7b7d81461057c57806339819f33146105865780633dd95366146105b1578063416281ed146105ee57610392565b8063233de126146104fb57806327e8ace0146105265780633308f42d1461055157610392565b8063062a7894146103d557806310b8d4d7146104005780631202ee311461043d57806312065fe01461046857806316ca3b78146104935780631865c57d146104d057610392565b366103925760006101bc600360159054906101000a900460ff1660ff1634476101ae9190611980565b61086a90919063ffffffff16565b9050600060048111156101d2576101d16119b4565b5b600360149054906101000a900460ff1660048111156101f4576101f36119b4565b5b14610234576040517f08c379a000000000000000000000000000000000000000000000000000000000815260040161022b90611a40565b60405180910390fd5b80341015346040516020016102499190611afe565b60405160208183030381529060405290610299576040517f08c379a00000000000000000000000000000000000000000000000000000000081526004016102909190611ba3565b60405180910390fd5b506001600360146101000a81548160ff021916908360048111156102c0576102bf6119b4565b5b021790555033600260006101000a81548173ffffffffffffffffffffffffffffffffffffffff021916908373ffffffffffffffffffffffffffffffffffffffff16021790555060006040518060e001604052803373ffffffffffffffffffffffffffffffffffffffff168152602001600160ff16815260200160055481526020013481526020014781526020018381526020015a81525090507fd9ccab18f2b95ab95e3fa1dd8094672f096ad892e847a8c5a91fcfba5b1ddee4816040516103889190611cbf565b60405180910390a1005b60006103d3576040517f08c379a00000000000000000000000000000000000000000000000000000000081526004016103ca90611d26565b60405180910390fd5b005b3480156103e157600080fd5b506103ea6108b4565b6040516103f79190611d55565b60405180910390f35b34801561040c57600080fd5b5061042760048036038101906104229190611ee5565b6108e5565b6040516104349190611f5c565b60405180910390f35b34801561044957600080fd5b50610452610979565b60405161045f9190611f86565b60405180910390f35b34801561047457600080fd5b5061047d61098c565b60405161048a9190611d55565b60405180910390f35b34801561049f57600080fd5b506104ba60048036038101906104b59190611fcd565b610994565b6040516104c79190611f5c565b60405180910390f35b3480156104dc57600080fd5b506104e56109ab565b6040516104f29190612084565b60405180910390f35b34801561050757600080fd5b506105106109c2565b60405161051d91906120bc565b60405180910390f35b34801561053257600080fd5b5061053b6109d6565b6040516105489190611d55565b60405180910390f35b34801561055d57600080fd5b506105666109fc565b60405161057391906120e6565b60405180910390f35b610584610a26565b005b34801561059257600080fd5b5061059b610b07565b6040516105a891906120bc565b60405180910390f35b3480156105bd57600080fd5b506105d860048036038101906105d39190611ee5565b610b1b565b6040516105e59190611d55565b60405180910390f35b3480156105fa57600080fd5b50610603610c69565b60405161061091906120bc565b60405180910390f35b34801561062557600080fd5b50610640600480360381019061063b9190612101565b610cfa565b005b34801561064e57600080fd5b50610657610e3a565b60405161066491906120bc565b60405180910390f35b34801561067957600080fd5b50610694600480360381019061068f9190611ee5565b610e4e565b6040516106a19190611d55565b60405180910390f35b3480156106b657600080fd5b506106d160048036038101906106cc9190611ee5565b610e89565b6040516106de9190611f5c565b60405180910390f35b3480156106f357600080fd5b506106fc6110e8565b60405161070991906120e6565b60405180910390f35b34801561071e57600080fd5b50610727611111565b6040516107349190611d55565b60405180910390f35b34801561074957600080fd5b50610752611164565b60405161075f91906120bc565b60405180910390f35b34801561077457600080fd5b5061077d611176565b60405161078a9190611d55565b60405180910390f35b34801561079f57600080fd5b506107a86111bc565b6040516107b59190611d55565b60405180910390f35b3480156107ca57600080fd5b506107d361120f565b6040516107e091906120e6565b60405180910390f35b3480156107f557600080fd5b506107fe611239565b60405161080b9190611d55565b60405180910390f35b34801561082057600080fd5b50610829611243565b6040516108369190611d55565b60405180910390f35b34801561084b57600080fd5b50610854611275565b6040516108619190611d55565b60405180910390f35b60006108ac83836040518060400160405280601a81526020017f536166654d6174683a206469766973696f6e206279207a65726f00000000000081525061127f565b905092915050565b6000806108dc600360159054906101000a900460ff1660ff164761086a90919063ffffffff16565b90508091505090565b6000600360048111156108fb576108fa6119b4565b5b600360149054906101000a900460ff16600481111561091d5761091c6119b4565b5b1461095d576040517f08c379a00000000000000000000000000000000000000000000000000000000081526004016109549061217a565b60405180910390fd5b60006109698484610e4e565b9050600554811491505092915050565b600360159054906101000a900460ff1681565b600047905090565b6000816109a18585610e4e565b1490509392505050565b6000600360149054906101000a900460ff16905090565b600660009054906101000a900461ffff1681565b6000806109e16111bc565b6109e9611111565b6109f39190611980565b90508091505090565b6000600260009054906101000a900473ffffffffffffffffffffffffffffffffffffffff16905090565b60003411610a69576040517f08c379a0000000000000000000000000000000000000000000000000000000008152600401610a60906121e6565b60405180910390fd5b60003447610a779190611980565b905060006040518060e001604052803373ffffffffffffffffffffffffffffffffffffffff168152602001600260ff16815260200160055481526020013481526020014781526020018381526020015a81525090507fd9ccab18f2b95ab95e3fa1dd8094672f096ad892e847a8c5a91fcfba5b1ddee481604051610afb9190611cbf565b60405180910390a15050565b600660049054906101000a900461ffff1681565b6000600260009054906101000a900473ffffffffffffffffffffffffffffffffffffffff1673ffffffffffffffffffffffffffffffffffffffff163373ffffffffffffffffffffffffffffffffffffffff1614610bad576040517f08c379a0000000000000000000000000000000000000000000000000000000008152600401610ba490612252565b60405180910390fd5b60016004811115610bc157610bc06119b4565b5b600360149054906101000a900460ff166004811115610be357610be26119b4565b5b14610c23576040517f08c379a0000000000000000000000000000000000000000000000000000000008152600401610c1a906122be565b60405180910390fd5b610c2d8383610e4e565b6005819055506002600360146101000a81548160ff02191690836004811115610c5957610c586119b4565b5b0217905550600554905092915050565b600080610cf1600360159054906101000a900460ff1660ff16610ce36064610cd5610cb2600660029054906101000a900461ffff1661ffff1660646112e290919063ffffffff16565b600660009054906101000a900461ffff1661ffff1661132c90919063ffffffff16565b61086a90919063ffffffff16565b61132c90919063ffffffff16565b90508091505090565b60008054906101000a900473ffffffffffffffffffffffffffffffffffffffff1673ffffffffffffffffffffffffffffffffffffffff163373ffffffffffffffffffffffffffffffffffffffff1614610d88576040517f08c379a0000000000000000000000000000000000000000000000000000000008152600401610d7f9061232a565b60405180910390fd5b600480811115610d9b57610d9a6119b4565b5b600360149054906101000a900460ff166004811115610dbd57610dbc6119b4565b5b14610dfd576040517f08c379a0000000000000000000000000000000000000000000000000000000008152600401610df490612396565b60405180910390fd5b8060048190555060006005819055506000600360146101000a81548160ff02191690836004811115610e3257610e316119b4565b5b021790555050565b600660029054906101000a900461ffff1681565b6000808383604051602001610e6492919061241d565b6040516020818303038152906040528051906020012090508060001c91505092915050565b60008060009054906101000a900473ffffffffffffffffffffffffffffffffffffffff1673ffffffffffffffffffffffffffffffffffffffff163373ffffffffffffffffffffffffffffffffffffffff1614610f1a576040517f08c379a0000000000000000000000000000000000000000000000000000000008152600401610f119061232a565b60405180910390fd5b60026004811115610f2e57610f2d6119b4565b5b600360149054906101000a900460ff166004811115610f5057610f4f6119b4565b5b14610f90576040517f08c379a0000000000000000000000000000000000000000000000000000000008152600401610f8790612491565b60405180910390fd5b60038060146101000a81548160ff02191690836004811115610fb557610fb46119b4565b5b02179055506000610fc684846108e5565b905060006040518060a00160405280600260009054906101000a900473ffffffffffffffffffffffffffffffffffffffff1673ffffffffffffffffffffffffffffffffffffffff1681526020018315158152602001600554815260200160045481526020014281525090507f0af486f5a46f35bda92314e1385dd240666fc078e948bd192e25443265146e97816040516110609190612528565b60405180910390a16110706113a6565b6000600260006101000a81548173ffffffffffffffffffffffffffffffffffffffff021916908373ffffffffffffffffffffffffffffffffffffffff1602179055506004600360146101000a81548160ff021916908360048111156110d8576110d76119b4565b5b0217905550819250505092915050565b60008060009054906101000a900473ffffffffffffffffffffffffffffffffffffffff16905090565b60008061111c611176565b9050600061115a606461114c600660029054906101000a900461ffff1661ffff168561132c90919063ffffffff16565b61086a90919063ffffffff16565b9050809250505090565b60068054906101000a900461ffff1681565b6000806111b360646111a5600660009054906101000a900461ffff1661ffff164761132c90919063ffffffff16565b61086a90919063ffffffff16565b90508091505090565b6000806111c7611111565b9050600061120560646111f7600660049054906101000a900461ffff1661ffff168561132c90919063ffffffff16565b61086a90919063ffffffff16565b9050809250505090565b6000600160009054906101000a900473ffffffffffffffffffffffffffffffffffffffff16905090565b6000600454905090565b60008061124e611176565b9050600061125a611111565b90506000818361126a9190611980565b905080935050505090565b6000600554905090565b600080831182906112c6576040517f08c379a00000000000000000000000000000000000000000000000000000000081526004016112bd9190611ba3565b60405180910390fd5b50600083856112d59190612572565b9050809150509392505050565b600061132483836040518060400160405280601e81526020017f536166654d6174683a207375627472616374696f6e206f766572666c6f7700008152506118e3565b905092915050565b600080830361133e57600090506113a0565b6000828461134c91906125a3565b905082848261135b9190612572565b1461139b576040517f08c379a000000000000000000000000000000000000000000000000000000000815260040161139290612657565b60405180910390fd5b809150505b92915050565b60006113b06108b4565b905060006113bc611176565b905060006113c8611111565b905060006113d46111bc565b905060006113e06109d6565b905060006113ec611243565b90506000600260009054906101000a900473ffffffffffffffffffffffffffffffffffffffff1673ffffffffffffffffffffffffffffffffffffffff1682600067ffffffffffffffff81111561144557611444611dba565b5b6040519080825280601f01601f1916602001820160405280156114775781602001600182028036833780820191505090505b5060405161148591906126be565b60006040518083038185875af1925050503d80600081146114c2576040519150601f19603f3d011682016040523d82523d6000602084013e6114c7565b606091505b505090508061150b576040517f08c379a000000000000000000000000000000000000000000000000000000000815260040161150290612721565b60405180910390fd5b6000600160009054906101000a900473ffffffffffffffffffffffffffffffffffffffff1673ffffffffffffffffffffffffffffffffffffffff1685600067ffffffffffffffff81111561156257611561611dba565b5b6040519080825280601f01601f1916602001820160405280156115945781602001600182028036833780820191505090505b506040516115a291906126be565b60006040518083038185875af1925050503d80600081146115df576040519150601f19603f3d011682016040523d82523d6000602084013e6115e4565b606091505b5050905080611628576040517f08c379a000000000000000000000000000000000000000000000000000000000815260040161161f90612721565b60405180910390fd5b60008060009054906101000a900473ffffffffffffffffffffffffffffffffffffffff1673ffffffffffffffffffffffffffffffffffffffff1685600067ffffffffffffffff81111561167e5761167d611dba565b5b6040519080825280601f01601f1916602001820160405280156116b05781602001600182028036833780820191505090505b506040516116be91906126be565b60006040518083038185875af1925050503d80600081146116fb576040519150601f19603f3d011682016040523d82523d6000602084013e611700565b606091505b5050905080611744576040517f08c379a000000000000000000000000000000000000000000000000000000000815260040161173b90612721565b60405180910390fd5b6000604051806101e00160405280600260009054906101000a900473ffffffffffffffffffffffffffffffffffffffff1673ffffffffffffffffffffffffffffffffffffffff168152602001600160009054906101000a900473ffffffffffffffffffffffffffffffffffffffff1673ffffffffffffffffffffffffffffffffffffffff16815260200160008054906101000a900473ffffffffffffffffffffffffffffffffffffffff1673ffffffffffffffffffffffffffffffffffffffff168152602001600660009054906101000a900461ffff1661ffff168152602001600660029054906101000a900461ffff1661ffff168152602001600660049054906101000a900461ffff1661ffff16815260200160068054906101000a900461ffff1661ffff1681526020014781526020018b81526020018a81526020018981526020018881526020018781526020018681526020014281525090507f1c73e8440cdc2c2c071f5e653040d672398aade8f0294ee0579ec874e3fcc1d8816040516118cf9190612885565b60405180910390a150505050505050505050565b600083831115829061192b576040517f08c379a00000000000000000000000000000000000000000000000000000000081526004016119229190611ba3565b60405180910390fd5b506000838561193a9190611980565b9050809150509392505050565b6000819050919050565b7f4e487b7100000000000000000000000000000000000000000000000000000000600052601160045260246000fd5b600061198b82611947565b915061199683611947565b92508282039050818111156119ae576119ad611951565b5b92915050565b7f4e487b7100000000000000000000000000000000000000000000000000000000600052602160045260246000fd5b600082825260208201905092915050565b7f63616e6e6f742062652062657400000000000000000000000000000000000000600082015250565b6000611a2a600d836119e3565b9150611a35826119f4565b602082019050919050565b60006020820190508181036000830152611a5981611a1d565b9050919050565b600081905092915050565b7f5468652062657474696e6720616d6f756e742073686f756c642062652061742060008201527f6c65617374200000000000000000000000000000000000000000000000000000602082015250565b6000611ac7602683611a60565b9150611ad282611a6b565b602682019050919050565b6000819050919050565b611af8611af382611947565b611add565b82525050565b6000611b0982611aba565b9150611b158284611ae7565b60208201915081905092915050565b600081519050919050565b60005b83811015611b4d578082015181840152602081019050611b32565b60008484015250505050565b6000601f19601f8301169050919050565b6000611b7582611b24565b611b7f81856119e3565b9350611b8f818560208601611b2f565b611b9881611b59565b840191505092915050565b60006020820190508181036000830152611bbd8184611b6a565b905092915050565b600073ffffffffffffffffffffffffffffffffffffffff82169050919050565b6000611bf082611bc5565b9050919050565b611c0081611be5565b82525050565b600060ff82169050919050565b611c1c81611c06565b82525050565b611c2b81611947565b82525050565b60e082016000820151611c476000850182611bf7565b506020820151611c5a6020850182611c13565b506040820151611c6d6040850182611c22565b506060820151611c806060850182611c22565b506080820151611c936080850182611c22565b5060a0820151611ca660a0850182611c22565b5060c0820151611cb960c0850182611c22565b50505050565b600060e082019050611cd46000830184611c31565b92915050565b7f4e6f206f746865722063616c6c7320737570706f727465640000000000000000600082015250565b6000611d106018836119e3565b9150611d1b82611cda565b602082019050919050565b60006020820190508181036000830152611d3f81611d03565b9050919050565b611d4f81611947565b82525050565b6000602082019050611d6a6000830184611d46565b92915050565b6000604051905090565b600080fd5b600080fd5b611d8d81611c06565b8114611d9857600080fd5b50565b600081359050611daa81611d84565b92915050565b600080fd5b600080fd5b7f4e487b7100000000000000000000000000000000000000000000000000000000600052604160045260246000fd5b611df282611b59565b810181811067ffffffffffffffff82111715611e1157611e10611dba565b5b80604052505050565b6000611e24611d70565b9050611e308282611de9565b919050565b600067ffffffffffffffff821115611e5057611e4f611dba565b5b611e5982611b59565b9050602081019050919050565b82818337600083830152505050565b6000611e88611e8384611e35565b611e1a565b905082815260208101848484011115611ea457611ea3611db5565b5b611eaf848285611e66565b509392505050565b600082601f830112611ecc57611ecb611db0565b5b8135611edc848260208601611e75565b91505092915050565b60008060408385031215611efc57611efb611d7a565b5b6000611f0a85828601611d9b565b925050602083013567ffffffffffffffff811115611f2b57611f2a611d7f565b5b611f3785828601611eb7565b9150509250929050565b60008115159050919050565b611f5681611f41565b82525050565b6000602082019050611f716000830184611f4d565b92915050565b611f8081611c06565b82525050565b6000602082019050611f9b6000830184611f77565b92915050565b611faa81611947565b8114611fb557600080fd5b50565b600081359050611fc781611fa1565b92915050565b600080600060608486031215611fe657611fe5611d7a565b5b6000611ff486828701611d9b565b935050602084013567ffffffffffffffff81111561201557612014611d7f565b5b61202186828701611eb7565b925050604061203286828701611fb8565b9150509250925092565b6005811061204d5761204c6119b4565b5b50565b600081905061205e8261203c565b919050565b600061206e82612050565b9050919050565b61207e81612063565b82525050565b60006020820190506120996000830184612075565b92915050565b600061ffff82169050919050565b6120b68161209f565b82525050565b60006020820190506120d160008301846120ad565b92915050565b6120e081611be5565b82525050565b60006020820190506120fb60008301846120d7565b92915050565b60006020828403121561211757612116611d7a565b5b600061212584828501611fb8565b91505092915050565b7f7878780000000000000000000000000000000000000000000000000000000000600082015250565b60006121646003836119e3565b915061216f8261212e565b602082019050919050565b6000602082019050818103600083015261219381612157565b9050919050565b7f46656564696e672063616e6e6f74206265207a65726f00000000000000000000600082015250565b60006121d06016836119e3565b91506121db8261219a565b602082019050919050565b600060208201905081810360008301526121ff816121c3565b9050919050565b7f4e6f7420612062657474696e6720706c61796572000000000000000000000000600082015250565b600061223c6014836119e3565b915061224782612206565b602082019050919050565b6000602082019050818103600083015261226b8161222f565b9050919050565b7f426574206e6f7420706169640000000000000000000000000000000000000000600082015250565b60006122a8600c836119e3565b91506122b382612272565b602082019050919050565b600060208201905081810360008301526122d78161229b565b9050919050565b7f4f6e6c7920726f6f742063616e2063616c6c20746869732e0000000000000000600082015250565b60006123146018836119e3565b915061231f826122de565b602082019050919050565b6000602082019050818103600083015261234381612307565b9050919050565b7f7878000000000000000000000000000000000000000000000000000000000000600082015250565b60006123806002836119e3565b915061238b8261234a565b602082019050919050565b600060208201905081810360008301526123af81612373565b9050919050565b60008160f81b9050919050565b60006123ce826123b6565b9050919050565b6123e66123e182611c06565b6123c3565b82525050565b60006123f782611b24565b6124018185611a60565b9350612411818560208601611b2f565b80840191505092915050565b600061242982856123d5565b60018201915061243982846123ec565b91508190509392505050565b7f426574206e6f7420636f6d706c65746564000000000000000000000000000000600082015250565b600061247b6011836119e3565b915061248682612445565b602082019050919050565b600060208201905081810360008301526124aa8161246e565b9050919050565b6124ba81611f41565b82525050565b60a0820160008201516124d66000850182611bf7565b5060208201516124e960208501826124b1565b5060408201516124fc6040850182611c22565b50606082015161250f6060850182611c22565b5060808201516125226080850182611c22565b50505050565b600060a08201905061253d60008301846124c0565b92915050565b7f4e487b7100000000000000000000000000000000000000000000000000000000600052601260045260246000fd5b600061257d82611947565b915061258883611947565b92508261259857612597612543565b5b828204905092915050565b60006125ae82611947565b91506125b983611947565b92508282026125c781611947565b915082820484148315176125de576125dd611951565b5b5092915050565b7f536166654d6174683a206d756c7469706c69636174696f6e206f766572666c6f60008201527f7700000000000000000000000000000000000000000000000000000000000000602082015250565b60006126416021836119e3565b915061264c826125e5565b604082019050919050565b6000602082019050818103600083015261267081612634565b9050919050565b600081519050919050565b600081905092915050565b600061269882612677565b6126a28185612682565b93506126b2818560208601611b2f565b80840191505092915050565b60006126ca828461268d565b915081905092915050565b7f4554485f5452414e534645525f4641494c454400000000000000000000000000600082015250565b600061270b6013836119e3565b9150612716826126d5565b602082019050919050565b6000602082019050818103600083015261273a816126fe565b9050919050565b61274a8161209f565b82525050565b6101e0820160008201516127676000850182611bf7565b50602082015161277a6020850182611bf7565b50604082015161278d6040850182611bf7565b5060608201516127a06060850182612741565b5060808201516127b36080850182612741565b5060a08201516127c660a0850182612741565b5060c08201516127d960c0850182612741565b5060e08201516127ec60e0850182611c22565b50610100820151612801610100850182611c22565b50610120820151612816610120850182611c22565b5061014082015161282b610140850182611c22565b50610160820151612840610160850182611c22565b50610180820151612855610180850182611c22565b506101a082015161286a6101a0850182611c22565b506101c082015161287f6101c0850182611c22565b50505050565b60006101e08201905061289b6000830184612750565b9291505056fea26469706673582212205d85f9b54693e794f5636ebc0be7c504f15975719fe9d9b46e95878178ba3ade64736f6c63430008130033a2646970667358221220c9527aece5ff9d4a84bf3b56061814092247dcc374cae1b2406340f88121a92c64736f6c63430008130033",
  "immutableReferences": {},
  "source": "// SPDX-License-Identifier: MIT\npragma solidity >=0.4.22 <0.8.20;\nimport \"./IBlindBox.sol\";\nimport \"./BlindBoxContract.sol\";\nimport \"./IGamblingContractFactory.sol\";\n\n/**\n * @dev\n * Game contract factory, used by operators to apply for blind boxes.\n */\ncontract GamblingContractFactory is IGamblingContractFactory {\n    address[] public contracts;\n    mapping(address => address[]) private dealerIndexer;\n    address[] private dealerKeys;\n    address public root;\n\n    constructor() {\n        root = msg.sender;\n    }\n\n    modifier onlyRoot() {\n        require(root == msg.sender, \"Only root can call this.\");\n        _;\n    }\n\n    function enumDealer() public view override returns (address[] memory) {\n        return dealerKeys;\n    }\n\n    function listContractOfDealer(\n        address dealer\n    ) public view override returns (address[] memory) {\n        return dealerIndexer[dealer];\n    }\n\n    function createBlindBoxContract(\n        address _dealer,\n        uint8 _luckyCount\n    ) external override onlyRoot returns (address) {\n        BlindBoxContract blindBox = new BlindBoxContract(\n            root,\n            _dealer,\n            _luckyCount\n        );\n        address blindBoxAddress = address(blindBox);\n        contracts.push(blindBoxAddress);\n        address[] storage contractAddressArr = dealerIndexer[_dealer];\n        contractAddressArr.push(blindBoxAddress);\n        bool foundKey = false;\n        for (uint i = 0; i < dealerKeys.length; i++) {\n            if (dealerKeys[i] == _dealer) {\n                foundKey = true;\n                break;\n            }\n        }\n        if (!foundKey) {\n            dealerKeys.push(_dealer);\n        }\n        CreateGamblingContractMessage\n            memory cgcm = CreateGamblingContractMessage(\n                blindBoxAddress,\n                msg.sender,\n                _dealer,\n                _luckyCount\n            );\n\n        emit OnCreateGamblingContract(cgcm);\n        return blindBoxAddress;\n    }\n}\n",
  "sourcePath": "/Users/cj/games/game-blindbox/contracts/GamblingContractFactory.sol",
  "compiler": {
    "name": "solc",
    "version": "0.8.19+commit.7dd6d404.Emscripten.clang"
  },
  "schemaVersion": "3.4.14",
  "updatedAt": "2023-08-12T15:34:55.656Z",
  "networkType": "ethereum",
  "devdoc": {
    "details": "Game contract factory, used by operators to apply for blind boxes.",
    "kind": "dev",
    "methods": {},
    "version": 1
  },
  "userdoc": {
    "kind": "user",
    "methods": {},
    "version": 1
  }
}