{
  "contractName": "GamblingContractFactory",
  "abi": [
    {
      "inputs": [],
      "stateMutability": "nonpayable",
      "type": "constructor"
    },
    {
      "anonymous": false,
      "inputs": [
        {
          "components": [
            {
              "internalType": "address",
              "name": "contractAddress",
              "type": "address"
            },
            {
              "internalType": "address",
              "name": "root",
              "type": "address"
            },
            {
              "internalType": "address",
              "name": "dealer",
              "type": "address"
            },
            {
              "internalType": "uint8",
              "name": "luckyCount",
              "type": "uint8"
            }
          ],
          "indexed": false,
          "internalType": "struct CreateGamblingContractMessage",
          "name": "e",
          "type": "tuple"
        }
      ],
      "name": "OnCreateGamblingContract",
      "type": "event"
    },
    {
      "inputs": [
        {
          "internalType": "address",
          "name": "",
          "type": "address"
        }
      ],
      "name": "contractIndexer",
      "outputs": [
        {
          "internalType": "contract BlindBoxContract",
          "name": "",
          "type": "address"
        }
      ],
      "stateMutability": "view",
      "type": "function",
      "constant": true
    },
    {
      "inputs": [
        {
          "internalType": "address",
          "name": "",
          "type": "address"
        },
        {
          "internalType": "uint256",
          "name": "",
          "type": "uint256"
        }
      ],
      "name": "dealerIndexer",
      "outputs": [
        {
          "internalType": "address",
          "name": "",
          "type": "address"
        }
      ],
      "stateMutability": "view",
      "type": "function",
      "constant": true
    },
    {
      "inputs": [],
      "name": "enumDealer",
      "outputs": [
        {
          "internalType": "address[]",
          "name": "",
          "type": "address[]"
        }
      ],
      "stateMutability": "view",
      "type": "function",
      "constant": true
    },
    {
      "inputs": [
        {
          "internalType": "address",
          "name": "_dealer",
          "type": "address"
        },
        {
          "internalType": "uint8",
          "name": "_luckyCount",
          "type": "uint8"
        }
      ],
      "name": "createBlindBoxContract",
      "outputs": [
        {
          "internalType": "address",
          "name": "",
          "type": "address"
        }
      ],
      "stateMutability": "nonpayable",
      "type": "function"
    }
  ],
  "bytecode": "0x608060405234801561001057600080fd5b5033600360006101000a81548173ffffffffffffffffffffffffffffffffffffffff021916908373ffffffffffffffffffffffffffffffffffffffff16021790555061262c806100616000396000f3fe60806040523480156200001157600080fd5b5060043610620000525760003560e01c806320f76ab914620000575780633c76eb54146200008d57806364c5afbd14620000c3578063ec9d06e914620000e5575b600080fd5b6200007560048036038101906200006f9190620005b3565b6200011b565b60405162000084919062000650565b60405180910390f35b620000ab6004803603810190620000a59190620006a8565b6200014e565b604051620000ba919062000700565b60405180910390f35b620000cd6200019d565b604051620000dc9190620007eb565b60405180910390f35b620001036004803603810190620000fd91906200084d565b6200022d565b60405162000112919062000700565b60405180910390f35b60006020528060005260406000206000915054906101000a900473ffffffffffffffffffffffffffffffffffffffff1681565b600160205281600052604060002081815481106200016b57600080fd5b906000526020600020016000915091509054906101000a900473ffffffffffffffffffffffffffffffffffffffff1681565b606060028054806020026020016040519081016040528092919081815260200182805480156200022357602002820191906000526020600020905b8160009054906101000a900473ffffffffffffffffffffffffffffffffffffffff1673ffffffffffffffffffffffffffffffffffffffff1681526020019060010190808311620001d8575b5050505050905090565b60003373ffffffffffffffffffffffffffffffffffffffff16600360009054906101000a900473ffffffffffffffffffffffffffffffffffffffff1673ffffffffffffffffffffffffffffffffffffffff1614620002c2576040517f08c379a0000000000000000000000000000000000000000000000000000000008152600401620002b990620008f5565b60405180910390fd5b60008383604051620002d4906200053b565b620002e192919062000928565b604051809103906000f080158015620002fe573d6000803e3d6000fd5b5090506000819050816000808373ffffffffffffffffffffffffffffffffffffffff1673ffffffffffffffffffffffffffffffffffffffff16815260200190815260200160002060006101000a81548173ffffffffffffffffffffffffffffffffffffffff021916908373ffffffffffffffffffffffffffffffffffffffff1602179055506000600160008773ffffffffffffffffffffffffffffffffffffffff1673ffffffffffffffffffffffffffffffffffffffff168152602001908152602001600020905080829080600181540180825580915050600190039060005260206000200160009091909190916101000a81548173ffffffffffffffffffffffffffffffffffffffff021916908373ffffffffffffffffffffffffffffffffffffffff1602179055506002869080600181540180825580915050600190039060005260206000200160009091909190916101000a81548173ffffffffffffffffffffffffffffffffffffffff021916908373ffffffffffffffffffffffffffffffffffffffff160217905550600060405180608001604052808473ffffffffffffffffffffffffffffffffffffffff1681526020013373ffffffffffffffffffffffffffffffffffffffff1681526020018873ffffffffffffffffffffffffffffffffffffffff1681526020018760ff1681525090507f7d9c1bb5cdfb7300aa73203786a326d741238cd3dc262698ccb17580b3cc352481604051620005269190620009c3565b60405180910390a18294505050505092915050565b611c1680620009e183390190565b600080fd5b600073ffffffffffffffffffffffffffffffffffffffff82169050919050565b60006200057b826200054e565b9050919050565b6200058d816200056e565b81146200059957600080fd5b50565b600081359050620005ad8162000582565b92915050565b600060208284031215620005cc57620005cb62000549565b5b6000620005dc848285016200059c565b91505092915050565b6000819050919050565b6000620006106200060a62000604846200054e565b620005e5565b6200054e565b9050919050565b60006200062482620005ef565b9050919050565b6000620006388262000617565b9050919050565b6200064a816200062b565b82525050565b60006020820190506200066760008301846200063f565b92915050565b6000819050919050565b62000682816200066d565b81146200068e57600080fd5b50565b600081359050620006a28162000677565b92915050565b60008060408385031215620006c257620006c162000549565b5b6000620006d2858286016200059c565b9250506020620006e58582860162000691565b9150509250929050565b620006fa816200056e565b82525050565b6000602082019050620007176000830184620006ef565b92915050565b600081519050919050565b600082825260208201905092915050565b6000819050602082019050919050565b62000754816200056e565b82525050565b600062000768838362000749565b60208301905092915050565b6000602082019050919050565b60006200078e826200071d565b6200079a818562000728565b9350620007a78362000739565b8060005b83811015620007de578151620007c288826200075a565b9750620007cf8362000774565b925050600181019050620007ab565b5085935050505092915050565b6000602082019050818103600083015262000807818462000781565b905092915050565b600060ff82169050919050565b62000827816200080f565b81146200083357600080fd5b50565b60008135905062000847816200081c565b92915050565b6000806040838503121562000867576200086662000549565b5b600062000877858286016200059c565b92505060206200088a8582860162000836565b9150509250929050565b600082825260208201905092915050565b7f4f6e6c7920726f6f742063616e2063616c6c20746869732e0000000000000000600082015250565b6000620008dd60188362000894565b9150620008ea82620008a5565b602082019050919050565b600060208201905081810360008301526200091081620008ce565b9050919050565b62000922816200080f565b82525050565b60006040820190506200093f6000830185620006ef565b6200094e602083018462000917565b9392505050565b62000960816200080f565b82525050565b6080820160008201516200097e600085018262000749565b50602082015162000993602085018262000749565b506040820151620009a8604085018262000749565b506060820151620009bd606085018262000955565b50505050565b6000608082019050620009da600083018462000966565b9291505056fe60806040523480156200001157600080fd5b5060405162001c1638038062001c168339818101604052810190620000379190620001b1565b336000806101000a81548173ffffffffffffffffffffffffffffffffffffffff021916908373ffffffffffffffffffffffffffffffffffffffff16021790555081600160006101000a81548173ffffffffffffffffffffffffffffffffffffffff021916908373ffffffffffffffffffffffffffffffffffffffff16021790555080600260156101000a81548160ff021916908360ff1602179055506004600260146101000a81548160ff02191690836004811115620000fc57620000fb620001f8565b5b0217905550505062000227565b600080fd5b600073ffffffffffffffffffffffffffffffffffffffff82169050919050565b60006200013b826200010e565b9050919050565b6200014d816200012e565b81146200015957600080fd5b50565b6000815190506200016d8162000142565b92915050565b600060ff82169050919050565b6200018b8162000173565b81146200019757600080fd5b50565b600081519050620001ab8162000180565b92915050565b60008060408385031215620001cb57620001ca62000109565b5b6000620001db858286016200015c565b9250506020620001ee858286016200019a565b9150509250929050565b7f4e487b7100000000000000000000000000000000000000000000000000000000600052602160045260246000fd5b6119df80620002376000396000f3fe6080604052600436106100e15760003560e01c80634b21a2a71161007f5780639de2ee21116100595780639de2ee211461042f578063c79229981461045a578063ebf0c71714610485578063ff4ffc98146104b05761018e565b80634b21a2a71461038c5780634f6a34f5146103b55780635c664672146103f25761018e565b806316ca3b78116100bb57806316ca3b78146102c95780631865c57d146103065780633dd953661461033157806348db5f89146103615761018e565b806310b8d4d7146102365780631202ee311461027357806312065fe01461029e5761018e565b3661018e5760006040518060c00160405280600260009054906101000a900473ffffffffffffffffffffffffffffffffffffffff1673ffffffffffffffffffffffffffffffffffffffff168152602001600160ff16815260200160045481526020013481526020014781526020014281525090507fe167e24a1fdd7263a54853f9dc879157610521a56aba2efbb361dd6b7d9b0e7a816040516101849190610fc5565b60405180910390a1005b60006040518060c00160405280600260009054906101000a900473ffffffffffffffffffffffffffffffffffffffff1673ffffffffffffffffffffffffffffffffffffffff168152602001600060ff16815260200160045481526020013481526020014781526020014281525090507fe167e24a1fdd7263a54853f9dc879157610521a56aba2efbb361dd6b7d9b0e7a8160405161022c9190610fc5565b60405180910390a1005b34801561024257600080fd5b5061025d60048036038101906102589190611166565b6104db565b60405161026a91906111dd565b60405180910390f35b34801561027f57600080fd5b5061028861056f565b6040516102959190611207565b60405180910390f35b3480156102aa57600080fd5b506102b3610582565b6040516102c09190611231565b60405180910390f35b3480156102d557600080fd5b506102f060048036038101906102eb9190611278565b61058a565b6040516102fd91906111dd565b60405180910390f35b34801561031257600080fd5b5061031b6105a1565b604051610328919061135e565b60405180910390f35b61034b60048036038101906103469190611166565b6105b8565b6040516103589190611231565b60405180910390f35b34801561036d57600080fd5b506103766107aa565b6040516103839190611388565b60405180910390f35b34801561039857600080fd5b506103b360048036038101906103ae91906113a3565b6107d0565b005b3480156103c157600080fd5b506103dc60048036038101906103d79190611166565b610910565b6040516103e99190611231565b60405180910390f35b3480156103fe57600080fd5b5061041960048036038101906104149190611166565b61094b565b60405161042691906111dd565b60405180910390f35b34801561043b57600080fd5b50610444610b69565b6040516104519190611388565b60405180910390f35b34801561046657600080fd5b5061046f610b8f565b60405161047c9190611231565b60405180910390f35b34801561049157600080fd5b5061049a610b99565b6040516104a79190611388565b60405180910390f35b3480156104bc57600080fd5b506104c5610bbd565b6040516104d29190611231565b60405180910390f35b6000600360048111156104f1576104f06112e7565b5b600260149054906101000a900460ff166004811115610513576105126112e7565b5b14610553576040517f08c379a000000000000000000000000000000000000000000000000000000000815260040161054a9061142d565b60405180910390fd5b600061055f8484610910565b9050600454811491505092915050565b600260159054906101000a900460ff1681565b600047905090565b6000816105978585610910565b1490509392505050565b6000600260149054906101000a900460ff16905090565b60008060048111156105cd576105cc6112e7565b5b600260149054906101000a900460ff1660048111156105ef576105ee6112e7565b5b0361062f576040517f08c379a000000000000000000000000000000000000000000000000000000000815260040161062690611499565b60405180910390fd5b6000600260159054906101000a900460ff1660ff164761064f9190611517565b9050600a5a61065e9190611548565b8111156106a0576040517f08c379a0000000000000000000000000000000000000000000000000000000008152600401610697906115fc565b60405180910390fd5b6001600260146101000a81548160ff021916908360048111156106c6576106c56112e7565b5b0217905550600034476106d9919061161c565b90503073ffffffffffffffffffffffffffffffffffffffff166108fc829081150290604051600060405180830381858888f19350505050158015610721573d6000803e3d6000fd5b5061072c8585610910565b60048190555033600260006101000a81548173ffffffffffffffffffffffffffffffffffffffff021916908373ffffffffffffffffffffffffffffffffffffffff16021790555060028060146101000a81548160ff02191690836004811115610798576107976112e7565b5b02179055506004549250505092915050565b600260009054906101000a900473ffffffffffffffffffffffffffffffffffffffff1681565b60008054906101000a900473ffffffffffffffffffffffffffffffffffffffff1673ffffffffffffffffffffffffffffffffffffffff163373ffffffffffffffffffffffffffffffffffffffff161461085e576040517f08c379a00000000000000000000000000000000000000000000000000000000081526004016108559061169c565b60405180910390fd5b600480811115610871576108706112e7565b5b600260149054906101000a900460ff166004811115610893576108926112e7565b5b036108d3576040517f08c379a00000000000000000000000000000000000000000000000000000000081526004016108ca906116e2565b60405180910390fd5b6000600260146101000a81548160ff021916908360048111156108f9576108f86112e7565b5b021790555080600381905550600060048190555050565b60008083836040516020016109269291906117a9565b6040516020818303038152906040528051906020012090508060001c91505092915050565b60008060009054906101000a900473ffffffffffffffffffffffffffffffffffffffff1673ffffffffffffffffffffffffffffffffffffffff163373ffffffffffffffffffffffffffffffffffffffff16146109dc576040517f08c379a00000000000000000000000000000000000000000000000000000000081526004016109d39061169c565b60405180910390fd5b600260048111156109f0576109ef6112e7565b5b600260149054906101000a900460ff166004811115610a1257610a116112e7565b5b03610a52576040517f08c379a0000000000000000000000000000000000000000000000000000000008152600401610a499061142d565b60405180910390fd5b6003600260146101000a81548160ff02191690836004811115610a7857610a776112e7565b5b02179055506000610a8984846104db565b905060006040518060a00160405280600260009054906101000a900473ffffffffffffffffffffffffffffffffffffffff1673ffffffffffffffffffffffffffffffffffffffff1681526020018315158152602001600454815260200160035481526020014281525090507f0af486f5a46f35bda92314e1385dd240666fc078e948bd192e25443265146e9781604051610b239190611848565b60405180910390a1610b33610bc7565b6004600260146101000a81548160ff02191690836004811115610b5957610b586112e7565b5b0217905550819250505092915050565b600160009054906101000a900473ffffffffffffffffffffffffffffffffffffffff1681565b6000600354905090565b60008054906101000a900473ffffffffffffffffffffffffffffffffffffffff1681565b6000600454905090565b6000601490506000604690506000601e905060006064605047610bea9190611548565b610bf49190611517565b9050600060648560ff1683610c099190611548565b610c139190611517565b905060008183610c239190611863565b9050600060648660ff1684610c389190611548565b610c429190611517565b905060008184610c529190611863565b9050600260009054906101000a900473ffffffffffffffffffffffffffffffffffffffff1673ffffffffffffffffffffffffffffffffffffffff166108fc849081150290604051600060405180830381858888f19350505050158015610cbc573d6000803e3d6000fd5b50600160009054906101000a900473ffffffffffffffffffffffffffffffffffffffff1673ffffffffffffffffffffffffffffffffffffffff166108fc839081150290604051600060405180830381858888f19350505050158015610d25573d6000803e3d6000fd5b5060008054906101000a900473ffffffffffffffffffffffffffffffffffffffff1673ffffffffffffffffffffffffffffffffffffffff166108fc829081150290604051600060405180830381858888f19350505050158015610d8c573d6000803e3d6000fd5b506000604051806101800160405280600260009054906101000a900473ffffffffffffffffffffffffffffffffffffffff1673ffffffffffffffffffffffffffffffffffffffff168152602001600160009054906101000a900473ffffffffffffffffffffffffffffffffffffffff1673ffffffffffffffffffffffffffffffffffffffff16815260200160008054906101000a900473ffffffffffffffffffffffffffffffffffffffff1673ffffffffffffffffffffffffffffffffffffffff1681526020018a60ff1681526020018960ff1681526020018860ff1681526020014781526020018781526020018481526020018381526020018581526020014281525090507fefda3f1c44b862ac8eacae41653973bdd08c1d32745abf5d470032fd1e4af77e81604051610ec1919061198d565b60405180910390a1505050505050505050565b600073ffffffffffffffffffffffffffffffffffffffff82169050919050565b6000610eff82610ed4565b9050919050565b610f0f81610ef4565b82525050565b600060ff82169050919050565b610f2b81610f15565b82525050565b6000819050919050565b610f4481610f31565b82525050565b60c082016000820151610f606000850182610f06565b506020820151610f736020850182610f22565b506040820151610f866040850182610f3b565b506060820151610f996060850182610f3b565b506080820151610fac6080850182610f3b565b5060a0820151610fbf60a0850182610f3b565b50505050565b600060c082019050610fda6000830184610f4a565b92915050565b6000604051905090565b600080fd5b600080fd5b610ffd81610f15565b811461100857600080fd5b50565b60008135905061101a81610ff4565b92915050565b600080fd5b600080fd5b6000601f19601f8301169050919050565b7f4e487b7100000000000000000000000000000000000000000000000000000000600052604160045260246000fd5b6110738261102a565b810181811067ffffffffffffffff821117156110925761109161103b565b5b80604052505050565b60006110a5610fe0565b90506110b1828261106a565b919050565b600067ffffffffffffffff8211156110d1576110d061103b565b5b6110da8261102a565b9050602081019050919050565b82818337600083830152505050565b6000611109611104846110b6565b61109b565b90508281526020810184848401111561112557611124611025565b5b6111308482856110e7565b509392505050565b600082601f83011261114d5761114c611020565b5b813561115d8482602086016110f6565b91505092915050565b6000806040838503121561117d5761117c610fea565b5b600061118b8582860161100b565b925050602083013567ffffffffffffffff8111156111ac576111ab610fef565b5b6111b885828601611138565b9150509250929050565b60008115159050919050565b6111d7816111c2565b82525050565b60006020820190506111f260008301846111ce565b92915050565b61120181610f15565b82525050565b600060208201905061121c60008301846111f8565b92915050565b61122b81610f31565b82525050565b60006020820190506112466000830184611222565b92915050565b61125581610f31565b811461126057600080fd5b50565b6000813590506112728161124c565b92915050565b60008060006060848603121561129157611290610fea565b5b600061129f8682870161100b565b935050602084013567ffffffffffffffff8111156112c0576112bf610fef565b5b6112cc86828701611138565b92505060406112dd86828701611263565b9150509250925092565b7f4e487b7100000000000000000000000000000000000000000000000000000000600052602160045260246000fd5b60058110611327576113266112e7565b5b50565b600081905061133882611316565b919050565b60006113488261132a565b9050919050565b6113588161133d565b82525050565b6000602082019050611373600083018461134f565b92915050565b61138281610ef4565b82525050565b600060208201905061139d6000830184611379565b92915050565b6000602082840312156113b9576113b8610fea565b5b60006113c784828501611263565b91505092915050565b600082825260208201905092915050565b7f7878780000000000000000000000000000000000000000000000000000000000600082015250565b60006114176003836113d0565b9150611422826113e1565b602082019050919050565b600060208201905081810360008301526114468161140a565b9050919050565b7f63616e6e6f742062652062657400000000000000000000000000000000000000600082015250565b6000611483600d836113d0565b915061148e8261144d565b602082019050919050565b600060208201905081810360008301526114b281611476565b9050919050565b7f4e487b7100000000000000000000000000000000000000000000000000000000600052601260045260246000fd5b7f4e487b7100000000000000000000000000000000000000000000000000000000600052601160045260246000fd5b600061152282610f31565b915061152d83610f31565b92508261153d5761153c6114b9565b5b828204905092915050565b600061155382610f31565b915061155e83610f31565b925082820261156c81610f31565b91508282048414831517611583576115826114e8565b5b5092915050565b7f5468652062657420616d6f756e742063616e6e6f74206265206c65737320746860008201527f616e2031302074696d6573207468652067617320666565000000000000000000602082015250565b60006115e66037836113d0565b91506115f18261158a565b604082019050919050565b60006020820190508181036000830152611615816115d9565b9050919050565b600061162782610f31565b915061163283610f31565b925082820190508082111561164a576116496114e8565b5b92915050565b7f4f6e6c7920726f6f742063616e2063616c6c20746869732e0000000000000000600082015250565b60006116866018836113d0565b915061169182611650565b602082019050919050565b600060208201905081810360008301526116b581611679565b9050919050565b50565b60006116cc6000836113d0565b91506116d7826116bc565b600082019050919050565b600060208201905081810360008301526116fb816116bf565b9050919050565b60008160f81b9050919050565b600061171a82611702565b9050919050565b61173261172d82610f15565b61170f565b82525050565b600081519050919050565b600081905092915050565b60005b8381101561176c578082015181840152602081019050611751565b60008484015250505050565b600061178382611738565b61178d8185611743565b935061179d81856020860161174e565b80840191505092915050565b60006117b58285611721565b6001820191506117c58284611778565b91508190509392505050565b6117da816111c2565b82525050565b60a0820160008201516117f66000850182610f06565b50602082015161180960208501826117d1565b50604082015161181c6040850182610f3b565b50606082015161182f6060850182610f3b565b5060808201516118426080850182610f3b565b50505050565b600060a08201905061185d60008301846117e0565b92915050565b600061186e82610f31565b915061187983610f31565b9250828203905081811115611891576118906114e8565b5b92915050565b610180820160008201516118ae6000850182610f06565b5060208201516118c16020850182610f06565b5060408201516118d46040850182610f06565b5060608201516118e76060850182610f22565b5060808201516118fa6080850182610f22565b5060a082015161190d60a0850182610f22565b5060c082015161192060c0850182610f3b565b5060e082015161193360e0850182610f3b565b50610100820151611948610100850182610f3b565b5061012082015161195d610120850182610f3b565b50610140820151611972610140850182610f3b565b50610160820151611987610160850182610f3b565b50505050565b6000610180820190506119a36000830184611897565b9291505056fea2646970667358221220976ebff022cb36f516b1edaa304bca4b4746b9c7180a7399022f4eb24500c13e64736f6c63430008130033a264697066735822122051b22c8fb681a8803b38323a117412649a2d93910478b3db217bea655ab23dfd64736f6c63430008130033",
  "immutableReferences": {},
  "source": "// SPDX-License-Identifier: MIT\npragma solidity >=0.4.22 <0.8.20;\nimport \"./IBlindBox.sol\";\nimport \"./BlindBoxContract.sol\";\nimport \"./IGamblingContractFactory.sol\";\n\n//\ncontract GamblingContractFactory is IGamblingContractFactory {\n    mapping(address => BlindBoxContract) public contractIndexer;\n    mapping(address => address[]) public dealerIndexer;\n    address[] private dealerKeys;\n    address private root;\n\n    constructor() {\n        root = msg.sender;\n    }\n\n    modifier onlyRoot() {\n        require(root == msg.sender, \"Only root can call this.\");\n        _;\n    }\n\n    function enumDealer() public view override returns (address[] memory) {\n        return dealerKeys;\n    }\n\n    function createBlindBoxContract(\n        address _dealer,\n        uint8 _luckyCount\n    ) external override onlyRoot returns (address) {\n        BlindBoxContract blindBox = new BlindBoxContract(_dealer, _luckyCount);\n        address blindBoxAddress = address(blindBox);\n        contractIndexer[blindBoxAddress] = blindBox;\n        address[] storage contractAddressArr = dealerIndexer[_dealer];\n        contractAddressArr.push(blindBoxAddress);\n        dealerKeys.push(_dealer);\n        CreateGamblingContractMessage\n            memory cgcm = CreateGamblingContractMessage(\n                blindBoxAddress,\n                msg.sender,\n                _dealer,\n                _luckyCount\n            );\n\n        emit OnCreateGamblingContract(cgcm);\n        return blindBoxAddress;\n    }\n}\n",
  "sourcePath": "/Users/cj/worktemp/truffle-test2/contracts/GamblingContractFactory.sol",
  "compiler": {
    "name": "solc",
    "version": "0.8.19+commit.7dd6d404.Emscripten.clang"
  },
  "schemaVersion": "3.4.14",
  "updatedAt": "2023-08-09T16:23:48.424Z",
  "networkType": "ethereum",
  "devdoc": {
    "kind": "dev",
    "methods": {},
    "version": 1
  },
  "userdoc": {
    "kind": "user",
    "methods": {},
    "version": 1
  }
}