{
  "contractName": "GamblingContractFactory",
  "abi": [
    {
      "inputs": [],
      "stateMutability": "nonpayable",
      "type": "constructor"
    },
    {
      "anonymous": false,
      "inputs": [
        {
          "components": [
            {
              "internalType": "address",
              "name": "contractAddress",
              "type": "address"
            },
            {
              "internalType": "address",
              "name": "root",
              "type": "address"
            },
            {
              "internalType": "address",
              "name": "dealer",
              "type": "address"
            },
            {
              "internalType": "uint8",
              "name": "luckyCount",
              "type": "uint8"
            }
          ],
          "indexed": false,
          "internalType": "struct CreateGamblingContractMessage",
          "name": "e",
          "type": "tuple"
        }
      ],
      "name": "OnCreateGamblingContract",
      "type": "event"
    },
    {
      "inputs": [
        {
          "internalType": "uint256",
          "name": "",
          "type": "uint256"
        }
      ],
      "name": "contracts",
      "outputs": [
        {
          "internalType": "address",
          "name": "",
          "type": "address"
        }
      ],
      "stateMutability": "view",
      "type": "function",
      "constant": true
    },
    {
      "inputs": [],
      "name": "root",
      "outputs": [
        {
          "internalType": "address",
          "name": "",
          "type": "address"
        }
      ],
      "stateMutability": "view",
      "type": "function",
      "constant": true
    },
    {
      "inputs": [],
      "name": "enumDealer",
      "outputs": [
        {
          "internalType": "address[]",
          "name": "",
          "type": "address[]"
        }
      ],
      "stateMutability": "view",
      "type": "function",
      "constant": true
    },
    {
      "inputs": [
        {
          "internalType": "address",
          "name": "dealer",
          "type": "address"
        }
      ],
      "name": "listContractOfDealer",
      "outputs": [
        {
          "internalType": "address[]",
          "name": "",
          "type": "address[]"
        }
      ],
      "stateMutability": "view",
      "type": "function",
      "constant": true
    },
    {
      "inputs": [
        {
          "internalType": "address",
          "name": "_dealer",
          "type": "address"
        },
        {
          "internalType": "uint8",
          "name": "_luckyCount",
          "type": "uint8"
        }
      ],
      "name": "createBlindBoxContract",
      "outputs": [
        {
          "internalType": "address",
          "name": "",
          "type": "address"
        }
      ],
      "stateMutability": "nonpayable",
      "type": "function"
    }
  ],
  "bytecode": "0x608060405234801561001057600080fd5b5033600360006101000a81548173ffffffffffffffffffffffffffffffffffffffff021916908373ffffffffffffffffffffffffffffffffffffffff160217905550613817806100616000396000f3fe60806040523480156200001157600080fd5b50600436106200005e5760003560e01c8063474da79a146200006357806364c5afbd1462000099578063b90c138814620000bb578063ebf0c71714620000f1578063ec9d06e91462000113575b600080fd5b6200008160048036038101906200007b919062000724565b62000149565b6040516200009091906200079b565b60405180910390f35b620000a362000189565b604051620000b2919062000886565b60405180910390f35b620000d96004803603810190620000d39190620008db565b62000219565b604051620000e8919062000886565b60405180910390f35b620000fb620002e8565b6040516200010a91906200079b565b60405180910390f35b6200013160048036038101906200012b91906200094b565b6200030e565b6040516200014091906200079b565b60405180910390f35b600081815481106200015a57600080fd5b906000526020600020016000915054906101000a900473ffffffffffffffffffffffffffffffffffffffff1681565b606060028054806020026020016040519081016040528092919081815260200182805480156200020f57602002820191906000526020600020905b8160009054906101000a900473ffffffffffffffffffffffffffffffffffffffff1673ffffffffffffffffffffffffffffffffffffffff1681526020019060010190808311620001c4575b5050505050905090565b6060600160008373ffffffffffffffffffffffffffffffffffffffff1673ffffffffffffffffffffffffffffffffffffffff168152602001908152602001600020805480602002602001604051908101604052809291908181526020018280548015620002dc57602002820191906000526020600020905b8160009054906101000a900473ffffffffffffffffffffffffffffffffffffffff1673ffffffffffffffffffffffffffffffffffffffff168152602001906001019080831162000291575b50505050509050919050565b600360009054906101000a900473ffffffffffffffffffffffffffffffffffffffff1681565b60003373ffffffffffffffffffffffffffffffffffffffff16600360009054906101000a900473ffffffffffffffffffffffffffffffffffffffff1673ffffffffffffffffffffffffffffffffffffffff1614620003a3576040517f08c379a00000000000000000000000000000000000000000000000000000000081526004016200039a90620009f3565b60405180910390fd5b6000600360009054906101000a900473ffffffffffffffffffffffffffffffffffffffff168484604051620003d890620006d6565b620003e69392919062000a26565b604051809103906000f08015801562000403573d6000803e3d6000fd5b50905060008190506000819080600181540180825580915050600190039060005260206000200160009091909190916101000a81548173ffffffffffffffffffffffffffffffffffffffff021916908373ffffffffffffffffffffffffffffffffffffffff1602179055506000600160008773ffffffffffffffffffffffffffffffffffffffff1673ffffffffffffffffffffffffffffffffffffffff168152602001908152602001600020905080829080600181540180825580915050600190039060005260206000200160009091909190916101000a81548173ffffffffffffffffffffffffffffffffffffffff021916908373ffffffffffffffffffffffffffffffffffffffff1602179055506000805b600280549050811015620005ba578773ffffffffffffffffffffffffffffffffffffffff166002828154811062000553576200055262000a63565b5b9060005260206000200160009054906101000a900473ffffffffffffffffffffffffffffffffffffffff1673ffffffffffffffffffffffffffffffffffffffff1603620005a45760019150620005ba565b8080620005b19062000ac1565b91505062000517565b508062000625576002879080600181540180825580915050600190039060005260206000200160009091909190916101000a81548173ffffffffffffffffffffffffffffffffffffffff021916908373ffffffffffffffffffffffffffffffffffffffff1602179055505b600060405180608001604052808573ffffffffffffffffffffffffffffffffffffffff1681526020013373ffffffffffffffffffffffffffffffffffffffff1681526020018973ffffffffffffffffffffffffffffffffffffffff1681526020018860ff1681525090507f7d9c1bb5cdfb7300aa73203786a326d741238cd3dc262698ccb17580b3cc352481604051620006c0919062000b7c565b60405180910390a1839550505050505092915050565b612c488062000b9a83390190565b600080fd5b6000819050919050565b620006fe81620006e9565b81146200070a57600080fd5b50565b6000813590506200071e81620006f3565b92915050565b6000602082840312156200073d576200073c620006e4565b5b60006200074d848285016200070d565b91505092915050565b600073ffffffffffffffffffffffffffffffffffffffff82169050919050565b6000620007838262000756565b9050919050565b620007958162000776565b82525050565b6000602082019050620007b260008301846200078a565b92915050565b600081519050919050565b600082825260208201905092915050565b6000819050602082019050919050565b620007ef8162000776565b82525050565b6000620008038383620007e4565b60208301905092915050565b6000602082019050919050565b60006200082982620007b8565b620008358185620007c3565b93506200084283620007d4565b8060005b83811015620008795781516200085d8882620007f5565b97506200086a836200080f565b92505060018101905062000846565b5085935050505092915050565b60006020820190508181036000830152620008a281846200081c565b905092915050565b620008b58162000776565b8114620008c157600080fd5b50565b600081359050620008d581620008aa565b92915050565b600060208284031215620008f457620008f3620006e4565b5b60006200090484828501620008c4565b91505092915050565b600060ff82169050919050565b62000925816200090d565b81146200093157600080fd5b50565b60008135905062000945816200091a565b92915050565b60008060408385031215620009655762000964620006e4565b5b60006200097585828601620008c4565b9250506020620009888582860162000934565b9150509250929050565b600082825260208201905092915050565b7f4f6e6c7920726f6f742063616e2063616c6c20746869732e0000000000000000600082015250565b6000620009db60188362000992565b9150620009e882620009a3565b602082019050919050565b6000602082019050818103600083015262000a0e81620009cc565b9050919050565b62000a20816200090d565b82525050565b600060608201905062000a3d60008301866200078a565b62000a4c60208301856200078a565b62000a5b604083018462000a15565b949350505050565b7f4e487b7100000000000000000000000000000000000000000000000000000000600052603260045260246000fd5b7f4e487b7100000000000000000000000000000000000000000000000000000000600052601160045260246000fd5b600062000ace82620006e9565b91507fffffffffffffffffffffffffffffffffffffffffffffffffffffffffffffffff820362000b035762000b0262000a92565b5b600182019050919050565b62000b19816200090d565b82525050565b60808201600082015162000b376000850182620007e4565b50602082015162000b4c6020850182620007e4565b50604082015162000b616040850182620007e4565b50606082015162000b76606085018262000b0e565b50505050565b600060808201905062000b93600083018462000b1f565b9291505056fe60806040526050600660006101000a81548161ffff021916908361ffff1602179055506014600660026101000a81548161ffff021916908361ffff1602179055506046600660046101000a81548161ffff021916908361ffff160217905550601e6006806101000a81548161ffff021916908361ffff1602179055503480156200008857600080fd5b5060405162002c4838038062002c488339818101604052810190620000ae91906200026a565b33600360006101000a81548173ffffffffffffffffffffffffffffffffffffffff021916908373ffffffffffffffffffffffffffffffffffffffff160217905550826000806101000a81548173ffffffffffffffffffffffffffffffffffffffff021916908373ffffffffffffffffffffffffffffffffffffffff16021790555081600160006101000a81548173ffffffffffffffffffffffffffffffffffffffff021916908373ffffffffffffffffffffffffffffffffffffffff16021790555080600360156101000a81548160ff021916908360ff1602179055506004600360146101000a81548160ff02191690836004811115620001b457620001b3620002c6565b5b0217905550505050620002f5565b600080fd5b600073ffffffffffffffffffffffffffffffffffffffff82169050919050565b6000620001f482620001c7565b9050919050565b6200020681620001e7565b81146200021257600080fd5b50565b6000815190506200022681620001fb565b92915050565b600060ff82169050919050565b62000244816200022c565b81146200025057600080fd5b50565b600081519050620002648162000239565b92915050565b600080600060608486031215620002865762000285620001c2565b5b6000620002968682870162000215565b9350506020620002a98682870162000215565b9250506040620002bc8682870162000253565b9150509250925092565b7f4e487b7100000000000000000000000000000000000000000000000000000000600052602160045260246000fd5b61294380620003056000396000f3fe6080604052600436106101855760003560e01c80634b21a2a7116100d1578063771a3a1d1161008a5780639cf6d1af116100645780639cf6d1af146107be578063c7922998146107e9578063f247e3de14610814578063ff4ffc981461083f57610392565b8063771a3a1d1461073d5780638bdff161146107685780638c2001b91461079357610392565b80634b21a2a7146106195780634e089900146106425780634f6a34f51461066d5780635c664672146106aa5780635ca1e165146106e757806373f44c2b1461071257610392565b8063233de1261161013e57806337a7b7d81161011857806337a7b7d81461057c57806339819f33146105865780633dd95366146105b1578063416281ed146105ee57610392565b8063233de126146104fb57806327e8ace0146105265780633308f42d1461055157610392565b8063062a7894146103d557806310b8d4d7146104005780631202ee311461043d57806312065fe01461046857806316ca3b78146104935780631865c57d146104d057610392565b366103925760006101bc600360159054906101000a900460ff1660ff1634476101ae91906119ec565b61086a90919063ffffffff16565b9050600060048111156101d2576101d1611a20565b5b600360149054906101000a900460ff1660048111156101f4576101f3611a20565b5b14610234576040517f08c379a000000000000000000000000000000000000000000000000000000000815260040161022b90611aac565b60405180910390fd5b80341015346040516020016102499190611b6a565b60405160208183030381529060405290610299576040517f08c379a00000000000000000000000000000000000000000000000000000000081526004016102909190611c0f565b60405180910390fd5b506001600360146101000a81548160ff021916908360048111156102c0576102bf611a20565b5b021790555033600260006101000a81548173ffffffffffffffffffffffffffffffffffffffff021916908373ffffffffffffffffffffffffffffffffffffffff16021790555060006040518060e001604052803373ffffffffffffffffffffffffffffffffffffffff168152602001600160ff16815260200160055481526020013481526020014781526020018381526020015a81525090507fd9ccab18f2b95ab95e3fa1dd8094672f096ad892e847a8c5a91fcfba5b1ddee4816040516103889190611d2b565b60405180910390a1005b60006103d3576040517f08c379a00000000000000000000000000000000000000000000000000000000081526004016103ca90611d92565b60405180910390fd5b005b3480156103e157600080fd5b506103ea6108b4565b6040516103f79190611dc1565b60405180910390f35b34801561040c57600080fd5b5061042760048036038101906104229190611f51565b6108e5565b6040516104349190611fc8565b60405180910390f35b34801561044957600080fd5b50610452610979565b60405161045f9190611ff2565b60405180910390f35b34801561047457600080fd5b5061047d61098c565b60405161048a9190611dc1565b60405180910390f35b34801561049f57600080fd5b506104ba60048036038101906104b59190612039565b610994565b6040516104c79190611fc8565b60405180910390f35b3480156104dc57600080fd5b506104e56109ab565b6040516104f291906120f0565b60405180910390f35b34801561050757600080fd5b506105106109c2565b60405161051d9190612128565b60405180910390f35b34801561053257600080fd5b5061053b6109d6565b6040516105489190611dc1565b60405180910390f35b34801561055d57600080fd5b506105666109fc565b6040516105739190612152565b60405180910390f35b610584610a26565b005b34801561059257600080fd5b5061059b610b73565b6040516105a89190612128565b60405180910390f35b3480156105bd57600080fd5b506105d860048036038101906105d39190611f51565b610b87565b6040516105e59190611dc1565b60405180910390f35b3480156105fa57600080fd5b50610603610cd5565b6040516106109190612128565b60405180910390f35b34801561062557600080fd5b50610640600480360381019061063b919061216d565b610d66565b005b34801561064e57600080fd5b50610657610ea6565b6040516106649190612128565b60405180910390f35b34801561067957600080fd5b50610694600480360381019061068f9190611f51565b610eba565b6040516106a19190611dc1565b60405180910390f35b3480156106b657600080fd5b506106d160048036038101906106cc9190611f51565b610ef5565b6040516106de9190611fc8565b60405180910390f35b3480156106f357600080fd5b506106fc611154565b6040516107099190612152565b60405180910390f35b34801561071e57600080fd5b5061072761117d565b6040516107349190611dc1565b60405180910390f35b34801561074957600080fd5b506107526111d0565b60405161075f9190612128565b60405180910390f35b34801561077457600080fd5b5061077d6111e2565b60405161078a9190611dc1565b60405180910390f35b34801561079f57600080fd5b506107a8611228565b6040516107b59190611dc1565b60405180910390f35b3480156107ca57600080fd5b506107d361127b565b6040516107e09190612152565b60405180910390f35b3480156107f557600080fd5b506107fe6112a5565b60405161080b9190611dc1565b60405180910390f35b34801561082057600080fd5b506108296112af565b6040516108369190611dc1565b60405180910390f35b34801561084b57600080fd5b506108546112e1565b6040516108619190611dc1565b60405180910390f35b60006108ac83836040518060400160405280601a81526020017f536166654d6174683a206469766973696f6e206279207a65726f0000000000008152506112eb565b905092915050565b6000806108dc600360159054906101000a900460ff1660ff164761086a90919063ffffffff16565b90508091505090565b6000600360048111156108fb576108fa611a20565b5b600360149054906101000a900460ff16600481111561091d5761091c611a20565b5b1461095d576040517f08c379a0000000000000000000000000000000000000000000000000000000008152600401610954906121e6565b60405180910390fd5b60006109698484610eba565b9050600554811491505092915050565b600360159054906101000a900460ff1681565b600047905090565b6000816109a18585610eba565b1490509392505050565b6000600360149054906101000a900460ff16905090565b600660009054906101000a900461ffff1681565b6000806109e1611228565b6109e961117d565b6109f391906119ec565b90508091505090565b6000600260009054906101000a900473ffffffffffffffffffffffffffffffffffffffff16905090565b60003411610a69576040517f08c379a0000000000000000000000000000000000000000000000000000000008152600401610a6090612252565b60405180910390fd5b60003447610a7791906119ec565b90506001600360146101000a81548160ff02191690836004811115610a9f57610a9e611a20565b5b021790555033600260006101000a81548173ffffffffffffffffffffffffffffffffffffffff021916908373ffffffffffffffffffffffffffffffffffffffff16021790555060006040518060e001604052803373ffffffffffffffffffffffffffffffffffffffff168152602001600260ff16815260200160055481526020013481526020014781526020018381526020015a81525090507fd9ccab18f2b95ab95e3fa1dd8094672f096ad892e847a8c5a91fcfba5b1ddee481604051610b679190611d2b565b60405180910390a15050565b600660049054906101000a900461ffff1681565b6000600260009054906101000a900473ffffffffffffffffffffffffffffffffffffffff1673ffffffffffffffffffffffffffffffffffffffff163373ffffffffffffffffffffffffffffffffffffffff1614610c19576040517f08c379a0000000000000000000000000000000000000000000000000000000008152600401610c10906122be565b60405180910390fd5b60016004811115610c2d57610c2c611a20565b5b600360149054906101000a900460ff166004811115610c4f57610c4e611a20565b5b14610c8f576040517f08c379a0000000000000000000000000000000000000000000000000000000008152600401610c869061232a565b60405180910390fd5b610c998383610eba565b6005819055506002600360146101000a81548160ff02191690836004811115610cc557610cc4611a20565b5b0217905550600554905092915050565b600080610d5d600360159054906101000a900460ff1660ff16610d4f6064610d41610d1e600660029054906101000a900461ffff1661ffff16606461134e90919063ffffffff16565b600660009054906101000a900461ffff1661ffff1661139890919063ffffffff16565b61086a90919063ffffffff16565b61139890919063ffffffff16565b90508091505090565b60008054906101000a900473ffffffffffffffffffffffffffffffffffffffff1673ffffffffffffffffffffffffffffffffffffffff163373ffffffffffffffffffffffffffffffffffffffff1614610df4576040517f08c379a0000000000000000000000000000000000000000000000000000000008152600401610deb90612396565b60405180910390fd5b600480811115610e0757610e06611a20565b5b600360149054906101000a900460ff166004811115610e2957610e28611a20565b5b14610e69576040517f08c379a0000000000000000000000000000000000000000000000000000000008152600401610e6090612402565b60405180910390fd5b8060048190555060006005819055506000600360146101000a81548160ff02191690836004811115610e9e57610e9d611a20565b5b021790555050565b600660029054906101000a900461ffff1681565b6000808383604051602001610ed0929190612489565b6040516020818303038152906040528051906020012090508060001c91505092915050565b60008060009054906101000a900473ffffffffffffffffffffffffffffffffffffffff1673ffffffffffffffffffffffffffffffffffffffff163373ffffffffffffffffffffffffffffffffffffffff1614610f86576040517f08c379a0000000000000000000000000000000000000000000000000000000008152600401610f7d90612396565b60405180910390fd5b60026004811115610f9a57610f99611a20565b5b600360149054906101000a900460ff166004811115610fbc57610fbb611a20565b5b14610ffc576040517f08c379a0000000000000000000000000000000000000000000000000000000008152600401610ff3906124fd565b60405180910390fd5b60038060146101000a81548160ff0219169083600481111561102157611020611a20565b5b0217905550600061103284846108e5565b905060006040518060a00160405280600260009054906101000a900473ffffffffffffffffffffffffffffffffffffffff1673ffffffffffffffffffffffffffffffffffffffff1681526020018315158152602001600554815260200160045481526020014281525090507f0af486f5a46f35bda92314e1385dd240666fc078e948bd192e25443265146e97816040516110cc9190612594565b60405180910390a16110dc611412565b6000600260006101000a81548173ffffffffffffffffffffffffffffffffffffffff021916908373ffffffffffffffffffffffffffffffffffffffff1602179055506004600360146101000a81548160ff0219169083600481111561114457611143611a20565b5b0217905550819250505092915050565b60008060009054906101000a900473ffffffffffffffffffffffffffffffffffffffff16905090565b6000806111886111e2565b905060006111c660646111b8600660029054906101000a900461ffff1661ffff168561139890919063ffffffff16565b61086a90919063ffffffff16565b9050809250505090565b60068054906101000a900461ffff1681565b60008061121f6064611211600660009054906101000a900461ffff1661ffff164761139890919063ffffffff16565b61086a90919063ffffffff16565b90508091505090565b60008061123361117d565b905060006112716064611263600660049054906101000a900461ffff1661ffff168561139890919063ffffffff16565b61086a90919063ffffffff16565b9050809250505090565b6000600160009054906101000a900473ffffffffffffffffffffffffffffffffffffffff16905090565b6000600454905090565b6000806112ba6111e2565b905060006112c661117d565b9050600081836112d691906119ec565b905080935050505090565b6000600554905090565b60008083118290611332576040517f08c379a00000000000000000000000000000000000000000000000000000000081526004016113299190611c0f565b60405180910390fd5b506000838561134191906125de565b9050809150509392505050565b600061139083836040518060400160405280601e81526020017f536166654d6174683a207375627472616374696f6e206f766572666c6f77000081525061194f565b905092915050565b60008083036113aa576000905061140c565b600082846113b8919061260f565b90508284826113c791906125de565b14611407576040517f08c379a00000000000000000000000000000000000000000000000000000000081526004016113fe906126c3565b60405180910390fd5b809150505b92915050565b600061141c6108b4565b905060006114286111e2565b9050600061143461117d565b90506000611440611228565b9050600061144c6109d6565b905060006114586112af565b90506000600260009054906101000a900473ffffffffffffffffffffffffffffffffffffffff1673ffffffffffffffffffffffffffffffffffffffff1682600067ffffffffffffffff8111156114b1576114b0611e26565b5b6040519080825280601f01601f1916602001820160405280156114e35781602001600182028036833780820191505090505b506040516114f1919061272a565b60006040518083038185875af1925050503d806000811461152e576040519150601f19603f3d011682016040523d82523d6000602084013e611533565b606091505b5050905080611577576040517f08c379a000000000000000000000000000000000000000000000000000000000815260040161156e9061278d565b60405180910390fd5b6000600160009054906101000a900473ffffffffffffffffffffffffffffffffffffffff1673ffffffffffffffffffffffffffffffffffffffff1685600067ffffffffffffffff8111156115ce576115cd611e26565b5b6040519080825280601f01601f1916602001820160405280156116005781602001600182028036833780820191505090505b5060405161160e919061272a565b60006040518083038185875af1925050503d806000811461164b576040519150601f19603f3d011682016040523d82523d6000602084013e611650565b606091505b5050905080611694576040517f08c379a000000000000000000000000000000000000000000000000000000000815260040161168b9061278d565b60405180910390fd5b60008060009054906101000a900473ffffffffffffffffffffffffffffffffffffffff1673ffffffffffffffffffffffffffffffffffffffff1685600067ffffffffffffffff8111156116ea576116e9611e26565b5b6040519080825280601f01601f19166020018201604052801561171c5781602001600182028036833780820191505090505b5060405161172a919061272a565b60006040518083038185875af1925050503d8060008114611767576040519150601f19603f3d011682016040523d82523d6000602084013e61176c565b606091505b50509050806117b0576040517f08c379a00000000000000000000000000000000000000000000000000000000081526004016117a79061278d565b60405180910390fd5b6000604051806101e00160405280600260009054906101000a900473ffffffffffffffffffffffffffffffffffffffff1673ffffffffffffffffffffffffffffffffffffffff168152602001600160009054906101000a900473ffffffffffffffffffffffffffffffffffffffff1673ffffffffffffffffffffffffffffffffffffffff16815260200160008054906101000a900473ffffffffffffffffffffffffffffffffffffffff1673ffffffffffffffffffffffffffffffffffffffff168152602001600660009054906101000a900461ffff1661ffff168152602001600660029054906101000a900461ffff1661ffff168152602001600660049054906101000a900461ffff1661ffff16815260200160068054906101000a900461ffff1661ffff1681526020014781526020018b81526020018a81526020018981526020018881526020018781526020018681526020014281525090507f1c73e8440cdc2c2c071f5e653040d672398aade8f0294ee0579ec874e3fcc1d88160405161193b91906128f1565b60405180910390a150505050505050505050565b6000838311158290611997576040517f08c379a000000000000000000000000000000000000000000000000000000000815260040161198e9190611c0f565b60405180910390fd5b50600083856119a691906119ec565b9050809150509392505050565b6000819050919050565b7f4e487b7100000000000000000000000000000000000000000000000000000000600052601160045260246000fd5b60006119f7826119b3565b9150611a02836119b3565b9250828203905081811115611a1a57611a196119bd565b5b92915050565b7f4e487b7100000000000000000000000000000000000000000000000000000000600052602160045260246000fd5b600082825260208201905092915050565b7f63616e6e6f742062652062657400000000000000000000000000000000000000600082015250565b6000611a96600d83611a4f565b9150611aa182611a60565b602082019050919050565b60006020820190508181036000830152611ac581611a89565b9050919050565b600081905092915050565b7f5468652062657474696e6720616d6f756e742073686f756c642062652061742060008201527f6c65617374200000000000000000000000000000000000000000000000000000602082015250565b6000611b33602683611acc565b9150611b3e82611ad7565b602682019050919050565b6000819050919050565b611b64611b5f826119b3565b611b49565b82525050565b6000611b7582611b26565b9150611b818284611b53565b60208201915081905092915050565b600081519050919050565b60005b83811015611bb9578082015181840152602081019050611b9e565b60008484015250505050565b6000601f19601f8301169050919050565b6000611be182611b90565b611beb8185611a4f565b9350611bfb818560208601611b9b565b611c0481611bc5565b840191505092915050565b60006020820190508181036000830152611c298184611bd6565b905092915050565b600073ffffffffffffffffffffffffffffffffffffffff82169050919050565b6000611c5c82611c31565b9050919050565b611c6c81611c51565b82525050565b600060ff82169050919050565b611c8881611c72565b82525050565b611c97816119b3565b82525050565b60e082016000820151611cb36000850182611c63565b506020820151611cc66020850182611c7f565b506040820151611cd96040850182611c8e565b506060820151611cec6060850182611c8e565b506080820151611cff6080850182611c8e565b5060a0820151611d1260a0850182611c8e565b5060c0820151611d2560c0850182611c8e565b50505050565b600060e082019050611d406000830184611c9d565b92915050565b7f4e6f206f746865722063616c6c7320737570706f727465640000000000000000600082015250565b6000611d7c601883611a4f565b9150611d8782611d46565b602082019050919050565b60006020820190508181036000830152611dab81611d6f565b9050919050565b611dbb816119b3565b82525050565b6000602082019050611dd66000830184611db2565b92915050565b6000604051905090565b600080fd5b600080fd5b611df981611c72565b8114611e0457600080fd5b50565b600081359050611e1681611df0565b92915050565b600080fd5b600080fd5b7f4e487b7100000000000000000000000000000000000000000000000000000000600052604160045260246000fd5b611e5e82611bc5565b810181811067ffffffffffffffff82111715611e7d57611e7c611e26565b5b80604052505050565b6000611e90611ddc565b9050611e9c8282611e55565b919050565b600067ffffffffffffffff821115611ebc57611ebb611e26565b5b611ec582611bc5565b9050602081019050919050565b82818337600083830152505050565b6000611ef4611eef84611ea1565b611e86565b905082815260208101848484011115611f1057611f0f611e21565b5b611f1b848285611ed2565b509392505050565b600082601f830112611f3857611f37611e1c565b5b8135611f48848260208601611ee1565b91505092915050565b60008060408385031215611f6857611f67611de6565b5b6000611f7685828601611e07565b925050602083013567ffffffffffffffff811115611f9757611f96611deb565b5b611fa385828601611f23565b9150509250929050565b60008115159050919050565b611fc281611fad565b82525050565b6000602082019050611fdd6000830184611fb9565b92915050565b611fec81611c72565b82525050565b60006020820190506120076000830184611fe3565b92915050565b612016816119b3565b811461202157600080fd5b50565b6000813590506120338161200d565b92915050565b60008060006060848603121561205257612051611de6565b5b600061206086828701611e07565b935050602084013567ffffffffffffffff81111561208157612080611deb565b5b61208d86828701611f23565b925050604061209e86828701612024565b9150509250925092565b600581106120b9576120b8611a20565b5b50565b60008190506120ca826120a8565b919050565b60006120da826120bc565b9050919050565b6120ea816120cf565b82525050565b600060208201905061210560008301846120e1565b92915050565b600061ffff82169050919050565b6121228161210b565b82525050565b600060208201905061213d6000830184612119565b92915050565b61214c81611c51565b82525050565b60006020820190506121676000830184612143565b92915050565b60006020828403121561218357612182611de6565b5b600061219184828501612024565b91505092915050565b7f7878780000000000000000000000000000000000000000000000000000000000600082015250565b60006121d0600383611a4f565b91506121db8261219a565b602082019050919050565b600060208201905081810360008301526121ff816121c3565b9050919050565b7f46656564696e672063616e6e6f74206265207a65726f00000000000000000000600082015250565b600061223c601683611a4f565b915061224782612206565b602082019050919050565b6000602082019050818103600083015261226b8161222f565b9050919050565b7f4e6f7420612062657474696e6720706c61796572000000000000000000000000600082015250565b60006122a8601483611a4f565b91506122b382612272565b602082019050919050565b600060208201905081810360008301526122d78161229b565b9050919050565b7f426574206e6f7420706169640000000000000000000000000000000000000000600082015250565b6000612314600c83611a4f565b915061231f826122de565b602082019050919050565b6000602082019050818103600083015261234381612307565b9050919050565b7f4f6e6c7920726f6f742063616e2063616c6c20746869732e0000000000000000600082015250565b6000612380601883611a4f565b915061238b8261234a565b602082019050919050565b600060208201905081810360008301526123af81612373565b9050919050565b7f7878000000000000000000000000000000000000000000000000000000000000600082015250565b60006123ec600283611a4f565b91506123f7826123b6565b602082019050919050565b6000602082019050818103600083015261241b816123df565b9050919050565b60008160f81b9050919050565b600061243a82612422565b9050919050565b61245261244d82611c72565b61242f565b82525050565b600061246382611b90565b61246d8185611acc565b935061247d818560208601611b9b565b80840191505092915050565b60006124958285612441565b6001820191506124a58284612458565b91508190509392505050565b7f426574206e6f7420636f6d706c65746564000000000000000000000000000000600082015250565b60006124e7601183611a4f565b91506124f2826124b1565b602082019050919050565b60006020820190508181036000830152612516816124da565b9050919050565b61252681611fad565b82525050565b60a0820160008201516125426000850182611c63565b506020820151612555602085018261251d565b5060408201516125686040850182611c8e565b50606082015161257b6060850182611c8e565b50608082015161258e6080850182611c8e565b50505050565b600060a0820190506125a9600083018461252c565b92915050565b7f4e487b7100000000000000000000000000000000000000000000000000000000600052601260045260246000fd5b60006125e9826119b3565b91506125f4836119b3565b925082612604576126036125af565b5b828204905092915050565b600061261a826119b3565b9150612625836119b3565b9250828202612633816119b3565b9150828204841483151761264a576126496119bd565b5b5092915050565b7f536166654d6174683a206d756c7469706c69636174696f6e206f766572666c6f60008201527f7700000000000000000000000000000000000000000000000000000000000000602082015250565b60006126ad602183611a4f565b91506126b882612651565b604082019050919050565b600060208201905081810360008301526126dc816126a0565b9050919050565b600081519050919050565b600081905092915050565b6000612704826126e3565b61270e81856126ee565b935061271e818560208601611b9b565b80840191505092915050565b600061273682846126f9565b915081905092915050565b7f4554485f5452414e534645525f4641494c454400000000000000000000000000600082015250565b6000612777601383611a4f565b915061278282612741565b602082019050919050565b600060208201905081810360008301526127a68161276a565b9050919050565b6127b68161210b565b82525050565b6101e0820160008201516127d36000850182611c63565b5060208201516127e66020850182611c63565b5060408201516127f96040850182611c63565b50606082015161280c60608501826127ad565b50608082015161281f60808501826127ad565b5060a082015161283260a08501826127ad565b5060c082015161284560c08501826127ad565b5060e082015161285860e0850182611c8e565b5061010082015161286d610100850182611c8e565b50610120820151612882610120850182611c8e565b50610140820151612897610140850182611c8e565b506101608201516128ac610160850182611c8e565b506101808201516128c1610180850182611c8e565b506101a08201516128d66101a0850182611c8e565b506101c08201516128eb6101c0850182611c8e565b50505050565b60006101e08201905061290760008301846127bc565b9291505056fea26469706673582212207b59fcf6fb8a7877bef3e719758e0be70fb970319dbd5e075d764b782074a75f64736f6c63430008130033a2646970667358221220a71c9ec9d1b359fb9d6e7379a1b660c3529251a06a6ff33c89740f0089a68b7964736f6c63430008130033",
  "immutableReferences": {},
  "source": "// SPDX-License-Identifier: MIT\npragma solidity >=0.4.22 <0.8.20;\nimport \"./IBlindBox.sol\";\nimport \"./BlindBoxContract.sol\";\nimport \"./IGamblingContractFactory.sol\";\n\n/**\n * @dev\n * Game contract factory, used by operators to apply for blind boxes.\n */\ncontract GamblingContractFactory is IGamblingContractFactory {\n    address[] public contracts;\n    mapping(address => address[]) private dealerIndexer;\n    address[] private dealerKeys;\n    address public root;\n\n    constructor() {\n        root = msg.sender;\n    }\n\n    modifier onlyRoot() {\n        require(root == msg.sender, \"Only root can call this.\");\n        _;\n    }\n\n    function enumDealer() public view override returns (address[] memory) {\n        return dealerKeys;\n    }\n\n    function listContractOfDealer(\n        address dealer\n    ) public view override returns (address[] memory) {\n        return dealerIndexer[dealer];\n    }\n\n    function createBlindBoxContract(\n        address _dealer,\n        uint8 _luckyCount\n    ) external override onlyRoot returns (address) {\n        BlindBoxContract blindBox = new BlindBoxContract(\n            root,\n            _dealer,\n            _luckyCount\n        );\n        address blindBoxAddress = address(blindBox);\n        contracts.push(blindBoxAddress);\n        address[] storage contractAddressArr = dealerIndexer[_dealer];\n        contractAddressArr.push(blindBoxAddress);\n        bool foundKey = false;\n        for (uint i = 0; i < dealerKeys.length; i++) {\n            if (dealerKeys[i] == _dealer) {\n                foundKey = true;\n                break;\n            }\n        }\n        if (!foundKey) {\n            dealerKeys.push(_dealer);\n        }\n        CreateGamblingContractMessage\n            memory cgcm = CreateGamblingContractMessage(\n                blindBoxAddress,\n                msg.sender,\n                _dealer,\n                _luckyCount\n            );\n\n        emit OnCreateGamblingContract(cgcm);\n        return blindBoxAddress;\n    }\n}\n",
  "sourcePath": "/Users/cj/worktemp/truffle-test2/contracts/GamblingContractFactory.sol",
  "compiler": {
    "name": "solc",
    "version": "0.8.19+commit.7dd6d404.Emscripten.clang"
  },
  "schemaVersion": "3.4.14",
  "updatedAt": "2023-08-12T15:18:14.779Z",
  "networkType": "ethereum",
  "devdoc": {
    "details": "Game contract factory, used by operators to apply for blind boxes.",
    "kind": "dev",
    "methods": {},
    "version": 1
  },
  "userdoc": {
    "kind": "user",
    "methods": {},
    "version": 1
  }
}