{
  "contractName": "GamblingContractFactory",
  "abi": [
    {
      "inputs": [],
      "stateMutability": "nonpayable",
      "type": "constructor"
    },
    {
      "anonymous": false,
      "inputs": [
        {
          "components": [
            {
              "internalType": "address",
              "name": "contractAddress",
              "type": "address"
            },
            {
              "internalType": "address",
              "name": "root",
              "type": "address"
            },
            {
              "internalType": "address",
              "name": "dealer",
              "type": "address"
            },
            {
              "internalType": "uint8",
              "name": "luckyCount",
              "type": "uint8"
            },
            {
              "components": [
                {
                  "internalType": "bool",
                  "name": "isAllow",
                  "type": "bool"
                },
                {
                  "internalType": "uint8",
                  "name": "payMode",
                  "type": "uint8"
                },
                {
                  "internalType": "uint256",
                  "name": "time",
                  "type": "uint256"
                }
              ],
              "internalType": "struct ApplyRights",
              "name": "rights",
              "type": "tuple"
            }
          ],
          "indexed": false,
          "internalType": "struct CreateGamblingContractMessage",
          "name": "e",
          "type": "tuple"
        }
      ],
      "name": "OnCreateGamblingContract",
      "type": "event"
    },
    {
      "stateMutability": "payable",
      "type": "fallback",
      "payable": true
    },
    {
      "inputs": [
        {
          "internalType": "uint256",
          "name": "",
          "type": "uint256"
        }
      ],
      "name": "contracts",
      "outputs": [
        {
          "internalType": "address",
          "name": "",
          "type": "address"
        }
      ],
      "stateMutability": "view",
      "type": "function",
      "constant": true
    },
    {
      "inputs": [],
      "name": "root",
      "outputs": [
        {
          "internalType": "address",
          "name": "",
          "type": "address"
        }
      ],
      "stateMutability": "view",
      "type": "function",
      "constant": true
    },
    {
      "stateMutability": "payable",
      "type": "receive",
      "payable": true
    },
    {
      "inputs": [
        {
          "internalType": "address",
          "name": "dealer",
          "type": "address"
        }
      ],
      "name": "getApplyRights",
      "outputs": [
        {
          "components": [
            {
              "internalType": "bool",
              "name": "isAllow",
              "type": "bool"
            },
            {
              "internalType": "uint8",
              "name": "payMode",
              "type": "uint8"
            },
            {
              "internalType": "uint256",
              "name": "time",
              "type": "uint256"
            }
          ],
          "internalType": "struct ApplyRights",
          "name": "",
          "type": "tuple"
        }
      ],
      "stateMutability": "view",
      "type": "function",
      "constant": true
    },
    {
      "inputs": [
        {
          "internalType": "address",
          "name": "dealer",
          "type": "address"
        }
      ],
      "name": "isPaidOfDealer",
      "outputs": [
        {
          "internalType": "bool",
          "name": "",
          "type": "bool"
        }
      ],
      "stateMutability": "view",
      "type": "function",
      "constant": true
    },
    {
      "inputs": [
        {
          "internalType": "address",
          "name": "dealer",
          "type": "address"
        }
      ],
      "name": "isValidDealer",
      "outputs": [
        {
          "internalType": "bool",
          "name": "",
          "type": "bool"
        }
      ],
      "stateMutability": "view",
      "type": "function",
      "constant": true
    },
    {
      "inputs": [
        {
          "internalType": "address",
          "name": "dealer",
          "type": "address"
        }
      ],
      "name": "isExpired",
      "outputs": [
        {
          "internalType": "bool",
          "name": "",
          "type": "bool"
        },
        {
          "internalType": "uint8",
          "name": "",
          "type": "uint8"
        }
      ],
      "stateMutability": "view",
      "type": "function",
      "constant": true
    },
    {
      "inputs": [],
      "name": "getDealerCount",
      "outputs": [
        {
          "internalType": "uint256",
          "name": "",
          "type": "uint256"
        }
      ],
      "stateMutability": "view",
      "type": "function",
      "constant": true
    },
    {
      "inputs": [],
      "name": "getBlindboxCount",
      "outputs": [
        {
          "internalType": "uint256",
          "name": "",
          "type": "uint256"
        }
      ],
      "stateMutability": "view",
      "type": "function",
      "constant": true
    },
    {
      "inputs": [],
      "name": "getBalance",
      "outputs": [
        {
          "internalType": "uint256",
          "name": "",
          "type": "uint256"
        }
      ],
      "stateMutability": "view",
      "type": "function",
      "constant": true
    },
    {
      "inputs": [],
      "name": "getAddress",
      "outputs": [
        {
          "internalType": "address",
          "name": "",
          "type": "address"
        }
      ],
      "stateMutability": "view",
      "type": "function",
      "constant": true
    },
    {
      "inputs": [],
      "name": "getAnnualFee",
      "outputs": [
        {
          "internalType": "uint256",
          "name": "",
          "type": "uint256"
        }
      ],
      "stateMutability": "view",
      "type": "function",
      "constant": true
    },
    {
      "inputs": [],
      "name": "getMonthlyFee",
      "outputs": [
        {
          "internalType": "uint256",
          "name": "",
          "type": "uint256"
        }
      ],
      "stateMutability": "view",
      "type": "function",
      "constant": true
    },
    {
      "inputs": [
        {
          "internalType": "uint256",
          "name": "_annualFee",
          "type": "uint256"
        }
      ],
      "name": "setAnnualFee",
      "outputs": [],
      "stateMutability": "nonpayable",
      "type": "function"
    },
    {
      "inputs": [
        {
          "internalType": "uint256",
          "name": "_monthlyFee",
          "type": "uint256"
        }
      ],
      "name": "setMonthlyFee",
      "outputs": [],
      "stateMutability": "nonpayable",
      "type": "function"
    },
    {
      "inputs": [],
      "name": "enumDealer",
      "outputs": [
        {
          "internalType": "address[]",
          "name": "",
          "type": "address[]"
        }
      ],
      "stateMutability": "view",
      "type": "function",
      "constant": true
    },
    {
      "inputs": [
        {
          "internalType": "address",
          "name": "dealer",
          "type": "address"
        }
      ],
      "name": "listContractOfDealer",
      "outputs": [
        {
          "internalType": "address[]",
          "name": "",
          "type": "address[]"
        }
      ],
      "stateMutability": "view",
      "type": "function",
      "constant": true
    },
    {
      "inputs": [
        {
          "internalType": "address",
          "name": "_dealer",
          "type": "address"
        },
        {
          "internalType": "uint8",
          "name": "_luckyCount",
          "type": "uint8"
        }
      ],
      "name": "createBlindBoxContract",
      "outputs": [
        {
          "internalType": "address",
          "name": "",
          "type": "address"
        }
      ],
      "stateMutability": "nonpayable",
      "type": "function"
    },
    {
      "inputs": [],
      "name": "withdraw",
      "outputs": [],
      "stateMutability": "payable",
      "type": "function",
      "payable": true
    },
    {
      "inputs": [],
      "name": "recMothlyFee",
      "outputs": [],
      "stateMutability": "payable",
      "type": "function",
      "payable": true
    }
  ],
  "bytecode": "0x6080604052673a4965bf58a4000060055567058d15e17628000060065534801561002857600080fd5b5033600360006101000a81548173ffffffffffffffffffffffffffffffffffffffff021916908373ffffffffffffffffffffffffffffffffffffffff1602179055506158aa806100796000396000f3fe608060405260043610620001335760003560e01c806388b89a7d11620000af578063ba2eb541116200006d578063ba2eb5411462000519578063be8fabd3146200055e578063cca746df14620005a2578063ebf0c71714620005d2578063ec9d06e91462000602576200022f565b806388b89a7d14620004055780639c2d708e1462000433578063acd3f8be1462000477578063ad450f2a14620004a7578063b90c138814620004d5576200022f565b80633ccfd60b11620000fd5780633ccfd60b1462000325578063474da79a1462000331578063485327671462000375578063521028e414620003a557806364c5afbd14620003d5576200022f565b806312065fe014620002755780631bd7d4ce14620002a55780631ec2277814620002e957806338cc483114620002f5576200022f565b366200022f5760055434101562000181576040517f08c379a000000000000000000000000000000000000000000000000000000000815260040162000178906200170e565b60405180910390fd5b6040518060600160405280600115158152602001600160ff16815260200142815250600460003373ffffffffffffffffffffffffffffffffffffffff1673ffffffffffffffffffffffffffffffffffffffff16815260200190815260200160002060008201518160000160006101000a81548160ff02191690831515021790555060208201518160000160016101000a81548160ff021916908360ff16021790555060408201518160010155005b600062000273576040517f08c379a00000000000000000000000000000000000000000000000000000000081526004016200026a9062001780565b60405180910390fd5b005b3480156200028257600080fd5b506200028d62000646565b6040516200029c9190620017bd565b60405180910390f35b348015620002b257600080fd5b50620002d16004803603810190620002cb919062001844565b6200064e565b604051620002e0919062001893565b60405180910390f35b620002f3620006f0565b005b3480156200030257600080fd5b506200030d620007e9565b6040516200031c9190620018c1565b60405180910390f35b6200032f620007f1565b005b3480156200033e57600080fd5b506200035d60048036038101906200035791906200190f565b620009af565b6040516200036c9190620018c1565b60405180910390f35b3480156200038257600080fd5b506200038d620009ef565b6040516200039c9190620017bd565b60405180910390f35b348015620003b257600080fd5b50620003bd620009f9565b604051620003cc9190620017bd565b60405180910390f35b348015620003e257600080fd5b50620003ed62000b59565b604051620003fc919062001a0f565b60405180910390f35b3480156200041257600080fd5b506200043160048036038101906200042b91906200190f565b62000be9565b005b3480156200044057600080fd5b506200045f600480360381019062000459919062001844565b62000ccc565b6040516200046e919062001893565b60405180910390f35b3480156200048457600080fd5b506200048f62000da6565b6040516200049e9190620017bd565b60405180910390f35b348015620004b457600080fd5b50620004d36004803603810190620004cd91906200190f565b62000db3565b005b348015620004e257600080fd5b50620005016004803603810190620004fb919062001844565b62000e96565b60405162000510919062001a0f565b60405180910390f35b3480156200052657600080fd5b506200054560048036038101906200053f919062001844565b62000f65565b6040516200055592919062001a51565b60405180910390f35b3480156200056b57600080fd5b506200058a600480360381019062000584919062001844565b6200107d565b60405162000599919062001af9565b60405180910390f35b348015620005af57600080fd5b50620005ba6200111a565b604051620005c99190620017bd565b60405180910390f35b348015620005df57600080fd5b50620005ea62001124565b604051620005f99190620018c1565b60405180910390f35b3480156200060f57600080fd5b506200062e600480360381019062000628919062001b47565b6200114a565b6040516200063d9190620018c1565b60405180910390f35b600047905090565b600080600460008473ffffffffffffffffffffffffffffffffffffffff1673ffffffffffffffffffffffffffffffffffffffff1681526020019081526020016000206040518060600160405290816000820160009054906101000a900460ff161515151581526020016000820160019054906101000a900460ff1660ff1660ff1681526020016001820154815250509050600081604001511415915050919050565b60065434101562000738576040517f08c379a00000000000000000000000000000000000000000000000000000000081526004016200072f9062001c04565b60405180910390fd5b6040518060600160405280600115158152602001600260ff16815260200142815250600460003373ffffffffffffffffffffffffffffffffffffffff1673ffffffffffffffffffffffffffffffffffffffff16815260200190815260200160002060008201518160000160006101000a81548160ff02191690831515021790555060208201518160000160016101000a81548160ff021916908360ff16021790555060408201518160010155905050565b600030905090565b3373ffffffffffffffffffffffffffffffffffffffff16600360009054906101000a900473ffffffffffffffffffffffffffffffffffffffff1673ffffffffffffffffffffffffffffffffffffffff161462000884576040517f08c379a00000000000000000000000000000000000000000000000000000000081526004016200087b9062001c76565b60405180910390fd5b6000600360009054906101000a900473ffffffffffffffffffffffffffffffffffffffff1673ffffffffffffffffffffffffffffffffffffffff1647600067ffffffffffffffff811115620008de57620008dd62001c98565b5b6040519080825280601f01601f191660200182016040528015620009115781602001600182028036833780820191505090505b5060405162000921919062001d40565b60006040518083038185875af1925050503d806000811462000960576040519150601f19603f3d011682016040523d82523d6000602084013e62000965565b606091505b5050905080620009ac576040517f08c379a0000000000000000000000000000000000000000000000000000000008152600401620009a39062001da9565b60405180910390fd5b50565b60008181548110620009c057600080fd5b906000526020600020016000915054906101000a900473ffffffffffffffffffffffffffffffffffffffff1681565b6000600654905090565b6000806000905060005b60028054905081101562000b515760006002828154811062000a2a5762000a2962001dcb565b5b9060005260206000200160009054906101000a900473ffffffffffffffffffffffffffffffffffffffff1690506000600160008373ffffffffffffffffffffffffffffffffffffffff1673ffffffffffffffffffffffffffffffffffffffff16815260200190815260200160002080548060200260200160405190810160405280929190818152602001828054801562000b1a57602002820191906000526020600020905b8160009054906101000a900473ffffffffffffffffffffffffffffffffffffffff1673ffffffffffffffffffffffffffffffffffffffff168152602001906001019080831162000acf575b5050505050905062000b37815185620015f090919063ffffffff16565b93505050808062000b489062001e29565b91505062000a03565b508091505090565b6060600280548060200260200160405190810160405280929190818152602001828054801562000bdf57602002820191906000526020600020905b8160009054906101000a900473ffffffffffffffffffffffffffffffffffffffff1673ffffffffffffffffffffffffffffffffffffffff168152602001906001019080831162000b94575b5050505050905090565b3373ffffffffffffffffffffffffffffffffffffffff16600360009054906101000a900473ffffffffffffffffffffffffffffffffffffffff1673ffffffffffffffffffffffffffffffffffffffff161462000c7c576040517f08c379a000000000000000000000000000000000000000000000000000000000815260040162000c739062001c76565b60405180910390fd5b6000811162000cc2576040517f08c379a000000000000000000000000000000000000000000000000000000000815260040162000cb99062001ec6565b60405180910390fd5b8060058190555050565b600080600460008473ffffffffffffffffffffffffffffffffffffffff1673ffffffffffffffffffffffffffffffffffffffff1681526020019081526020016000206040518060600160405290816000820160009054906101000a900460ff161515151581526020016000820160019054906101000a900460ff1660ff1660ff1681526020016001820154815250509050806000015162000d7257600091505062000da1565b600081604001510362000d8a57600091505062000da1565b600062000d978462000f65565b5090508015925050505b919050565b6000600280549050905090565b3373ffffffffffffffffffffffffffffffffffffffff16600360009054906101000a900473ffffffffffffffffffffffffffffffffffffffff1673ffffffffffffffffffffffffffffffffffffffff161462000e46576040517f08c379a000000000000000000000000000000000000000000000000000000000815260040162000e3d9062001c76565b60405180910390fd5b6000811162000e8c576040517f08c379a000000000000000000000000000000000000000000000000000000000815260040162000e839062001f38565b60405180910390fd5b8060068190555050565b6060600160008373ffffffffffffffffffffffffffffffffffffffff1673ffffffffffffffffffffffffffffffffffffffff16815260200190815260200160002080548060200260200160405190810160405280929190818152602001828054801562000f5957602002820191906000526020600020905b8160009054906101000a900473ffffffffffffffffffffffffffffffffffffffff1673ffffffffffffffffffffffffffffffffffffffff168152602001906001019080831162000f0e575b50505050509050919050565b6000806000600460008573ffffffffffffffffffffffffffffffffffffffff1673ffffffffffffffffffffffffffffffffffffffff1681526020019081526020016000206040518060600160405290816000820160009054906101000a900460ff161515151581526020016000820160019054906101000a900460ff1660ff1660ff16815260200160018201548152505090506000808260200151905060008360400151036200101f576001819450945050505062001078565b60018160ff160362001047576301e1338083604001514262001042919062001f5a565b101591505b60028160ff16036200106e576228de8083604001514262001069919062001f5a565b101591505b8181945094505050505b915091565b6200108762001653565b600460008373ffffffffffffffffffffffffffffffffffffffff1673ffffffffffffffffffffffffffffffffffffffff1681526020019081526020016000206040518060600160405290816000820160009054906101000a900460ff161515151581526020016000820160019054906101000a900460ff1660ff1660ff1681526020016001820154815250509050919050565b6000600554905090565b600360009054906101000a900473ffffffffffffffffffffffffffffffffffffffff1681565b60003373ffffffffffffffffffffffffffffffffffffffff16600360009054906101000a900473ffffffffffffffffffffffffffffffffffffffff1673ffffffffffffffffffffffffffffffffffffffff1614620011df576040517f08c379a0000000000000000000000000000000000000000000000000000000008152600401620011d69062001c76565b60405180910390fd5b620011ea8362000ccc565b6200122c576040517f08c379a000000000000000000000000000000000000000000000000000000000815260040162001223906200200b565b60405180910390fd5b6000600360009054906101000a900473ffffffffffffffffffffffffffffffffffffffff168484604051620012619062001679565b6200126f939291906200202d565b604051809103906000f0801580156200128c573d6000803e3d6000fd5b50905060008190506000819080600181540180825580915050600190039060005260206000200160009091909190916101000a81548173ffffffffffffffffffffffffffffffffffffffff021916908373ffffffffffffffffffffffffffffffffffffffff1602179055506000600160008773ffffffffffffffffffffffffffffffffffffffff1673ffffffffffffffffffffffffffffffffffffffff168152602001908152602001600020905080829080600181540180825580915050600190039060005260206000200160009091909190916101000a81548173ffffffffffffffffffffffffffffffffffffffff021916908373ffffffffffffffffffffffffffffffffffffffff1602179055506000805b60028054905081101562001443578773ffffffffffffffffffffffffffffffffffffffff1660028281548110620013dc57620013db62001dcb565b5b9060005260206000200160009054906101000a900473ffffffffffffffffffffffffffffffffffffffff1673ffffffffffffffffffffffffffffffffffffffff16036200142d576001915062001443565b80806200143a9062001e29565b915050620013a0565b5080620014ae576002879080600181540180825580915050600190039060005260206000200160009091909190916101000a81548173ffffffffffffffffffffffffffffffffffffffff021916908373ffffffffffffffffffffffffffffffffffffffff1602179055505b60006040518060a001604052808573ffffffffffffffffffffffffffffffffffffffff1681526020013373ffffffffffffffffffffffffffffffffffffffff1681526020018973ffffffffffffffffffffffffffffffffffffffff1681526020018860ff168152602001600460008b73ffffffffffffffffffffffffffffffffffffffff1673ffffffffffffffffffffffffffffffffffffffff1681526020019081526020016000206040518060600160405290816000820160009054906101000a900460ff161515151581526020016000820160019054906101000a900460ff1660ff1660ff16815260200160018201548152505081525090507f97d66b1a38adb022a1b1537701d97ce9b434057c341f89091736fb3375aa2f7881604051620015da919062002124565b60405180910390a1839550505050505092915050565b600080828462001601919062002141565b90508381101562001649576040517f08c379a00000000000000000000000000000000000000000000000000000000081526004016200164090620021cc565b60405180910390fd5b8091505092915050565b6040518060600160405280600015158152602001600060ff168152602001600081525090565b61368680620021ef83390190565b600082825260208201905092915050565b7f546865206665652073686f756c64206265206174206c6561737420657175616c60008201527f20746f2074686520616e6e75616c206665650000000000000000000000000000602082015250565b6000620016f660328362001687565b9150620017038262001698565b604082019050919050565b600060208201905081810360008301526200172981620016e7565b9050919050565b7f4e6f206f746865722063616c6c7320737570706f727465640000000000000000600082015250565b60006200176860188362001687565b9150620017758262001730565b602082019050919050565b600060208201905081810360008301526200179b8162001759565b9050919050565b6000819050919050565b620017b781620017a2565b82525050565b6000602082019050620017d46000830184620017ac565b92915050565b600080fd5b600073ffffffffffffffffffffffffffffffffffffffff82169050919050565b60006200180c82620017df565b9050919050565b6200181e81620017ff565b81146200182a57600080fd5b50565b6000813590506200183e8162001813565b92915050565b6000602082840312156200185d576200185c620017da565b5b60006200186d848285016200182d565b91505092915050565b60008115159050919050565b6200188d8162001876565b82525050565b6000602082019050620018aa600083018462001882565b92915050565b620018bb81620017ff565b82525050565b6000602082019050620018d86000830184620018b0565b92915050565b620018e981620017a2565b8114620018f557600080fd5b50565b6000813590506200190981620018de565b92915050565b600060208284031215620019285762001927620017da565b5b60006200193884828501620018f8565b91505092915050565b600081519050919050565b600082825260208201905092915050565b6000819050602082019050919050565b6200197881620017ff565b82525050565b60006200198c83836200196d565b60208301905092915050565b6000602082019050919050565b6000620019b28262001941565b620019be81856200194c565b9350620019cb836200195d565b8060005b8381101562001a02578151620019e688826200197e565b9750620019f38362001998565b925050600181019050620019cf565b5085935050505092915050565b6000602082019050818103600083015262001a2b8184620019a5565b905092915050565b600060ff82169050919050565b62001a4b8162001a33565b82525050565b600060408201905062001a68600083018562001882565b62001a77602083018462001a40565b9392505050565b62001a898162001876565b82525050565b62001a9a8162001a33565b82525050565b62001aab81620017a2565b82525050565b60608201600082015162001ac9600085018262001a7e565b50602082015162001ade602085018262001a8f565b50604082015162001af3604085018262001aa0565b50505050565b600060608201905062001b10600083018462001ab1565b92915050565b62001b218162001a33565b811462001b2d57600080fd5b50565b60008135905062001b418162001b16565b92915050565b6000806040838503121562001b615762001b60620017da565b5b600062001b71858286016200182d565b925050602062001b848582860162001b30565b9150509250929050565b7f546865206665652073686f756c64206265206174206c6561737420657175616c60008201527f20746f20746865206d6f6e74686c792066656500000000000000000000000000602082015250565b600062001bec60338362001687565b915062001bf98262001b8e565b604082019050919050565b6000602082019050818103600083015262001c1f8162001bdd565b9050919050565b7f4f6e6c7920726f6f742063616e2063616c6c20746869732e0000000000000000600082015250565b600062001c5e60188362001687565b915062001c6b8262001c26565b602082019050919050565b6000602082019050818103600083015262001c918162001c4f565b9050919050565b7f4e487b7100000000000000000000000000000000000000000000000000000000600052604160045260246000fd5b600081519050919050565b600081905092915050565b60005b8381101562001cfd57808201518184015260208101905062001ce0565b60008484015250505050565b600062001d168262001cc7565b62001d22818562001cd2565b935062001d3481856020860162001cdd565b80840191505092915050565b600062001d4e828462001d09565b915081905092915050565b7f4554485f5452414e534645525f4641494c454400000000000000000000000000600082015250565b600062001d9160138362001687565b915062001d9e8262001d59565b602082019050919050565b6000602082019050818103600083015262001dc48162001d82565b9050919050565b7f4e487b7100000000000000000000000000000000000000000000000000000000600052603260045260246000fd5b7f4e487b7100000000000000000000000000000000000000000000000000000000600052601160045260246000fd5b600062001e3682620017a2565b91507fffffffffffffffffffffffffffffffffffffffffffffffffffffffffffffffff820362001e6b5762001e6a62001dfa565b5b600182019050919050565b7f416e6e75616c206665652063616e6e6f74206265206e65676174697665000000600082015250565b600062001eae601d8362001687565b915062001ebb8262001e76565b602082019050919050565b6000602082019050818103600083015262001ee18162001e9f565b9050919050565b7f4d6f6e74686c79206665652063616e6e6f74206265206e656761746976650000600082015250565b600062001f20601e8362001687565b915062001f2d8262001ee8565b602082019050919050565b6000602082019050818103600083015262001f538162001f11565b9050919050565b600062001f6782620017a2565b915062001f7483620017a2565b925082820390508181111562001f8f5762001f8e62001dfa565b5b92915050565b7f41636365737320746f20626c696e6420626f786573206973206e6f7420616c6c60008201527f6f77656420616e64206d7573742062652070616964206f722065787069726564602082015250565b600062001ff360408362001687565b9150620020008262001f95565b604082019050919050565b60006020820190508181036000830152620020268162001fe4565b9050919050565b6000606082019050620020446000830186620018b0565b620020536020830185620018b0565b62002062604083018462001a40565b949350505050565b60608201600082015162002082600085018262001a7e565b50602082015162002097602085018262001a8f565b506040820151620020ac604085018262001aa0565b50505050565b60e082016000820151620020ca60008501826200196d565b506020820151620020df60208501826200196d565b506040820151620020f460408501826200196d565b50606082015162002109606085018262001a8f565b5060808201516200211e60808501826200206a565b50505050565b600060e0820190506200213b6000830184620020b2565b92915050565b60006200214e82620017a2565b91506200215b83620017a2565b925082820190508082111562002176576200217562001dfa565b5b92915050565b7f536166654d6174683a206164646974696f6e206f766572666c6f770000000000600082015250565b6000620021b4601b8362001687565b9150620021c1826200217c565b602082019050919050565b60006020820190508181036000830152620021e781620021a5565b905091905056fe60806040526050600660006101000a81548161ffff021916908361ffff1602179055506014600660026101000a81548161ffff021916908361ffff1602179055506046600660046101000a81548161ffff021916908361ffff160217905550601e6006806101000a81548161ffff021916908361ffff1602179055503480156200008857600080fd5b5060405162003686380380620036868339818101604052810190620000ae919062000285565b33600360006101000a81548173ffffffffffffffffffffffffffffffffffffffff021916908373ffffffffffffffffffffffffffffffffffffffff160217905550826000806101000a81548173ffffffffffffffffffffffffffffffffffffffff021916908373ffffffffffffffffffffffffffffffffffffffff16021790555081600160006101000a81548173ffffffffffffffffffffffffffffffffffffffff021916908373ffffffffffffffffffffffffffffffffffffffff16021790555080600360166101000a81548160ff021916908360ff1602179055506004600360146101000a81548160ff02191690836004811115620001b457620001b3620002e1565b5b02179055506001600360156101000a81548160ff02191690831515021790555050505062000310565b600080fd5b600073ffffffffffffffffffffffffffffffffffffffff82169050919050565b60006200020f82620001e2565b9050919050565b620002218162000202565b81146200022d57600080fd5b50565b600081519050620002418162000216565b92915050565b600060ff82169050919050565b6200025f8162000247565b81146200026b57600080fd5b50565b6000815190506200027f8162000254565b92915050565b600080600060608486031215620002a157620002a0620001dd565b5b6000620002b18682870162000230565b9350506020620002c48682870162000230565b9250506040620002d7868287016200026e565b9150509250925092565b7f4e487b7100000000000000000000000000000000000000000000000000000000600052602160045260246000fd5b61336680620003206000396000f3fe6080604052600436106101e75760003560e01c80634e089900116101025780638bdff16111610095578063c792299811610064578063c792299814610945578063d9d00a5714610970578063f247e3de14610999578063ff4ffc98146109c457610443565b80638bdff161146108ad5780638c2001b9146108d85780639cf6d1af14610903578063c04062261461092e57610443565b80635ca1e165116100d15780635ca1e1651461080357806361efb5271461082e57806373f44c2b14610857578063771a3a1d1461088257610443565b80634e089900146107355780634f6a34f5146107605780635afdbd311461079d5780635c664672146107c657610443565b8063233de1261161017a57806339819f331161014957806339819f33146106795780633dd95366146106a4578063416281ed146106e15780634b21a2a71461070c57610443565b8063233de126146105ee57806327e8ace0146106195780633308f42d1461064457806337a7b7d81461066f57610443565b806312065fe0116101b657806312065fe01461053057806316ca3b781461055b5780631865c57d146105985780632014e5d1146105c357610443565b8063062a78941461048657806307da68f5146104b157806310b8d4d7146104c85780631202ee311461050557610443565b3661044357600360159054906101000a900460ff1661023b576040517f08c379a000000000000000000000000000000000000000000000000000000000815260040161023290612168565b60405180910390fd5b600061026d600360169054906101000a900460ff1660ff16344761025f91906121c1565b6109ef90919063ffffffff16565b905060006004811115610283576102826121f5565b5b600360149054906101000a900460ff1660048111156102a5576102a46121f5565b5b146102e5576040517f08c379a00000000000000000000000000000000000000000000000000000000081526004016102dc90612270565b60405180910390fd5b80341015346040516020016102fa919061232e565b6040516020818303038152906040529061034a576040517f08c379a000000000000000000000000000000000000000000000000000000000815260040161034191906123d3565b60405180910390fd5b506001600360146101000a81548160ff02191690836004811115610371576103706121f5565b5b021790555033600260006101000a81548173ffffffffffffffffffffffffffffffffffffffff021916908373ffffffffffffffffffffffffffffffffffffffff16021790555060006040518060e001604052803373ffffffffffffffffffffffffffffffffffffffff168152602001600160ff16815260200160055481526020013481526020014781526020018381526020015a81525090507fd9ccab18f2b95ab95e3fa1dd8094672f096ad892e847a8c5a91fcfba5b1ddee48160405161043991906124ef565b60405180910390a1005b6000610484576040517f08c379a000000000000000000000000000000000000000000000000000000000815260040161047b90612556565b60405180910390fd5b005b34801561049257600080fd5b5061049b610a39565b6040516104a89190612585565b60405180910390f35b3480156104bd57600080fd5b506104c6610a6a565b005b3480156104d457600080fd5b506104ef60048036038101906104ea9190612715565b610b17565b6040516104fc919061278c565b60405180910390f35b34801561051157600080fd5b5061051a610bab565b60405161052791906127b6565b60405180910390f35b34801561053c57600080fd5b50610545610bbe565b6040516105529190612585565b60405180910390f35b34801561056757600080fd5b50610582600480360381019061057d91906127fd565b610bc6565b60405161058f919061278c565b60405180910390f35b3480156105a457600080fd5b506105ad610bdd565b6040516105ba91906128b4565b60405180910390f35b3480156105cf57600080fd5b506105d8610bf4565b6040516105e5919061278c565b60405180910390f35b3480156105fa57600080fd5b50610603610c0b565b60405161061091906128ec565b60405180910390f35b34801561062557600080fd5b5061062e610c1f565b60405161063b9190612585565b60405180910390f35b34801561065057600080fd5b50610659610c45565b6040516106669190612916565b60405180910390f35b610677610c6f565b005b34801561068557600080fd5b5061068e610d50565b60405161069b91906128ec565b60405180910390f35b3480156106b057600080fd5b506106cb60048036038101906106c69190612715565b610d64565b6040516106d89190612585565b60405180910390f35b3480156106ed57600080fd5b506106f6610f01565b60405161070391906128ec565b60405180910390f35b34801561071857600080fd5b50610733600480360381019061072e9190612931565b610f92565b005b34801561074157600080fd5b5061074a611121565b60405161075791906128ec565b60405180910390f35b34801561076c57600080fd5b5061078760048036038101906107829190612715565b611135565b6040516107949190612585565b60405180910390f35b3480156107a957600080fd5b506107c460048036038101906107bf919061298a565b611170565b005b3480156107d257600080fd5b506107ed60048036038101906107e89190612715565b611296565b6040516107fa919061278c565b60405180910390f35b34801561080f57600080fd5b50610818611544565b6040516108259190612916565b60405180910390f35b34801561083a57600080fd5b50610855600480360381019061085091906129b7565b61156d565b005b34801561086357600080fd5b5061086c611702565b6040516108799190612585565b60405180910390f35b34801561088e57600080fd5b50610897611755565b6040516108a491906128ec565b60405180910390f35b3480156108b957600080fd5b506108c2611767565b6040516108cf9190612585565b60405180910390f35b3480156108e457600080fd5b506108ed6117ad565b6040516108fa9190612585565b60405180910390f35b34801561090f57600080fd5b50610918611800565b6040516109259190612916565b60405180910390f35b34801561093a57600080fd5b5061094361182a565b005b34801561095157600080fd5b5061095a6118d7565b6040516109679190612585565b60405180910390f35b34801561097c57600080fd5b506109976004803603810190610992919061298a565b6118e1565b005b3480156109a557600080fd5b506109ae611a07565b6040516109bb9190612585565b60405180910390f35b3480156109d057600080fd5b506109d9611a39565b6040516109e69190612585565b60405180910390f35b6000610a3183836040518060400160405280601a81526020017f536166654d6174683a206469766973696f6e206279207a65726f000000000000815250611a43565b905092915050565b600080610a61600360169054906101000a900460ff1660ff16476109ef90919063ffffffff16565b90508091505090565b600160009054906101000a900473ffffffffffffffffffffffffffffffffffffffff1673ffffffffffffffffffffffffffffffffffffffff163373ffffffffffffffffffffffffffffffffffffffff1614610afa576040517f08c379a0000000000000000000000000000000000000000000000000000000008152600401610af190612a43565b60405180910390fd5b6000600360156101000a81548160ff021916908315150217905550565b600060036004811115610b2d57610b2c6121f5565b5b600360149054906101000a900460ff166004811115610b4f57610b4e6121f5565b5b14610b8f576040517f08c379a0000000000000000000000000000000000000000000000000000000008152600401610b8690612aaf565b60405180910390fd5b6000610b9b8484611135565b9050600554811491505092915050565b600360169054906101000a900460ff1681565b600047905090565b600081610bd38585611135565b1490509392505050565b6000600360149054906101000a900460ff16905090565b6000600360159054906101000a900460ff16905090565b600660009054906101000a900461ffff1681565b600080610c2a6117ad565b610c32611702565b610c3c91906121c1565b90508091505090565b6000600260009054906101000a900473ffffffffffffffffffffffffffffffffffffffff16905090565b60003411610cb2576040517f08c379a0000000000000000000000000000000000000000000000000000000008152600401610ca990612b1b565b60405180910390fd5b60003447610cc091906121c1565b905060006040518060e001604052803373ffffffffffffffffffffffffffffffffffffffff168152602001600260ff16815260200160055481526020013481526020014781526020018381526020015a81525090507fd9ccab18f2b95ab95e3fa1dd8094672f096ad892e847a8c5a91fcfba5b1ddee481604051610d4491906124ef565b60405180910390a15050565b600660049054906101000a900461ffff1681565b6000600260009054906101000a900473ffffffffffffffffffffffffffffffffffffffff1673ffffffffffffffffffffffffffffffffffffffff163373ffffffffffffffffffffffffffffffffffffffff1614610df6576040517f08c379a0000000000000000000000000000000000000000000000000000000008152600401610ded90612b87565b60405180910390fd5b600360159054906101000a900460ff16610e45576040517f08c379a0000000000000000000000000000000000000000000000000000000008152600401610e3c90612168565b60405180910390fd5b60016004811115610e5957610e586121f5565b5b600360149054906101000a900460ff166004811115610e7b57610e7a6121f5565b5b14610ebb576040517f08c379a0000000000000000000000000000000000000000000000000000000008152600401610eb290612bf3565b60405180910390fd5b610ec58383611135565b6005819055506002600360146101000a81548160ff02191690836004811115610ef157610ef06121f5565b5b0217905550600554905092915050565b600080610f89600360169054906101000a900460ff1660ff16610f7b6064610f6d610f4a600660029054906101000a900461ffff1661ffff166064611aa690919063ffffffff16565b600660009054906101000a900461ffff1661ffff16611af090919063ffffffff16565b6109ef90919063ffffffff16565b611af090919063ffffffff16565b90508091505090565b60008054906101000a900473ffffffffffffffffffffffffffffffffffffffff1673ffffffffffffffffffffffffffffffffffffffff163373ffffffffffffffffffffffffffffffffffffffff1614611020576040517f08c379a000000000000000000000000000000000000000000000000000000000815260040161101790612c5f565b60405180910390fd5b600360159054906101000a900460ff1661106f576040517f08c379a000000000000000000000000000000000000000000000000000000000815260040161106690612168565b60405180910390fd5b600480811115611082576110816121f5565b5b600360149054906101000a900460ff1660048111156110a4576110a36121f5565b5b146110e4576040517f08c379a00000000000000000000000000000000000000000000000000000000081526004016110db90612cf1565b60405180910390fd5b8060048190555060006005819055506000600360146101000a81548160ff02191690836004811115611119576111186121f5565b5b021790555050565b600660029054906101000a900461ffff1681565b600080838360405160200161114b929190612d78565b6040516020818303038152906040528051906020012090508060001c91505092915050565b600160009054906101000a900473ffffffffffffffffffffffffffffffffffffffff1673ffffffffffffffffffffffffffffffffffffffff163373ffffffffffffffffffffffffffffffffffffffff1614611200576040517f08c379a00000000000000000000000000000000000000000000000000000000081526004016111f790612a43565b60405180910390fd5b60006004811115611214576112136121f5565b5b600360149054906101000a900460ff166004811115611236576112356121f5565b5b14611276576040517f08c379a000000000000000000000000000000000000000000000000000000000815260040161126d90612dec565b60405180910390fd5b80600660006101000a81548161ffff021916908361ffff16021790555050565b60008060009054906101000a900473ffffffffffffffffffffffffffffffffffffffff1673ffffffffffffffffffffffffffffffffffffffff163373ffffffffffffffffffffffffffffffffffffffff1614611327576040517f08c379a000000000000000000000000000000000000000000000000000000000815260040161131e90612c5f565b60405180910390fd5b600360159054906101000a900460ff16611376576040517f08c379a000000000000000000000000000000000000000000000000000000000815260040161136d90612168565b60405180910390fd5b6002600481111561138a576113896121f5565b5b600360149054906101000a900460ff1660048111156113ac576113ab6121f5565b5b146113ec576040517f08c379a00000000000000000000000000000000000000000000000000000000081526004016113e390612e58565b60405180910390fd5b60038060146101000a81548160ff02191690836004811115611411576114106121f5565b5b021790555060006114228484610b17565b905060006040518060a00160405280600260009054906101000a900473ffffffffffffffffffffffffffffffffffffffff1673ffffffffffffffffffffffffffffffffffffffff1681526020018315158152602001600554815260200160045481526020014281525090507f0af486f5a46f35bda92314e1385dd240666fc078e948bd192e25443265146e97816040516114bc9190612eef565b60405180910390a16114cc611b6a565b6000600260006101000a81548173ffffffffffffffffffffffffffffffffffffffff021916908373ffffffffffffffffffffffffffffffffffffffff1602179055506004600360146101000a81548160ff02191690836004811115611534576115336121f5565b5b0217905550819250505092915050565b60008060009054906101000a900473ffffffffffffffffffffffffffffffffffffffff16905090565b600160009054906101000a900473ffffffffffffffffffffffffffffffffffffffff1673ffffffffffffffffffffffffffffffffffffffff163373ffffffffffffffffffffffffffffffffffffffff16146115fd576040517f08c379a00000000000000000000000000000000000000000000000000000000081526004016115f490612a43565b60405180910390fd5b60006004811115611611576116106121f5565b5b600360149054906101000a900460ff166004811115611633576116326121f5565b5b14611673576040517f08c379a000000000000000000000000000000000000000000000000000000000815260040161166a90612dec565b60405180910390fd5b600181836116819190612f0a565b61ffff16146116c5576040517f08c379a00000000000000000000000000000000000000000000000000000000081526004016116bc90612fb2565b60405180910390fd5b81600660046101000a81548161ffff021916908361ffff160217905550806006806101000a81548161ffff021916908361ffff1602179055505050565b60008061170d611767565b9050600061174b606461173d600660029054906101000a900461ffff1661ffff1685611af090919063ffffffff16565b6109ef90919063ffffffff16565b9050809250505090565b60068054906101000a900461ffff1681565b6000806117a46064611796600660009054906101000a900461ffff1661ffff1647611af090919063ffffffff16565b6109ef90919063ffffffff16565b90508091505090565b6000806117b8611702565b905060006117f660646117e8600660049054906101000a900461ffff1661ffff1685611af090919063ffffffff16565b6109ef90919063ffffffff16565b9050809250505090565b6000600160009054906101000a900473ffffffffffffffffffffffffffffffffffffffff16905090565b600160009054906101000a900473ffffffffffffffffffffffffffffffffffffffff1673ffffffffffffffffffffffffffffffffffffffff163373ffffffffffffffffffffffffffffffffffffffff16146118ba576040517f08c379a00000000000000000000000000000000000000000000000000000000081526004016118b190612a43565b60405180910390fd5b6001600360156101000a81548160ff021916908315150217905550565b6000600454905090565b600160009054906101000a900473ffffffffffffffffffffffffffffffffffffffff1673ffffffffffffffffffffffffffffffffffffffff163373ffffffffffffffffffffffffffffffffffffffff1614611971576040517f08c379a000000000000000000000000000000000000000000000000000000000815260040161196890612a43565b60405180910390fd5b60006004811115611985576119846121f5565b5b600360149054906101000a900460ff1660048111156119a7576119a66121f5565b5b146119e7576040517f08c379a00000000000000000000000000000000000000000000000000000000081526004016119de90612dec565b60405180910390fd5b80600660026101000a81548161ffff021916908361ffff16021790555050565b600080611a12611767565b90506000611a1e611702565b905060008183611a2e91906121c1565b905080935050505090565b6000600554905090565b60008083118290611a8a576040517f08c379a0000000000000000000000000000000000000000000000000000000008152600401611a8191906123d3565b60405180910390fd5b5060008385611a999190613001565b9050809150509392505050565b6000611ae883836040518060400160405280601e81526020017f536166654d6174683a207375627472616374696f6e206f766572666c6f7700008152506120a7565b905092915050565b6000808303611b025760009050611b64565b60008284611b109190613032565b9050828482611b1f9190613001565b14611b5f576040517f08c379a0000000000000000000000000000000000000000000000000000000008152600401611b56906130e6565b60405180910390fd5b809150505b92915050565b6000611b74610a39565b90506000611b80611767565b90506000611b8c611702565b90506000611b986117ad565b90506000611ba4610c1f565b90506000611bb0611a07565b90506000600260009054906101000a900473ffffffffffffffffffffffffffffffffffffffff1673ffffffffffffffffffffffffffffffffffffffff1682600067ffffffffffffffff811115611c0957611c086125ea565b5b6040519080825280601f01601f191660200182016040528015611c3b5781602001600182028036833780820191505090505b50604051611c49919061314d565b60006040518083038185875af1925050503d8060008114611c86576040519150601f19603f3d011682016040523d82523d6000602084013e611c8b565b606091505b5050905080611ccf576040517f08c379a0000000000000000000000000000000000000000000000000000000008152600401611cc6906131b0565b60405180910390fd5b6000600160009054906101000a900473ffffffffffffffffffffffffffffffffffffffff1673ffffffffffffffffffffffffffffffffffffffff1685600067ffffffffffffffff811115611d2657611d256125ea565b5b6040519080825280601f01601f191660200182016040528015611d585781602001600182028036833780820191505090505b50604051611d66919061314d565b60006040518083038185875af1925050503d8060008114611da3576040519150601f19603f3d011682016040523d82523d6000602084013e611da8565b606091505b5050905080611dec576040517f08c379a0000000000000000000000000000000000000000000000000000000008152600401611de3906131b0565b60405180910390fd5b60008060009054906101000a900473ffffffffffffffffffffffffffffffffffffffff1673ffffffffffffffffffffffffffffffffffffffff1685600067ffffffffffffffff811115611e4257611e416125ea565b5b6040519080825280601f01601f191660200182016040528015611e745781602001600182028036833780820191505090505b50604051611e82919061314d565b60006040518083038185875af1925050503d8060008114611ebf576040519150601f19603f3d011682016040523d82523d6000602084013e611ec4565b606091505b5050905080611f08576040517f08c379a0000000000000000000000000000000000000000000000000000000008152600401611eff906131b0565b60405180910390fd5b6000604051806101e00160405280600260009054906101000a900473ffffffffffffffffffffffffffffffffffffffff1673ffffffffffffffffffffffffffffffffffffffff168152602001600160009054906101000a900473ffffffffffffffffffffffffffffffffffffffff1673ffffffffffffffffffffffffffffffffffffffff16815260200160008054906101000a900473ffffffffffffffffffffffffffffffffffffffff1673ffffffffffffffffffffffffffffffffffffffff168152602001600660009054906101000a900461ffff1661ffff168152602001600660029054906101000a900461ffff1661ffff168152602001600660049054906101000a900461ffff1661ffff16815260200160068054906101000a900461ffff1661ffff1681526020014781526020018b81526020018a81526020018981526020018881526020018781526020018681526020014281525090507f1c73e8440cdc2c2c071f5e653040d672398aade8f0294ee0579ec874e3fcc1d8816040516120939190613314565b60405180910390a150505050505050505050565b60008383111582906120ef576040517f08c379a00000000000000000000000000000000000000000000000000000000081526004016120e691906123d3565b60405180910390fd5b50600083856120fe91906121c1565b9050809150509392505050565b600082825260208201905092915050565b7f426c696e6420626f78206861732073746f707065640000000000000000000000600082015250565b600061215260158361210b565b915061215d8261211c565b602082019050919050565b6000602082019050818103600083015261218181612145565b9050919050565b6000819050919050565b7f4e487b7100000000000000000000000000000000000000000000000000000000600052601160045260246000fd5b60006121cc82612188565b91506121d783612188565b92508282039050818111156121ef576121ee612192565b5b92915050565b7f4e487b7100000000000000000000000000000000000000000000000000000000600052602160045260246000fd5b7f63616e6e6f742062652062657400000000000000000000000000000000000000600082015250565b600061225a600d8361210b565b915061226582612224565b602082019050919050565b600060208201905081810360008301526122898161224d565b9050919050565b600081905092915050565b7f5468652062657474696e6720616d6f756e742073686f756c642062652061742060008201527f6c65617374200000000000000000000000000000000000000000000000000000602082015250565b60006122f7602683612290565b91506123028261229b565b602682019050919050565b6000819050919050565b61232861232382612188565b61230d565b82525050565b6000612339826122ea565b91506123458284612317565b60208201915081905092915050565b600081519050919050565b60005b8381101561237d578082015181840152602081019050612362565b60008484015250505050565b6000601f19601f8301169050919050565b60006123a582612354565b6123af818561210b565b93506123bf81856020860161235f565b6123c881612389565b840191505092915050565b600060208201905081810360008301526123ed818461239a565b905092915050565b600073ffffffffffffffffffffffffffffffffffffffff82169050919050565b6000612420826123f5565b9050919050565b61243081612415565b82525050565b600060ff82169050919050565b61244c81612436565b82525050565b61245b81612188565b82525050565b60e0820160008201516124776000850182612427565b50602082015161248a6020850182612443565b50604082015161249d6040850182612452565b5060608201516124b06060850182612452565b5060808201516124c36080850182612452565b5060a08201516124d660a0850182612452565b5060c08201516124e960c0850182612452565b50505050565b600060e0820190506125046000830184612461565b92915050565b7f4e6f206f746865722063616c6c7320737570706f727465640000000000000000600082015250565b600061254060188361210b565b915061254b8261250a565b602082019050919050565b6000602082019050818103600083015261256f81612533565b9050919050565b61257f81612188565b82525050565b600060208201905061259a6000830184612576565b92915050565b6000604051905090565b600080fd5b600080fd5b6125bd81612436565b81146125c857600080fd5b50565b6000813590506125da816125b4565b92915050565b600080fd5b600080fd5b7f4e487b7100000000000000000000000000000000000000000000000000000000600052604160045260246000fd5b61262282612389565b810181811067ffffffffffffffff82111715612641576126406125ea565b5b80604052505050565b60006126546125a0565b90506126608282612619565b919050565b600067ffffffffffffffff8211156126805761267f6125ea565b5b61268982612389565b9050602081019050919050565b82818337600083830152505050565b60006126b86126b384612665565b61264a565b9050828152602081018484840111156126d4576126d36125e5565b5b6126df848285612696565b509392505050565b600082601f8301126126fc576126fb6125e0565b5b813561270c8482602086016126a5565b91505092915050565b6000806040838503121561272c5761272b6125aa565b5b600061273a858286016125cb565b925050602083013567ffffffffffffffff81111561275b5761275a6125af565b5b612767858286016126e7565b9150509250929050565b60008115159050919050565b61278681612771565b82525050565b60006020820190506127a1600083018461277d565b92915050565b6127b081612436565b82525050565b60006020820190506127cb60008301846127a7565b92915050565b6127da81612188565b81146127e557600080fd5b50565b6000813590506127f7816127d1565b92915050565b600080600060608486031215612816576128156125aa565b5b6000612824868287016125cb565b935050602084013567ffffffffffffffff811115612845576128446125af565b5b612851868287016126e7565b9250506040612862868287016127e8565b9150509250925092565b6005811061287d5761287c6121f5565b5b50565b600081905061288e8261286c565b919050565b600061289e82612880565b9050919050565b6128ae81612893565b82525050565b60006020820190506128c960008301846128a5565b92915050565b600061ffff82169050919050565b6128e6816128cf565b82525050565b600060208201905061290160008301846128dd565b92915050565b61291081612415565b82525050565b600060208201905061292b6000830184612907565b92915050565b600060208284031215612947576129466125aa565b5b6000612955848285016127e8565b91505092915050565b612967816128cf565b811461297257600080fd5b50565b6000813590506129848161295e565b92915050565b6000602082840312156129a05761299f6125aa565b5b60006129ae84828501612975565b91505092915050565b600080604083850312156129ce576129cd6125aa565b5b60006129dc85828601612975565b92505060206129ed85828601612975565b9150509250929050565b7f4f6e6c79206465616c65722063616e2063616c6c20746869732e000000000000600082015250565b6000612a2d601a8361210b565b9150612a38826129f7565b602082019050919050565b60006020820190508181036000830152612a5c81612a20565b9050919050565b7f7878780000000000000000000000000000000000000000000000000000000000600082015250565b6000612a9960038361210b565b9150612aa482612a63565b602082019050919050565b60006020820190508181036000830152612ac881612a8c565b9050919050565b7f46656564696e672063616e6e6f74206265207a65726f00000000000000000000600082015250565b6000612b0560168361210b565b9150612b1082612acf565b602082019050919050565b60006020820190508181036000830152612b3481612af8565b9050919050565b7f4e6f7420612062657474696e6720706c61796572000000000000000000000000600082015250565b6000612b7160148361210b565b9150612b7c82612b3b565b602082019050919050565b60006020820190508181036000830152612ba081612b64565b9050919050565b7f426574206e6f7420706169640000000000000000000000000000000000000000600082015250565b6000612bdd600c8361210b565b9150612be882612ba7565b602082019050919050565b60006020820190508181036000830152612c0c81612bd0565b9050919050565b7f4f6e6c7920726f6f742063616e2063616c6c20746869732e0000000000000000600082015250565b6000612c4960188361210b565b9150612c5482612c13565b602082019050919050565b60006020820190508181036000830152612c7881612c3c565b9050919050565b7f4d757374206861766520776f6e2061207072697a65206265666f72652063616c60008201527f6c696e6700000000000000000000000000000000000000000000000000000000602082015250565b6000612cdb60248361210b565b9150612ce682612c7f565b604082019050919050565b60006020820190508181036000830152612d0a81612cce565b9050919050565b60008160f81b9050919050565b6000612d2982612d11565b9050919050565b612d41612d3c82612436565b612d1e565b82525050565b6000612d5282612354565b612d5c8185612290565b9350612d6c81856020860161235f565b80840191505092915050565b6000612d848285612d30565b600182019150612d948284612d47565b91508190509392505050565b7f43616e206f6e6c79206265206368616e676564207768656e20666f6c64696e67600082015250565b6000612dd660208361210b565b9150612de182612da0565b602082019050919050565b60006020820190508181036000830152612e0581612dc9565b9050919050565b7f426574206e6f7420636f6d706c65746564000000000000000000000000000000600082015250565b6000612e4260118361210b565b9150612e4d82612e0c565b602082019050919050565b60006020820190508181036000830152612e7181612e35565b9050919050565b612e8181612771565b82525050565b60a082016000820151612e9d6000850182612427565b506020820151612eb06020850182612e78565b506040820151612ec36040850182612452565b506060820151612ed66060850182612452565b506080820151612ee96080850182612452565b50505050565b600060a082019050612f046000830184612e87565b92915050565b6000612f15826128cf565b9150612f20836128cf565b9250828201905061ffff811115612f3a57612f39612192565b5b92915050565b7f42726f6b65726167655261746520706c75732054617852617465206d7573742060008201527f626520657175616c20746f203100000000000000000000000000000000000000602082015250565b6000612f9c602d8361210b565b9150612fa782612f40565b604082019050919050565b60006020820190508181036000830152612fcb81612f8f565b9050919050565b7f4e487b7100000000000000000000000000000000000000000000000000000000600052601260045260246000fd5b600061300c82612188565b915061301783612188565b92508261302757613026612fd2565b5b828204905092915050565b600061303d82612188565b915061304883612188565b925082820261305681612188565b9150828204841483151761306d5761306c612192565b5b5092915050565b7f536166654d6174683a206d756c7469706c69636174696f6e206f766572666c6f60008201527f7700000000000000000000000000000000000000000000000000000000000000602082015250565b60006130d060218361210b565b91506130db82613074565b604082019050919050565b600060208201905081810360008301526130ff816130c3565b9050919050565b600081519050919050565b600081905092915050565b600061312782613106565b6131318185613111565b935061314181856020860161235f565b80840191505092915050565b6000613159828461311c565b915081905092915050565b7f4554485f5452414e534645525f4641494c454400000000000000000000000000600082015250565b600061319a60138361210b565b91506131a582613164565b602082019050919050565b600060208201905081810360008301526131c98161318d565b9050919050565b6131d9816128cf565b82525050565b6101e0820160008201516131f66000850182612427565b5060208201516132096020850182612427565b50604082015161321c6040850182612427565b50606082015161322f60608501826131d0565b50608082015161324260808501826131d0565b5060a082015161325560a08501826131d0565b5060c082015161326860c08501826131d0565b5060e082015161327b60e0850182612452565b50610100820151613290610100850182612452565b506101208201516132a5610120850182612452565b506101408201516132ba610140850182612452565b506101608201516132cf610160850182612452565b506101808201516132e4610180850182612452565b506101a08201516132f96101a0850182612452565b506101c082015161330e6101c0850182612452565b50505050565b60006101e08201905061332a60008301846131df565b9291505056fea2646970667358221220042558e973f93db714e8dbdf8a41805dd1ffd04dd61ab45cf6ece4917cf52f1064736f6c63430008130033a26469706673582212208c664f216b8effcec1485757ed7d9a01cbb45d6285f8167cf65b9184302fa51964736f6c63430008130033",
  "immutableReferences": {},
  "source": "// SPDX-License-Identifier: MIT\npragma solidity >=0.4.22 <0.8.20;\nimport \"./IBlindBox.sol\";\nimport \"./BlindBoxContract.sol\";\nimport \"./IGamblingContractFactory.sol\";\nimport \"./SafeMath.sol\";\n\n/**\n * @dev\n * Game contract factory, used by operators to apply for blind boxes.\n */\ncontract GamblingContractFactory is IGamblingContractFactory {\n    using SafeMath for *;\n    address[] public contracts;\n    mapping(address => address[]) private dealerIndexer;\n    address[] private dealerKeys;\n    address public root;\n    mapping(address => ApplyRights) private rights;\n    uint256 private annualFee = 4200000000000000000; //4.2 ether\n    uint256 private monthlyFee = 400000000000000000; //0.4 ether\n\n    constructor() {\n        root = msg.sender;\n    }\n\n    modifier onlyRoot() {\n        require(root == msg.sender, \"Only root can call this.\");\n        _;\n    }\n\n    function getApplyRights(\n        address dealer\n    ) public view override returns (ApplyRights memory) {\n        return rights[dealer];\n    }\n\n    function isPaidOfDealer(\n        address dealer\n    ) public view override returns (bool) {\n        ApplyRights memory right = rights[dealer];\n        return right.time != 0;\n    }\n\n    function isValidDealer(address dealer) public view override returns (bool) {\n        ApplyRights memory right = rights[dealer];\n        if (!right.isAllow) {\n            return false;\n        }\n        if (right.time == 0) {\n            return false;\n        }\n        (bool expired, ) = isExpired(dealer);\n        return !expired;\n    }\n\n    function isExpired(\n        address dealer\n    ) public view override returns (bool, uint8) {\n        ApplyRights memory right = rights[dealer];\n\n        bool _expired;\n        uint8 payMode = right.payMode;\n        if (right.time == 0) {\n            return (true, payMode);\n        }\n        if (payMode == 1) {\n            _expired = (block.timestamp - right.time >= 31536000);\n        }\n        if (payMode == 2) {\n            _expired = (block.timestamp - right.time >= 2678400);\n        }\n        return (_expired, payMode);\n    }\n\n    function getDealerCount() public view override returns (uint256) {\n        return dealerKeys.length;\n    }\n\n    function getBlindboxCount() public view override returns (uint256) {\n        uint256 count = 0;\n        for (uint i = 0; i < dealerKeys.length; i++) {\n            address key = dealerKeys[i];\n            address[] memory list = dealerIndexer[key];\n            count = count.add(list.length);\n        }\n        return count;\n    }\n\n    function getBalance() public view override returns (uint256) {\n        return address(this).balance;\n    }\n\n    function getAddress() public view override returns (address) {\n        return address(this);\n    }\n\n    function getAnnualFee() public view override returns (uint256) {\n        return annualFee;\n    }\n\n    function getMonthlyFee() public view override returns (uint256) {\n        return monthlyFee;\n    }\n\n    function setAnnualFee(uint256 _annualFee) public override onlyRoot {\n        require(_annualFee > 0, \"Annual fee cannot be negative\");\n        annualFee = _annualFee;\n    }\n\n    function setMonthlyFee(uint256 _monthlyFee) public override onlyRoot {\n        require(_monthlyFee > 0, \"Monthly fee cannot be negative\");\n        monthlyFee = _monthlyFee;\n    }\n\n    function enumDealer() public view override returns (address[] memory) {\n        return dealerKeys;\n    }\n\n    function listContractOfDealer(\n        address dealer\n    ) public view override returns (address[] memory) {\n        return dealerIndexer[dealer];\n    }\n\n    ///@dev Create a new blind box\n    function createBlindBoxContract(\n        address _dealer,\n        uint8 _luckyCount\n    ) external override onlyRoot returns (address) {\n        require(\n            isValidDealer(_dealer),\n            \"Access to blind boxes is not allowed and must be paid or expired\"\n        );\n        \n        BlindBoxContract blindBox = new BlindBoxContract(\n            root,\n            _dealer,\n            _luckyCount\n        );\n        address blindBoxAddress = address(blindBox);\n        contracts.push(blindBoxAddress);\n        address[] storage contractAddressArr = dealerIndexer[_dealer];\n        contractAddressArr.push(blindBoxAddress);\n        bool foundKey = false;\n        for (uint i = 0; i < dealerKeys.length; i++) {\n            if (dealerKeys[i] == _dealer) {\n                foundKey = true;\n                break;\n            }\n        }\n        if (!foundKey) {\n            dealerKeys.push(_dealer);\n        }\n        CreateGamblingContractMessage\n            memory cgcm = CreateGamblingContractMessage(\n                blindBoxAddress,\n                msg.sender,\n                _dealer,\n                _luckyCount,\n                rights[_dealer]\n            );\n\n        emit OnCreateGamblingContract(cgcm);\n        return blindBoxAddress;\n    }\n\n    function withdraw() public payable override onlyRoot {\n        (bool success, ) = payable(root).call{value: address(this).balance}(\n            new bytes(0)\n        );\n        require(success, \"ETH_TRANSFER_FAILED\");\n    }\n\n    fallback() external payable {\n        require(false, \"No other calls supported\");\n    }\n\n    ///@dev The default payment method is only used for charging annual fees\n    receive() external payable {\n        require(\n            msg.value >= annualFee,\n            \"The fee should be at least equal to the annual fee\"\n        );\n        rights[msg.sender] = ApplyRights(true, 1, block.timestamp);\n    }\n\n    function recMothlyFee() external payable override {\n        require(\n            msg.value >= monthlyFee,\n            \"The fee should be at least equal to the monthly fee\"\n        );\n        rights[msg.sender] = ApplyRights(true, 2, block.timestamp);\n    }\n}\n",
  "sourcePath": "/Users/cj/games/game-blindbox/contracts/GamblingContractFactory.sol",
  "compiler": {
    "name": "solc",
    "version": "0.8.19+commit.7dd6d404.Emscripten.clang"
  },
  "schemaVersion": "3.4.14",
  "updatedAt": "2023-08-13T12:28:08.456Z",
  "networkType": "ethereum",
  "devdoc": {
    "details": "Game contract factory, used by operators to apply for blind boxes.",
    "kind": "dev",
    "methods": {
      "createBlindBoxContract(address,uint8)": {
        "details": "Create a new blind box"
      }
    },
    "version": 1
  },
  "userdoc": {
    "kind": "user",
    "methods": {},
    "version": 1
  }
}