{
  "contractName": "TestContract",
  "abi": [
    {
      "inputs": [],
      "stateMutability": "nonpayable",
      "type": "constructor"
    },
    {
      "inputs": [],
      "name": "root",
      "outputs": [
        {
          "internalType": "address",
          "name": "",
          "type": "address"
        }
      ],
      "stateMutability": "view",
      "type": "function",
      "constant": true
    },
    {
      "inputs": [],
      "name": "value",
      "outputs": [
        {
          "internalType": "uint256",
          "name": "",
          "type": "uint256"
        }
      ],
      "stateMutability": "view",
      "type": "function",
      "constant": true
    },
    {
      "inputs": [
        {
          "internalType": "uint256",
          "name": "newValue",
          "type": "uint256"
        }
      ],
      "name": "setValue",
      "outputs": [],
      "stateMutability": "nonpayable",
      "type": "function"
    }
  ],
  "bytecode": "0x608060405234801561001057600080fd5b50336000806101000a81548173ffffffffffffffffffffffffffffffffffffffff021916908373ffffffffffffffffffffffffffffffffffffffff160217905550610301806100606000396000f3fe608060405234801561001057600080fd5b50600436106100415760003560e01c80633fa4f245146100465780635524107714610064578063ebf0c71714610080575b600080fd5b61004e61009e565b60405161005b9190610179565b60405180910390f35b61007e600480360381019061007991906101c5565b6100a4565b005b61008861013c565b6040516100959190610233565b60405180910390f35b60015481565b3373ffffffffffffffffffffffffffffffffffffffff1660008054906101000a900473ffffffffffffffffffffffffffffffffffffffff1673ffffffffffffffffffffffffffffffffffffffff1603610132576040517f08c379a0000000000000000000000000000000000000000000000000000000008152600401610129906102ab565b60405180910390fd5b8060018190555050565b60008054906101000a900473ffffffffffffffffffffffffffffffffffffffff1681565b6000819050919050565b61017381610160565b82525050565b600060208201905061018e600083018461016a565b92915050565b600080fd5b6101a281610160565b81146101ad57600080fd5b50565b6000813590506101bf81610199565b92915050565b6000602082840312156101db576101da610194565b5b60006101e9848285016101b0565b91505092915050565b600073ffffffffffffffffffffffffffffffffffffffff82169050919050565b600061021d826101f2565b9050919050565b61022d81610212565b82525050565b60006020820190506102486000830184610224565b92915050565b600082825260208201905092915050565b7f7474747400000000000000000000000000000000000000000000000000000000600082015250565b600061029560048361024e565b91506102a08261025f565b602082019050919050565b600060208201905081810360008301526102c481610288565b905091905056fea2646970667358221220265bd9dceec0c4c1417b96a5b402306d1521fd3c001abc48b72eaab09702a87d64736f6c63430008130033",
  "immutableReferences": {},
  "source": "// SPDX-License-Identifier: MIT\npragma solidity >=0.6.0 <0.8.20;\n\ncontract TestContract {\n    address public root;\n    uint public value;\n\n    constructor()  {\n        root = msg.sender;\n    }\n\n    modifier onlyRoot() {\n        require(root != msg.sender, \"tttt\");\n        _;\n    }\n\n    function setValue(uint newValue) public onlyRoot{\n        value = newValue;\n    }\n}",
  "sourcePath": "/Users/cj/worktemp/truffle-test2/contracts/TestContract.sol",
  "compiler": {
    "name": "solc",
    "version": "0.8.19+commit.7dd6d404.Emscripten.clang"
  },
  "schemaVersion": "3.4.14",
  "updatedAt": "2023-08-09T17:16:40.222Z",
  "networkType": "ethereum",
  "devdoc": {
    "kind": "dev",
    "methods": {},
    "version": 1
  },
  "userdoc": {
    "kind": "user",
    "methods": {},
    "version": 1
  }
}