{
  "contractName": "YourContractName",
  "abi": [
    {
      "inputs": [],
      "stateMutability": "nonpayable",
      "type": "constructor"
    },
    {
      "anonymous": false,
      "inputs": [
        {
          "indexed": false,
          "internalType": "uint256",
          "name": "v",
          "type": "uint256"
        }
      ],
      "name": "Log",
      "type": "event"
    },
    {
      "inputs": [
        {
          "internalType": "uint256",
          "name": "v",
          "type": "uint256"
        }
      ],
      "name": "test",
      "outputs": [
        {
          "internalType": "uint256",
          "name": "",
          "type": "uint256"
        }
      ],
      "stateMutability": "nonpayable",
      "type": "function"
    }
  ],
  "bytecode": "0x608060405234801561001057600080fd5b50610229806100206000396000f3fe608060405234801561001057600080fd5b506004361061002b5760003560e01c806329e99f0714610030575b600080fd5b61004a6004803603810190610045919061011f565b610060565b604051610057919061015b565b60405180910390f35b6000808210156100a5576040517f08c379a000000000000000000000000000000000000000000000000000000000815260040161009c906101d3565b60405180910390fd5b7f909c57d5c6ac08245cf2a6de3900e2b868513fa59099b92b27d8db823d92df9c826040516100d4919061015b565b60405180910390a1819050919050565b600080fd5b6000819050919050565b6100fc816100e9565b811461010757600080fd5b50565b600081359050610119816100f3565b92915050565b600060208284031215610135576101346100e4565b5b60006101438482850161010a565b91505092915050565b610155816100e9565b82525050565b6000602082019050610170600083018461014c565b92915050565b600082825260208201905092915050565b7f6f6b000000000000000000000000000000000000000000000000000000000000600082015250565b60006101bd600283610176565b91506101c882610187565b602082019050919050565b600060208201905081810360008301526101ec816101b0565b905091905056fea2646970667358221220806d2969dbede27ce8b7399e91b882b5c41e620fed69099ac612bc79599b3b3164736f6c63430008130033",
  "immutableReferences": {},
  "source": "// SPDX-License-Identifier: MIT\npragma solidity >=0.4.22 <0.8.20;\n\ncontract YourContractName {\n  constructor()public{\n    \n  }\n  event Log(uint256 v);\n  function test(uint256 v) public returns (uint256){\n    require(v>=0,\"ok\");\n    emit Log(v);\n    return v;\n  }\n}\n",
  "sourcePath": "/Users/cj/worktemp/truffle-test2/contracts/YourContractName.sol",
  "compiler": {
    "name": "solc",
    "version": "0.8.19+commit.7dd6d404.Emscripten.clang"
  },
  "schemaVersion": "3.4.14",
  "updatedAt": "2023-08-06T04:18:57.571Z",
  "networkType": "ethereum",
  "devdoc": {
    "kind": "dev",
    "methods": {},
    "version": 1
  },
  "userdoc": {
    "kind": "user",
    "methods": {},
    "version": 1
  }
}